{
	"Courses.sol": {
		"Courses": {
			"abi": [
				{
					"inputs": [
						{
							"internalType": "address",
							"name": "_address",
							"type": "address"
						}
					],
					"name": "getInstructor",
					"outputs": [
						{
							"internalType": "uint256",
							"name": "",
							"type": "uint256"
						},
						{
							"internalType": "string",
							"name": "",
							"type": "string"
						},
						{
							"internalType": "string",
							"name": "",
							"type": "string"
						}
					],
					"stateMutability": "view",
					"type": "function"
				},
				{
					"inputs": [],
					"name": "getInstructors",
					"outputs": [
						{
							"internalType": "address[]",
							"name": "",
							"type": "address[]"
						}
					],
					"stateMutability": "view",
					"type": "function"
				},
				{
					"inputs": [
						{
							"internalType": "uint256",
							"name": "",
							"type": "uint256"
						}
					],
					"name": "instrutorAccts",
					"outputs": [
						{
							"internalType": "address",
							"name": "",
							"type": "address"
						}
					],
					"stateMutability": "view",
					"type": "function"
				},
				{
					"inputs": [
						{
							"internalType": "address",
							"name": "_address",
							"type": "address"
						},
						{
							"internalType": "uint256",
							"name": "_age",
							"type": "uint256"
						},
						{
							"internalType": "string",
							"name": "_fName",
							"type": "string"
						},
						{
							"internalType": "string",
							"name": "_lName",
							"type": "string"
						}
					],
					"name": "setInstructor",
					"outputs": [],
					"stateMutability": "nonpayable",
					"type": "function"
				}
			],
			"devdoc": {
				"kind": "dev",
				"methods": {},
				"version": 1
			},
			"evm": {
				"assembly": "    /* \"Courses.sol\":57:899  contract Courses {... */\n  mstore(0x40, 0x80)\n  callvalue\n  dup1\n  iszero\n  tag_1\n  jumpi\n  revert(0x00, 0x00)\ntag_1:\n  pop\n  dataSize(sub_0)\n  dup1\n  dataOffset(sub_0)\n  0x00\n  codecopy\n  0x00\n  return\nstop\n\nsub_0: assembly {\n        /* \"Courses.sol\":57:899  contract Courses {... */\n      mstore(0x40, 0x80)\n      callvalue\n      dup1\n      iszero\n      tag_1\n      jumpi\n      revert(0x00, 0x00)\n    tag_1:\n      pop\n      jumpi(tag_2, lt(calldatasize, 0x04))\n      shr(0xe0, calldataload(0x00))\n      dup1\n      0x0429e372\n      eq\n      tag_3\n      jumpi\n      dup1\n      0x46428adc\n      eq\n      tag_4\n      jumpi\n      dup1\n      0x51dbf197\n      eq\n      tag_5\n      jumpi\n      dup1\n      0x5eff7dae\n      eq\n      tag_6\n      jumpi\n    tag_2:\n      revert(0x00, 0x00)\n        /* \"Courses.sol\":690:897  function getInstructor(address _address) view public returns (uint, string memory, string memory) {... */\n    tag_3:\n      tag_7\n      0x04\n      dup1\n      calldatasize\n      sub\n      dup2\n      add\n      swap1\n      tag_8\n      swap2\n      swap1\n      tag_9\n      jump\t// in\n    tag_8:\n      tag_10\n      jump\t// in\n    tag_7:\n      mload(0x40)\n      tag_11\n      swap4\n      swap3\n      swap2\n      swap1\n      tag_12\n      jump\t// in\n    tag_11:\n      mload(0x40)\n      dup1\n      swap2\n      sub\n      swap1\n      return\n        /* \"Courses.sol\":260:575  function setInstructor(address _address, uint _age, string memory _fName, string memory _lName) public {... */\n    tag_4:\n      tag_13\n      0x04\n      dup1\n      calldatasize\n      sub\n      dup2\n      add\n      swap1\n      tag_14\n      swap2\n      swap1\n      tag_15\n      jump\t// in\n    tag_14:\n      tag_16\n      jump\t// in\n    tag_13:\n      stop\n        /* \"Courses.sol\":222:253  address[] public instrutorAccts */\n    tag_5:\n      tag_17\n      0x04\n      dup1\n      calldatasize\n      sub\n      dup2\n      add\n      swap1\n      tag_18\n      swap2\n      swap1\n      tag_19\n      jump\t// in\n    tag_18:\n      tag_20\n      jump\t// in\n    tag_17:\n      mload(0x40)\n      tag_21\n      swap2\n      swap1\n      tag_22\n      jump\t// in\n    tag_21:\n      mload(0x40)\n      dup1\n      swap2\n      sub\n      swap1\n      return\n        /* \"Courses.sol\":581:684  function getInstructors() view public returns (address[] memory) {... */\n    tag_6:\n      tag_23\n      tag_24\n      jump\t// in\n    tag_23:\n      mload(0x40)\n      tag_25\n      swap2\n      swap1\n      tag_26\n      jump\t// in\n    tag_25:\n      mload(0x40)\n      dup1\n      swap2\n      sub\n      swap1\n      return\n        /* \"Courses.sol\":690:897  function getInstructor(address _address) view public returns (uint, string memory, string memory) {... */\n    tag_10:\n        /* \"Courses.sol\":752:756  uint */\n      0x00\n        /* \"Courses.sol\":758:771  string memory */\n      0x60\n        /* \"Courses.sol\":773:786  string memory */\n      dup1\n        /* \"Courses.sol\":806:817  instructors */\n      0x00\n        /* \"Courses.sol\":806:827  instructors[_address] */\n      0x00\n        /* \"Courses.sol\":818:826  _address */\n      dup6\n        /* \"Courses.sol\":806:827  instructors[_address] */\n      0xffffffffffffffffffffffffffffffffffffffff\n      and\n      0xffffffffffffffffffffffffffffffffffffffff\n      and\n      dup2\n      mstore\n      0x20\n      add\n      swap1\n      dup2\n      mstore\n      0x20\n      add\n      0x00\n      keccak256\n        /* \"Courses.sol\":806:831  instructors[_address].age */\n      0x00\n      add\n      sload\n        /* \"Courses.sol\":833:844  instructors */\n      0x00\n        /* \"Courses.sol\":833:854  instructors[_address] */\n      0x00\n        /* \"Courses.sol\":845:853  _address */\n      dup7\n        /* \"Courses.sol\":833:854  instructors[_address] */\n      0xffffffffffffffffffffffffffffffffffffffff\n      and\n      0xffffffffffffffffffffffffffffffffffffffff\n      and\n      dup2\n      mstore\n      0x20\n      add\n      swap1\n      dup2\n      mstore\n      0x20\n      add\n      0x00\n      keccak256\n        /* \"Courses.sol\":833:860  instructors[_address].fName */\n      0x01\n      add\n        /* \"Courses.sol\":862:873  instructors */\n      0x00\n        /* \"Courses.sol\":862:883  instructors[_address] */\n      0x00\n        /* \"Courses.sol\":874:882  _address */\n      dup8\n        /* \"Courses.sol\":862:883  instructors[_address] */\n      0xffffffffffffffffffffffffffffffffffffffff\n      and\n      0xffffffffffffffffffffffffffffffffffffffff\n      and\n      dup2\n      mstore\n      0x20\n      add\n      swap1\n      dup2\n      mstore\n      0x20\n      add\n      0x00\n      keccak256\n        /* \"Courses.sol\":862:889  instructors[_address].lName */\n      0x02\n      add\n        /* \"Courses.sol\":798:890  return (instructors[_address].age, instructors[_address].fName, instructors[_address].lName) */\n      dup2\n      dup1\n      sload\n      tag_28\n      swap1\n      tag_29\n      jump\t// in\n    tag_28:\n      dup1\n      0x1f\n      add\n      0x20\n      dup1\n      swap2\n      div\n      mul\n      0x20\n      add\n      mload(0x40)\n      swap1\n      dup2\n      add\n      0x40\n      mstore\n      dup1\n      swap3\n      swap2\n      swap1\n      dup2\n      dup2\n      mstore\n      0x20\n      add\n      dup3\n      dup1\n      sload\n      tag_30\n      swap1\n      tag_29\n      jump\t// in\n    tag_30:\n      dup1\n      iszero\n      tag_31\n      jumpi\n      dup1\n      0x1f\n      lt\n      tag_32\n      jumpi\n      0x0100\n      dup1\n      dup4\n      sload\n      div\n      mul\n      dup4\n      mstore\n      swap2\n      0x20\n      add\n      swap2\n      jump(tag_31)\n    tag_32:\n      dup3\n      add\n      swap2\n      swap1\n      0x00\n      mstore\n      keccak256(0x00, 0x20)\n      swap1\n    tag_33:\n      dup2\n      sload\n      dup2\n      mstore\n      swap1\n      0x01\n      add\n      swap1\n      0x20\n      add\n      dup1\n      dup4\n      gt\n      tag_33\n      jumpi\n      dup3\n      swap1\n      sub\n      0x1f\n      and\n      dup3\n      add\n      swap2\n    tag_31:\n      pop\n      pop\n      pop\n      pop\n      pop\n      swap2\n      pop\n      dup1\n      dup1\n      sload\n      tag_34\n      swap1\n      tag_29\n      jump\t// in\n    tag_34:\n      dup1\n      0x1f\n      add\n      0x20\n      dup1\n      swap2\n      div\n      mul\n      0x20\n      add\n      mload(0x40)\n      swap1\n      dup2\n      add\n      0x40\n      mstore\n      dup1\n      swap3\n      swap2\n      swap1\n      dup2\n      dup2\n      mstore\n      0x20\n      add\n      dup3\n      dup1\n      sload\n      tag_35\n      swap1\n      tag_29\n      jump\t// in\n    tag_35:\n      dup1\n      iszero\n      tag_36\n      jumpi\n      dup1\n      0x1f\n      lt\n      tag_37\n      jumpi\n      0x0100\n      dup1\n      dup4\n      sload\n      div\n      mul\n      dup4\n      mstore\n      swap2\n      0x20\n      add\n      swap2\n      jump(tag_36)\n    tag_37:\n      dup3\n      add\n      swap2\n      swap1\n      0x00\n      mstore\n      keccak256(0x00, 0x20)\n      swap1\n    tag_38:\n      dup2\n      sload\n      dup2\n      mstore\n      swap1\n      0x01\n      add\n      swap1\n      0x20\n      add\n      dup1\n      dup4\n      gt\n      tag_38\n      jumpi\n      dup3\n      swap1\n      sub\n      0x1f\n      and\n      dup3\n      add\n      swap2\n    tag_36:\n      pop\n      pop\n      pop\n      pop\n      pop\n      swap1\n      pop\n      swap3\n      pop\n      swap3\n      pop\n      swap3\n      pop\n        /* \"Courses.sol\":690:897  function getInstructor(address _address) view public returns (uint, string memory, string memory) {... */\n      swap2\n      swap4\n      swap1\n      swap3\n      pop\n      jump\t// out\n        /* \"Courses.sol\":260:575  function setInstructor(address _address, uint _age, string memory _fName, string memory _lName) public {... */\n    tag_16:\n        /* \"Courses.sol\":373:402  Instructor storage instructor */\n      0x00\n        /* \"Courses.sol\":405:416  instructors */\n      0x00\n        /* \"Courses.sol\":405:426  instructors[_address] */\n      0x00\n        /* \"Courses.sol\":417:425  _address */\n      dup7\n        /* \"Courses.sol\":405:426  instructors[_address] */\n      0xffffffffffffffffffffffffffffffffffffffff\n      and\n      0xffffffffffffffffffffffffffffffffffffffff\n      and\n      dup2\n      mstore\n      0x20\n      add\n      swap1\n      dup2\n      mstore\n      0x20\n      add\n      0x00\n      keccak256\n        /* \"Courses.sol\":373:426  Instructor storage instructor = instructors[_address] */\n      swap1\n      pop\n        /* \"Courses.sol\":454:458  _age */\n      dup4\n        /* \"Courses.sol\":437:447  instructor */\n      dup2\n        /* \"Courses.sol\":437:451  instructor.age */\n      0x00\n      add\n        /* \"Courses.sol\":437:458  instructor.age = _age */\n      dup2\n      swap1\n      sstore\n      pop\n        /* \"Courses.sol\":487:493  _fName */\n      dup3\n        /* \"Courses.sol\":468:478  instructor */\n      dup2\n        /* \"Courses.sol\":468:484  instructor.fName */\n      0x01\n      add\n        /* \"Courses.sol\":468:493  instructor.fName = _fName */\n      swap1\n      dup2\n      tag_40\n      swap2\n      swap1\n      tag_41\n      jump\t// in\n    tag_40:\n      pop\n        /* \"Courses.sol\":522:528  _lName */\n      dup2\n        /* \"Courses.sol\":503:513  instructor */\n      dup2\n        /* \"Courses.sol\":503:519  instructor.lName */\n      0x02\n      add\n        /* \"Courses.sol\":503:528  instructor.lName = _lName */\n      swap1\n      dup2\n      tag_42\n      swap2\n      swap1\n      tag_41\n      jump\t// in\n    tag_42:\n      pop\n        /* \"Courses.sol\":539:553  instrutorAccts */\n      0x01\n        /* \"Courses.sol\":559:567  _address */\n      dup6\n        /* \"Courses.sol\":539:568  instrutorAccts.push(_address) */\n      swap1\n      dup1\n      0x01\n      dup2\n      sload\n      add\n      dup1\n      dup3\n      sstore\n      dup1\n      swap2\n      pop\n      pop\n      0x01\n      swap1\n      sub\n      swap1\n      0x00\n      mstore\n      keccak256(0x00, 0x20)\n      add\n      0x00\n      swap1\n      swap2\n      swap1\n      swap2\n      swap1\n      swap2\n      0x0100\n      exp\n      dup2\n      sload\n      dup2\n      0xffffffffffffffffffffffffffffffffffffffff\n      mul\n      not\n      and\n      swap1\n      dup4\n      0xffffffffffffffffffffffffffffffffffffffff\n      and\n      mul\n      or\n      swap1\n      sstore\n      pop\n        /* \"Courses.sol\":363:575  {... */\n      pop\n        /* \"Courses.sol\":260:575  function setInstructor(address _address, uint _age, string memory _fName, string memory _lName) public {... */\n      pop\n      pop\n      pop\n      pop\n      jump\t// out\n        /* \"Courses.sol\":222:253  address[] public instrutorAccts */\n    tag_20:\n      0x01\n      dup2\n      dup2\n      sload\n      dup2\n      lt\n      tag_44\n      jumpi\n      0x00\n      dup1\n      revert\n    tag_44:\n      swap1\n      0x00\n      mstore\n      keccak256(0x00, 0x20)\n      add\n      0x00\n      swap2\n      pop\n      sload\n      swap1\n      0x0100\n      exp\n      swap1\n      div\n      0xffffffffffffffffffffffffffffffffffffffff\n      and\n      dup2\n      jump\t// out\n        /* \"Courses.sol\":581:684  function getInstructors() view public returns (address[] memory) {... */\n    tag_24:\n        /* \"Courses.sol\":628:644  address[] memory */\n      0x60\n        /* \"Courses.sol\":663:677  instrutorAccts */\n      0x01\n        /* \"Courses.sol\":656:677  return instrutorAccts */\n      dup1\n      sload\n      dup1\n      0x20\n      mul\n      0x20\n      add\n      mload(0x40)\n      swap1\n      dup2\n      add\n      0x40\n      mstore\n      dup1\n      swap3\n      swap2\n      swap1\n      dup2\n      dup2\n      mstore\n      0x20\n      add\n      dup3\n      dup1\n      sload\n      dup1\n      iszero\n      tag_47\n      jumpi\n      0x20\n      mul\n      dup3\n      add\n      swap2\n      swap1\n      0x00\n      mstore\n      keccak256(0x00, 0x20)\n      swap1\n    tag_48:\n      dup2\n      0x00\n      swap1\n      sload\n      swap1\n      0x0100\n      exp\n      swap1\n      div\n      0xffffffffffffffffffffffffffffffffffffffff\n      and\n      0xffffffffffffffffffffffffffffffffffffffff\n      and\n      dup2\n      mstore\n      0x20\n      add\n      swap1\n      0x01\n      add\n      swap1\n      dup1\n      dup4\n      gt\n      tag_48\n      jumpi\n    tag_47:\n      pop\n      pop\n      pop\n      pop\n      pop\n      swap1\n      pop\n        /* \"Courses.sol\":581:684  function getInstructors() view public returns (address[] memory) {... */\n      swap1\n      jump\t// out\n        /* \"#utility.yul\":7:82   */\n    tag_49:\n        /* \"#utility.yul\":40:46   */\n      0x00\n        /* \"#utility.yul\":73:75   */\n      0x40\n        /* \"#utility.yul\":67:76   */\n      mload\n        /* \"#utility.yul\":57:76   */\n      swap1\n      pop\n        /* \"#utility.yul\":7:82   */\n      swap1\n      jump\t// out\n        /* \"#utility.yul\":88:205   */\n    tag_50:\n        /* \"#utility.yul\":197:198   */\n      0x00\n        /* \"#utility.yul\":194:195   */\n      0x00\n        /* \"#utility.yul\":187:199   */\n      revert\n        /* \"#utility.yul\":211:328   */\n    tag_51:\n        /* \"#utility.yul\":320:321   */\n      0x00\n        /* \"#utility.yul\":317:318   */\n      0x00\n        /* \"#utility.yul\":310:322   */\n      revert\n        /* \"#utility.yul\":334:460   */\n    tag_52:\n        /* \"#utility.yul\":371:378   */\n      0x00\n        /* \"#utility.yul\":411:453   */\n      0xffffffffffffffffffffffffffffffffffffffff\n        /* \"#utility.yul\":404:409   */\n      dup3\n        /* \"#utility.yul\":400:454   */\n      and\n        /* \"#utility.yul\":389:454   */\n      swap1\n      pop\n        /* \"#utility.yul\":334:460   */\n      swap2\n      swap1\n      pop\n      jump\t// out\n        /* \"#utility.yul\":466:562   */\n    tag_53:\n        /* \"#utility.yul\":503:510   */\n      0x00\n        /* \"#utility.yul\":532:556   */\n      tag_104\n        /* \"#utility.yul\":550:555   */\n      dup3\n        /* \"#utility.yul\":532:556   */\n      tag_52\n      jump\t// in\n    tag_104:\n        /* \"#utility.yul\":521:556   */\n      swap1\n      pop\n        /* \"#utility.yul\":466:562   */\n      swap2\n      swap1\n      pop\n      jump\t// out\n        /* \"#utility.yul\":568:690   */\n    tag_54:\n        /* \"#utility.yul\":641:665   */\n      tag_106\n        /* \"#utility.yul\":659:664   */\n      dup2\n        /* \"#utility.yul\":641:665   */\n      tag_53\n      jump\t// in\n    tag_106:\n        /* \"#utility.yul\":634:639   */\n      dup2\n        /* \"#utility.yul\":631:666   */\n      eq\n        /* \"#utility.yul\":621:684   */\n      tag_107\n      jumpi\n        /* \"#utility.yul\":680:681   */\n      0x00\n        /* \"#utility.yul\":677:678   */\n      0x00\n        /* \"#utility.yul\":670:682   */\n      revert\n        /* \"#utility.yul\":621:684   */\n    tag_107:\n        /* \"#utility.yul\":568:690   */\n      pop\n      jump\t// out\n        /* \"#utility.yul\":696:835   */\n    tag_55:\n        /* \"#utility.yul\":742:747   */\n      0x00\n        /* \"#utility.yul\":780:786   */\n      dup2\n        /* \"#utility.yul\":767:787   */\n      calldataload\n        /* \"#utility.yul\":758:787   */\n      swap1\n      pop\n        /* \"#utility.yul\":796:829   */\n      tag_109\n        /* \"#utility.yul\":823:828   */\n      dup2\n        /* \"#utility.yul\":796:829   */\n      tag_54\n      jump\t// in\n    tag_109:\n        /* \"#utility.yul\":696:835   */\n      swap3\n      swap2\n      pop\n      pop\n      jump\t// out\n        /* \"#utility.yul\":841:1170   */\n    tag_9:\n        /* \"#utility.yul\":900:906   */\n      0x00\n        /* \"#utility.yul\":949:951   */\n      0x20\n        /* \"#utility.yul\":937:946   */\n      dup3\n        /* \"#utility.yul\":928:935   */\n      dup5\n        /* \"#utility.yul\":924:947   */\n      sub\n        /* \"#utility.yul\":920:952   */\n      slt\n        /* \"#utility.yul\":917:1036   */\n      iszero\n      tag_111\n      jumpi\n        /* \"#utility.yul\":955:1034   */\n      tag_112\n      tag_50\n      jump\t// in\n    tag_112:\n        /* \"#utility.yul\":917:1036   */\n    tag_111:\n        /* \"#utility.yul\":1075:1076   */\n      0x00\n        /* \"#utility.yul\":1100:1153   */\n      tag_113\n        /* \"#utility.yul\":1145:1152   */\n      dup5\n        /* \"#utility.yul\":1136:1142   */\n      dup3\n        /* \"#utility.yul\":1125:1134   */\n      dup6\n        /* \"#utility.yul\":1121:1143   */\n      add\n        /* \"#utility.yul\":1100:1153   */\n      tag_55\n      jump\t// in\n    tag_113:\n        /* \"#utility.yul\":1090:1153   */\n      swap2\n      pop\n        /* \"#utility.yul\":1046:1163   */\n      pop\n        /* \"#utility.yul\":841:1170   */\n      swap3\n      swap2\n      pop\n      pop\n      jump\t// out\n        /* \"#utility.yul\":1176:1253   */\n    tag_56:\n        /* \"#utility.yul\":1213:1220   */\n      0x00\n        /* \"#utility.yul\":1242:1247   */\n      dup2\n        /* \"#utility.yul\":1231:1247   */\n      swap1\n      pop\n        /* \"#utility.yul\":1176:1253   */\n      swap2\n      swap1\n      pop\n      jump\t// out\n        /* \"#utility.yul\":1259:1377   */\n    tag_57:\n        /* \"#utility.yul\":1346:1370   */\n      tag_116\n        /* \"#utility.yul\":1364:1369   */\n      dup2\n        /* \"#utility.yul\":1346:1370   */\n      tag_56\n      jump\t// in\n    tag_116:\n        /* \"#utility.yul\":1341:1344   */\n      dup3\n        /* \"#utility.yul\":1334:1371   */\n      mstore\n        /* \"#utility.yul\":1259:1377   */\n      pop\n      pop\n      jump\t// out\n        /* \"#utility.yul\":1383:1482   */\n    tag_58:\n        /* \"#utility.yul\":1435:1441   */\n      0x00\n        /* \"#utility.yul\":1469:1474   */\n      dup2\n        /* \"#utility.yul\":1463:1475   */\n      mload\n        /* \"#utility.yul\":1453:1475   */\n      swap1\n      pop\n        /* \"#utility.yul\":1383:1482   */\n      swap2\n      swap1\n      pop\n      jump\t// out\n        /* \"#utility.yul\":1488:1657   */\n    tag_59:\n        /* \"#utility.yul\":1572:1583   */\n      0x00\n        /* \"#utility.yul\":1606:1612   */\n      dup3\n        /* \"#utility.yul\":1601:1604   */\n      dup3\n        /* \"#utility.yul\":1594:1613   */\n      mstore\n        /* \"#utility.yul\":1646:1650   */\n      0x20\n        /* \"#utility.yul\":1641:1644   */\n      dup3\n        /* \"#utility.yul\":1637:1651   */\n      add\n        /* \"#utility.yul\":1622:1651   */\n      swap1\n      pop\n        /* \"#utility.yul\":1488:1657   */\n      swap3\n      swap2\n      pop\n      pop\n      jump\t// out\n        /* \"#utility.yul\":1663:1802   */\n    tag_60:\n        /* \"#utility.yul\":1752:1758   */\n      dup3\n        /* \"#utility.yul\":1747:1750   */\n      dup2\n        /* \"#utility.yul\":1742:1745   */\n      dup4\n        /* \"#utility.yul\":1736:1759   */\n      mcopy\n        /* \"#utility.yul\":1793:1794   */\n      0x00\n        /* \"#utility.yul\":1784:1790   */\n      dup4\n        /* \"#utility.yul\":1779:1782   */\n      dup4\n        /* \"#utility.yul\":1775:1791   */\n      add\n        /* \"#utility.yul\":1768:1795   */\n      mstore\n        /* \"#utility.yul\":1663:1802   */\n      pop\n      pop\n      pop\n      jump\t// out\n        /* \"#utility.yul\":1808:1910   */\n    tag_61:\n        /* \"#utility.yul\":1849:1855   */\n      0x00\n        /* \"#utility.yul\":1900:1902   */\n      0x1f\n        /* \"#utility.yul\":1896:1903   */\n      not\n        /* \"#utility.yul\":1891:1893   */\n      0x1f\n        /* \"#utility.yul\":1884:1889   */\n      dup4\n        /* \"#utility.yul\":1880:1894   */\n      add\n        /* \"#utility.yul\":1876:1904   */\n      and\n        /* \"#utility.yul\":1866:1904   */\n      swap1\n      pop\n        /* \"#utility.yul\":1808:1910   */\n      swap2\n      swap1\n      pop\n      jump\t// out\n        /* \"#utility.yul\":1916:2293   */\n    tag_62:\n        /* \"#utility.yul\":2004:2007   */\n      0x00\n        /* \"#utility.yul\":2032:2071   */\n      tag_122\n        /* \"#utility.yul\":2065:2070   */\n      dup3\n        /* \"#utility.yul\":2032:2071   */\n      tag_58\n      jump\t// in\n    tag_122:\n        /* \"#utility.yul\":2087:2158   */\n      tag_123\n        /* \"#utility.yul\":2151:2157   */\n      dup2\n        /* \"#utility.yul\":2146:2149   */\n      dup6\n        /* \"#utility.yul\":2087:2158   */\n      tag_59\n      jump\t// in\n    tag_123:\n        /* \"#utility.yul\":2080:2158   */\n      swap4\n      pop\n        /* \"#utility.yul\":2167:2232   */\n      tag_124\n        /* \"#utility.yul\":2225:2231   */\n      dup2\n        /* \"#utility.yul\":2220:2223   */\n      dup6\n        /* \"#utility.yul\":2213:2217   */\n      0x20\n        /* \"#utility.yul\":2206:2211   */\n      dup7\n        /* \"#utility.yul\":2202:2218   */\n      add\n        /* \"#utility.yul\":2167:2232   */\n      tag_60\n      jump\t// in\n    tag_124:\n        /* \"#utility.yul\":2257:2286   */\n      tag_125\n        /* \"#utility.yul\":2279:2285   */\n      dup2\n        /* \"#utility.yul\":2257:2286   */\n      tag_61\n      jump\t// in\n    tag_125:\n        /* \"#utility.yul\":2252:2255   */\n      dup5\n        /* \"#utility.yul\":2248:2287   */\n      add\n        /* \"#utility.yul\":2241:2287   */\n      swap2\n      pop\n        /* \"#utility.yul\":2008:2293   */\n      pop\n        /* \"#utility.yul\":1916:2293   */\n      swap3\n      swap2\n      pop\n      pop\n      jump\t// out\n        /* \"#utility.yul\":2299:2923   */\n    tag_12:\n        /* \"#utility.yul\":2488:2492   */\n      0x00\n        /* \"#utility.yul\":2526:2528   */\n      0x60\n        /* \"#utility.yul\":2515:2524   */\n      dup3\n        /* \"#utility.yul\":2511:2529   */\n      add\n        /* \"#utility.yul\":2503:2529   */\n      swap1\n      pop\n        /* \"#utility.yul\":2539:2610   */\n      tag_127\n        /* \"#utility.yul\":2607:2608   */\n      0x00\n        /* \"#utility.yul\":2596:2605   */\n      dup4\n        /* \"#utility.yul\":2592:2609   */\n      add\n        /* \"#utility.yul\":2583:2589   */\n      dup7\n        /* \"#utility.yul\":2539:2610   */\n      tag_57\n      jump\t// in\n    tag_127:\n        /* \"#utility.yul\":2657:2666   */\n      dup2\n        /* \"#utility.yul\":2651:2655   */\n      dup2\n        /* \"#utility.yul\":2647:2667   */\n      sub\n        /* \"#utility.yul\":2642:2644   */\n      0x20\n        /* \"#utility.yul\":2631:2640   */\n      dup4\n        /* \"#utility.yul\":2627:2645   */\n      add\n        /* \"#utility.yul\":2620:2668   */\n      mstore\n        /* \"#utility.yul\":2685:2763   */\n      tag_128\n        /* \"#utility.yul\":2758:2762   */\n      dup2\n        /* \"#utility.yul\":2749:2755   */\n      dup6\n        /* \"#utility.yul\":2685:2763   */\n      tag_62\n      jump\t// in\n    tag_128:\n        /* \"#utility.yul\":2677:2763   */\n      swap1\n      pop\n        /* \"#utility.yul\":2810:2819   */\n      dup2\n        /* \"#utility.yul\":2804:2808   */\n      dup2\n        /* \"#utility.yul\":2800:2820   */\n      sub\n        /* \"#utility.yul\":2795:2797   */\n      0x40\n        /* \"#utility.yul\":2784:2793   */\n      dup4\n        /* \"#utility.yul\":2780:2798   */\n      add\n        /* \"#utility.yul\":2773:2821   */\n      mstore\n        /* \"#utility.yul\":2838:2916   */\n      tag_129\n        /* \"#utility.yul\":2911:2915   */\n      dup2\n        /* \"#utility.yul\":2902:2908   */\n      dup5\n        /* \"#utility.yul\":2838:2916   */\n      tag_62\n      jump\t// in\n    tag_129:\n        /* \"#utility.yul\":2830:2916   */\n      swap1\n      pop\n        /* \"#utility.yul\":2299:2923   */\n      swap5\n      swap4\n      pop\n      pop\n      pop\n      pop\n      jump\t// out\n        /* \"#utility.yul\":2929:3051   */\n    tag_63:\n        /* \"#utility.yul\":3002:3026   */\n      tag_131\n        /* \"#utility.yul\":3020:3025   */\n      dup2\n        /* \"#utility.yul\":3002:3026   */\n      tag_56\n      jump\t// in\n    tag_131:\n        /* \"#utility.yul\":2995:3000   */\n      dup2\n        /* \"#utility.yul\":2992:3027   */\n      eq\n        /* \"#utility.yul\":2982:3045   */\n      tag_132\n      jumpi\n        /* \"#utility.yul\":3041:3042   */\n      0x00\n        /* \"#utility.yul\":3038:3039   */\n      0x00\n        /* \"#utility.yul\":3031:3043   */\n      revert\n        /* \"#utility.yul\":2982:3045   */\n    tag_132:\n        /* \"#utility.yul\":2929:3051   */\n      pop\n      jump\t// out\n        /* \"#utility.yul\":3057:3196   */\n    tag_64:\n        /* \"#utility.yul\":3103:3108   */\n      0x00\n        /* \"#utility.yul\":3141:3147   */\n      dup2\n        /* \"#utility.yul\":3128:3148   */\n      calldataload\n        /* \"#utility.yul\":3119:3148   */\n      swap1\n      pop\n        /* \"#utility.yul\":3157:3190   */\n      tag_134\n        /* \"#utility.yul\":3184:3189   */\n      dup2\n        /* \"#utility.yul\":3157:3190   */\n      tag_63\n      jump\t// in\n    tag_134:\n        /* \"#utility.yul\":3057:3196   */\n      swap3\n      swap2\n      pop\n      pop\n      jump\t// out\n        /* \"#utility.yul\":3202:3319   */\n    tag_65:\n        /* \"#utility.yul\":3311:3312   */\n      0x00\n        /* \"#utility.yul\":3308:3309   */\n      0x00\n        /* \"#utility.yul\":3301:3313   */\n      revert\n        /* \"#utility.yul\":3325:3442   */\n    tag_66:\n        /* \"#utility.yul\":3434:3435   */\n      0x00\n        /* \"#utility.yul\":3431:3432   */\n      0x00\n        /* \"#utility.yul\":3424:3436   */\n      revert\n        /* \"#utility.yul\":3448:3628   */\n    tag_67:\n        /* \"#utility.yul\":3496:3573   */\n      0x4e487b7100000000000000000000000000000000000000000000000000000000\n        /* \"#utility.yul\":3493:3494   */\n      0x00\n        /* \"#utility.yul\":3486:3574   */\n      mstore\n        /* \"#utility.yul\":3593:3597   */\n      0x41\n        /* \"#utility.yul\":3590:3591   */\n      0x04\n        /* \"#utility.yul\":3583:3598   */\n      mstore\n        /* \"#utility.yul\":3617:3621   */\n      0x24\n        /* \"#utility.yul\":3614:3615   */\n      0x00\n        /* \"#utility.yul\":3607:3622   */\n      revert\n        /* \"#utility.yul\":3634:3915   */\n    tag_68:\n        /* \"#utility.yul\":3717:3744   */\n      tag_139\n        /* \"#utility.yul\":3739:3743   */\n      dup3\n        /* \"#utility.yul\":3717:3744   */\n      tag_61\n      jump\t// in\n    tag_139:\n        /* \"#utility.yul\":3709:3715   */\n      dup2\n        /* \"#utility.yul\":3705:3745   */\n      add\n        /* \"#utility.yul\":3847:3853   */\n      dup2\n        /* \"#utility.yul\":3835:3845   */\n      dup2\n        /* \"#utility.yul\":3832:3854   */\n      lt\n        /* \"#utility.yul\":3811:3829   */\n      0xffffffffffffffff\n        /* \"#utility.yul\":3799:3809   */\n      dup3\n        /* \"#utility.yul\":3796:3830   */\n      gt\n        /* \"#utility.yul\":3793:3855   */\n      or\n        /* \"#utility.yul\":3790:3878   */\n      iszero\n      tag_140\n      jumpi\n        /* \"#utility.yul\":3858:3876   */\n      tag_141\n      tag_67\n      jump\t// in\n    tag_141:\n        /* \"#utility.yul\":3790:3878   */\n    tag_140:\n        /* \"#utility.yul\":3898:3908   */\n      dup1\n        /* \"#utility.yul\":3894:3896   */\n      0x40\n        /* \"#utility.yul\":3887:3909   */\n      mstore\n        /* \"#utility.yul\":3677:3915   */\n      pop\n        /* \"#utility.yul\":3634:3915   */\n      pop\n      pop\n      jump\t// out\n        /* \"#utility.yul\":3921:4050   */\n    tag_69:\n        /* \"#utility.yul\":3955:3961   */\n      0x00\n        /* \"#utility.yul\":3982:4002   */\n      tag_143\n      tag_49\n      jump\t// in\n    tag_143:\n        /* \"#utility.yul\":3972:4002   */\n      swap1\n      pop\n        /* \"#utility.yul\":4011:4044   */\n      tag_144\n        /* \"#utility.yul\":4039:4043   */\n      dup3\n        /* \"#utility.yul\":4031:4037   */\n      dup3\n        /* \"#utility.yul\":4011:4044   */\n      tag_68\n      jump\t// in\n    tag_144:\n        /* \"#utility.yul\":3921:4050   */\n      swap2\n      swap1\n      pop\n      jump\t// out\n        /* \"#utility.yul\":4056:4364   */\n    tag_70:\n        /* \"#utility.yul\":4118:4122   */\n      0x00\n        /* \"#utility.yul\":4208:4226   */\n      0xffffffffffffffff\n        /* \"#utility.yul\":4200:4206   */\n      dup3\n        /* \"#utility.yul\":4197:4227   */\n      gt\n        /* \"#utility.yul\":4194:4250   */\n      iszero\n      tag_146\n      jumpi\n        /* \"#utility.yul\":4230:4248   */\n      tag_147\n      tag_67\n      jump\t// in\n    tag_147:\n        /* \"#utility.yul\":4194:4250   */\n    tag_146:\n        /* \"#utility.yul\":4268:4297   */\n      tag_148\n        /* \"#utility.yul\":4290:4296   */\n      dup3\n        /* \"#utility.yul\":4268:4297   */\n      tag_61\n      jump\t// in\n    tag_148:\n        /* \"#utility.yul\":4260:4297   */\n      swap1\n      pop\n        /* \"#utility.yul\":4352:4356   */\n      0x20\n        /* \"#utility.yul\":4346:4350   */\n      dup2\n        /* \"#utility.yul\":4342:4357   */\n      add\n        /* \"#utility.yul\":4334:4357   */\n      swap1\n      pop\n        /* \"#utility.yul\":4056:4364   */\n      swap2\n      swap1\n      pop\n      jump\t// out\n        /* \"#utility.yul\":4370:4518   */\n    tag_71:\n        /* \"#utility.yul\":4468:4474   */\n      dup3\n        /* \"#utility.yul\":4463:4466   */\n      dup2\n        /* \"#utility.yul\":4458:4461   */\n      dup4\n        /* \"#utility.yul\":4445:4475   */\n      calldatacopy\n        /* \"#utility.yul\":4509:4510   */\n      0x00\n        /* \"#utility.yul\":4500:4506   */\n      dup4\n        /* \"#utility.yul\":4495:4498   */\n      dup4\n        /* \"#utility.yul\":4491:4507   */\n      add\n        /* \"#utility.yul\":4484:4511   */\n      mstore\n        /* \"#utility.yul\":4370:4518   */\n      pop\n      pop\n      pop\n      jump\t// out\n        /* \"#utility.yul\":4524:4949   */\n    tag_72:\n        /* \"#utility.yul\":4602:4607   */\n      0x00\n        /* \"#utility.yul\":4627:4693   */\n      tag_151\n        /* \"#utility.yul\":4643:4692   */\n      tag_152\n        /* \"#utility.yul\":4685:4691   */\n      dup5\n        /* \"#utility.yul\":4643:4692   */\n      tag_70\n      jump\t// in\n    tag_152:\n        /* \"#utility.yul\":4627:4693   */\n      tag_69\n      jump\t// in\n    tag_151:\n        /* \"#utility.yul\":4618:4693   */\n      swap1\n      pop\n        /* \"#utility.yul\":4716:4722   */\n      dup3\n        /* \"#utility.yul\":4709:4714   */\n      dup2\n        /* \"#utility.yul\":4702:4723   */\n      mstore\n        /* \"#utility.yul\":4754:4758   */\n      0x20\n        /* \"#utility.yul\":4747:4752   */\n      dup2\n        /* \"#utility.yul\":4743:4759   */\n      add\n        /* \"#utility.yul\":4792:4795   */\n      dup5\n        /* \"#utility.yul\":4783:4789   */\n      dup5\n        /* \"#utility.yul\":4778:4781   */\n      dup5\n        /* \"#utility.yul\":4774:4790   */\n      add\n        /* \"#utility.yul\":4771:4796   */\n      gt\n        /* \"#utility.yul\":4768:4880   */\n      iszero\n      tag_153\n      jumpi\n        /* \"#utility.yul\":4799:4878   */\n      tag_154\n      tag_66\n      jump\t// in\n    tag_154:\n        /* \"#utility.yul\":4768:4880   */\n    tag_153:\n        /* \"#utility.yul\":4889:4943   */\n      tag_155\n        /* \"#utility.yul\":4936:4942   */\n      dup5\n        /* \"#utility.yul\":4931:4934   */\n      dup3\n        /* \"#utility.yul\":4926:4929   */\n      dup6\n        /* \"#utility.yul\":4889:4943   */\n      tag_71\n      jump\t// in\n    tag_155:\n        /* \"#utility.yul\":4608:4949   */\n      pop\n        /* \"#utility.yul\":4524:4949   */\n      swap4\n      swap3\n      pop\n      pop\n      pop\n      jump\t// out\n        /* \"#utility.yul\":4969:5309   */\n    tag_73:\n        /* \"#utility.yul\":5025:5030   */\n      0x00\n        /* \"#utility.yul\":5074:5077   */\n      dup3\n        /* \"#utility.yul\":5067:5071   */\n      0x1f\n        /* \"#utility.yul\":5059:5065   */\n      dup4\n        /* \"#utility.yul\":5055:5072   */\n      add\n        /* \"#utility.yul\":5051:5078   */\n      slt\n        /* \"#utility.yul\":5041:5163   */\n      tag_157\n      jumpi\n        /* \"#utility.yul\":5082:5161   */\n      tag_158\n      tag_65\n      jump\t// in\n    tag_158:\n        /* \"#utility.yul\":5041:5163   */\n    tag_157:\n        /* \"#utility.yul\":5199:5205   */\n      dup2\n        /* \"#utility.yul\":5186:5206   */\n      calldataload\n        /* \"#utility.yul\":5224:5303   */\n      tag_159\n        /* \"#utility.yul\":5299:5302   */\n      dup5\n        /* \"#utility.yul\":5291:5297   */\n      dup3\n        /* \"#utility.yul\":5284:5288   */\n      0x20\n        /* \"#utility.yul\":5276:5282   */\n      dup7\n        /* \"#utility.yul\":5272:5289   */\n      add\n        /* \"#utility.yul\":5224:5303   */\n      tag_72\n      jump\t// in\n    tag_159:\n        /* \"#utility.yul\":5215:5303   */\n      swap2\n      pop\n        /* \"#utility.yul\":5031:5309   */\n      pop\n        /* \"#utility.yul\":4969:5309   */\n      swap3\n      swap2\n      pop\n      pop\n      jump\t// out\n        /* \"#utility.yul\":5315:6440   */\n    tag_15:\n        /* \"#utility.yul\":5421:5427   */\n      0x00\n        /* \"#utility.yul\":5429:5435   */\n      0x00\n        /* \"#utility.yul\":5437:5443   */\n      0x00\n        /* \"#utility.yul\":5445:5451   */\n      0x00\n        /* \"#utility.yul\":5494:5497   */\n      0x80\n        /* \"#utility.yul\":5482:5491   */\n      dup6\n        /* \"#utility.yul\":5473:5480   */\n      dup8\n        /* \"#utility.yul\":5469:5492   */\n      sub\n        /* \"#utility.yul\":5465:5498   */\n      slt\n        /* \"#utility.yul\":5462:5582   */\n      iszero\n      tag_161\n      jumpi\n        /* \"#utility.yul\":5501:5580   */\n      tag_162\n      tag_50\n      jump\t// in\n    tag_162:\n        /* \"#utility.yul\":5462:5582   */\n    tag_161:\n        /* \"#utility.yul\":5621:5622   */\n      0x00\n        /* \"#utility.yul\":5646:5699   */\n      tag_163\n        /* \"#utility.yul\":5691:5698   */\n      dup8\n        /* \"#utility.yul\":5682:5688   */\n      dup3\n        /* \"#utility.yul\":5671:5680   */\n      dup9\n        /* \"#utility.yul\":5667:5689   */\n      add\n        /* \"#utility.yul\":5646:5699   */\n      tag_55\n      jump\t// in\n    tag_163:\n        /* \"#utility.yul\":5636:5699   */\n      swap5\n      pop\n        /* \"#utility.yul\":5592:5709   */\n      pop\n        /* \"#utility.yul\":5748:5750   */\n      0x20\n        /* \"#utility.yul\":5774:5827   */\n      tag_164\n        /* \"#utility.yul\":5819:5826   */\n      dup8\n        /* \"#utility.yul\":5810:5816   */\n      dup3\n        /* \"#utility.yul\":5799:5808   */\n      dup9\n        /* \"#utility.yul\":5795:5817   */\n      add\n        /* \"#utility.yul\":5774:5827   */\n      tag_64\n      jump\t// in\n    tag_164:\n        /* \"#utility.yul\":5764:5827   */\n      swap4\n      pop\n        /* \"#utility.yul\":5719:5837   */\n      pop\n        /* \"#utility.yul\":5904:5906   */\n      0x40\n        /* \"#utility.yul\":5893:5902   */\n      dup6\n        /* \"#utility.yul\":5889:5907   */\n      add\n        /* \"#utility.yul\":5876:5908   */\n      calldataload\n        /* \"#utility.yul\":5935:5953   */\n      0xffffffffffffffff\n        /* \"#utility.yul\":5927:5933   */\n      dup2\n        /* \"#utility.yul\":5924:5954   */\n      gt\n        /* \"#utility.yul\":5921:6038   */\n      iszero\n      tag_165\n      jumpi\n        /* \"#utility.yul\":5957:6036   */\n      tag_166\n      tag_51\n      jump\t// in\n    tag_166:\n        /* \"#utility.yul\":5921:6038   */\n    tag_165:\n        /* \"#utility.yul\":6062:6125   */\n      tag_167\n        /* \"#utility.yul\":6117:6124   */\n      dup8\n        /* \"#utility.yul\":6108:6114   */\n      dup3\n        /* \"#utility.yul\":6097:6106   */\n      dup9\n        /* \"#utility.yul\":6093:6115   */\n      add\n        /* \"#utility.yul\":6062:6125   */\n      tag_73\n      jump\t// in\n    tag_167:\n        /* \"#utility.yul\":6052:6125   */\n      swap3\n      pop\n        /* \"#utility.yul\":5847:6135   */\n      pop\n        /* \"#utility.yul\":6202:6204   */\n      0x60\n        /* \"#utility.yul\":6191:6200   */\n      dup6\n        /* \"#utility.yul\":6187:6205   */\n      add\n        /* \"#utility.yul\":6174:6206   */\n      calldataload\n        /* \"#utility.yul\":6233:6251   */\n      0xffffffffffffffff\n        /* \"#utility.yul\":6225:6231   */\n      dup2\n        /* \"#utility.yul\":6222:6252   */\n      gt\n        /* \"#utility.yul\":6219:6336   */\n      iszero\n      tag_168\n      jumpi\n        /* \"#utility.yul\":6255:6334   */\n      tag_169\n      tag_51\n      jump\t// in\n    tag_169:\n        /* \"#utility.yul\":6219:6336   */\n    tag_168:\n        /* \"#utility.yul\":6360:6423   */\n      tag_170\n        /* \"#utility.yul\":6415:6422   */\n      dup8\n        /* \"#utility.yul\":6406:6412   */\n      dup3\n        /* \"#utility.yul\":6395:6404   */\n      dup9\n        /* \"#utility.yul\":6391:6413   */\n      add\n        /* \"#utility.yul\":6360:6423   */\n      tag_73\n      jump\t// in\n    tag_170:\n        /* \"#utility.yul\":6350:6423   */\n      swap2\n      pop\n        /* \"#utility.yul\":6145:6433   */\n      pop\n        /* \"#utility.yul\":5315:6440   */\n      swap3\n      swap6\n      swap2\n      swap5\n      pop\n      swap3\n      pop\n      jump\t// out\n        /* \"#utility.yul\":6446:6775   */\n    tag_19:\n        /* \"#utility.yul\":6505:6511   */\n      0x00\n        /* \"#utility.yul\":6554:6556   */\n      0x20\n        /* \"#utility.yul\":6542:6551   */\n      dup3\n        /* \"#utility.yul\":6533:6540   */\n      dup5\n        /* \"#utility.yul\":6529:6552   */\n      sub\n        /* \"#utility.yul\":6525:6557   */\n      slt\n        /* \"#utility.yul\":6522:6641   */\n      iszero\n      tag_172\n      jumpi\n        /* \"#utility.yul\":6560:6639   */\n      tag_173\n      tag_50\n      jump\t// in\n    tag_173:\n        /* \"#utility.yul\":6522:6641   */\n    tag_172:\n        /* \"#utility.yul\":6680:6681   */\n      0x00\n        /* \"#utility.yul\":6705:6758   */\n      tag_174\n        /* \"#utility.yul\":6750:6757   */\n      dup5\n        /* \"#utility.yul\":6741:6747   */\n      dup3\n        /* \"#utility.yul\":6730:6739   */\n      dup6\n        /* \"#utility.yul\":6726:6748   */\n      add\n        /* \"#utility.yul\":6705:6758   */\n      tag_64\n      jump\t// in\n    tag_174:\n        /* \"#utility.yul\":6695:6758   */\n      swap2\n      pop\n        /* \"#utility.yul\":6651:6768   */\n      pop\n        /* \"#utility.yul\":6446:6775   */\n      swap3\n      swap2\n      pop\n      pop\n      jump\t// out\n        /* \"#utility.yul\":6781:6899   */\n    tag_74:\n        /* \"#utility.yul\":6868:6892   */\n      tag_176\n        /* \"#utility.yul\":6886:6891   */\n      dup2\n        /* \"#utility.yul\":6868:6892   */\n      tag_53\n      jump\t// in\n    tag_176:\n        /* \"#utility.yul\":6863:6866   */\n      dup3\n        /* \"#utility.yul\":6856:6893   */\n      mstore\n        /* \"#utility.yul\":6781:6899   */\n      pop\n      pop\n      jump\t// out\n        /* \"#utility.yul\":6905:7127   */\n    tag_22:\n        /* \"#utility.yul\":6998:7002   */\n      0x00\n        /* \"#utility.yul\":7036:7038   */\n      0x20\n        /* \"#utility.yul\":7025:7034   */\n      dup3\n        /* \"#utility.yul\":7021:7039   */\n      add\n        /* \"#utility.yul\":7013:7039   */\n      swap1\n      pop\n        /* \"#utility.yul\":7049:7120   */\n      tag_178\n        /* \"#utility.yul\":7117:7118   */\n      0x00\n        /* \"#utility.yul\":7106:7115   */\n      dup4\n        /* \"#utility.yul\":7102:7119   */\n      add\n        /* \"#utility.yul\":7093:7099   */\n      dup5\n        /* \"#utility.yul\":7049:7120   */\n      tag_74\n      jump\t// in\n    tag_178:\n        /* \"#utility.yul\":6905:7127   */\n      swap3\n      swap2\n      pop\n      pop\n      jump\t// out\n        /* \"#utility.yul\":7133:7247   */\n    tag_75:\n        /* \"#utility.yul\":7200:7206   */\n      0x00\n        /* \"#utility.yul\":7234:7239   */\n      dup2\n        /* \"#utility.yul\":7228:7240   */\n      mload\n        /* \"#utility.yul\":7218:7240   */\n      swap1\n      pop\n        /* \"#utility.yul\":7133:7247   */\n      swap2\n      swap1\n      pop\n      jump\t// out\n        /* \"#utility.yul\":7253:7437   */\n    tag_76:\n        /* \"#utility.yul\":7352:7363   */\n      0x00\n        /* \"#utility.yul\":7386:7392   */\n      dup3\n        /* \"#utility.yul\":7381:7384   */\n      dup3\n        /* \"#utility.yul\":7374:7393   */\n      mstore\n        /* \"#utility.yul\":7426:7430   */\n      0x20\n        /* \"#utility.yul\":7421:7424   */\n      dup3\n        /* \"#utility.yul\":7417:7431   */\n      add\n        /* \"#utility.yul\":7402:7431   */\n      swap1\n      pop\n        /* \"#utility.yul\":7253:7437   */\n      swap3\n      swap2\n      pop\n      pop\n      jump\t// out\n        /* \"#utility.yul\":7443:7575   */\n    tag_77:\n        /* \"#utility.yul\":7510:7514   */\n      0x00\n        /* \"#utility.yul\":7533:7536   */\n      dup2\n        /* \"#utility.yul\":7525:7536   */\n      swap1\n      pop\n        /* \"#utility.yul\":7563:7567   */\n      0x20\n        /* \"#utility.yul\":7558:7561   */\n      dup3\n        /* \"#utility.yul\":7554:7568   */\n      add\n        /* \"#utility.yul\":7546:7568   */\n      swap1\n      pop\n        /* \"#utility.yul\":7443:7575   */\n      swap2\n      swap1\n      pop\n      jump\t// out\n        /* \"#utility.yul\":7581:7689   */\n    tag_78:\n        /* \"#utility.yul\":7658:7682   */\n      tag_183\n        /* \"#utility.yul\":7676:7681   */\n      dup2\n        /* \"#utility.yul\":7658:7682   */\n      tag_53\n      jump\t// in\n    tag_183:\n        /* \"#utility.yul\":7653:7656   */\n      dup3\n        /* \"#utility.yul\":7646:7683   */\n      mstore\n        /* \"#utility.yul\":7581:7689   */\n      pop\n      pop\n      jump\t// out\n        /* \"#utility.yul\":7695:7874   */\n    tag_79:\n        /* \"#utility.yul\":7764:7774   */\n      0x00\n        /* \"#utility.yul\":7785:7831   */\n      tag_185\n        /* \"#utility.yul\":7827:7830   */\n      dup4\n        /* \"#utility.yul\":7819:7825   */\n      dup4\n        /* \"#utility.yul\":7785:7831   */\n      tag_78\n      jump\t// in\n    tag_185:\n        /* \"#utility.yul\":7863:7867   */\n      0x20\n        /* \"#utility.yul\":7858:7861   */\n      dup4\n        /* \"#utility.yul\":7854:7868   */\n      add\n        /* \"#utility.yul\":7840:7868   */\n      swap1\n      pop\n        /* \"#utility.yul\":7695:7874   */\n      swap3\n      swap2\n      pop\n      pop\n      jump\t// out\n        /* \"#utility.yul\":7880:7993   */\n    tag_80:\n        /* \"#utility.yul\":7950:7954   */\n      0x00\n        /* \"#utility.yul\":7982:7986   */\n      0x20\n        /* \"#utility.yul\":7977:7980   */\n      dup3\n        /* \"#utility.yul\":7973:7987   */\n      add\n        /* \"#utility.yul\":7965:7987   */\n      swap1\n      pop\n        /* \"#utility.yul\":7880:7993   */\n      swap2\n      swap1\n      pop\n      jump\t// out\n        /* \"#utility.yul\":8029:8761   */\n    tag_81:\n        /* \"#utility.yul\":8148:8151   */\n      0x00\n        /* \"#utility.yul\":8177:8231   */\n      tag_188\n        /* \"#utility.yul\":8225:8230   */\n      dup3\n        /* \"#utility.yul\":8177:8231   */\n      tag_75\n      jump\t// in\n    tag_188:\n        /* \"#utility.yul\":8247:8333   */\n      tag_189\n        /* \"#utility.yul\":8326:8332   */\n      dup2\n        /* \"#utility.yul\":8321:8324   */\n      dup6\n        /* \"#utility.yul\":8247:8333   */\n      tag_76\n      jump\t// in\n    tag_189:\n        /* \"#utility.yul\":8240:8333   */\n      swap4\n      pop\n        /* \"#utility.yul\":8357:8413   */\n      tag_190\n        /* \"#utility.yul\":8407:8412   */\n      dup4\n        /* \"#utility.yul\":8357:8413   */\n      tag_77\n      jump\t// in\n    tag_190:\n        /* \"#utility.yul\":8436:8443   */\n      dup1\n        /* \"#utility.yul\":8467:8468   */\n      0x00\n        /* \"#utility.yul\":8452:8736   */\n    tag_191:\n        /* \"#utility.yul\":8477:8483   */\n      dup4\n        /* \"#utility.yul\":8474:8475   */\n      dup2\n        /* \"#utility.yul\":8471:8484   */\n      lt\n        /* \"#utility.yul\":8452:8736   */\n      iszero\n      tag_193\n      jumpi\n        /* \"#utility.yul\":8553:8559   */\n      dup2\n        /* \"#utility.yul\":8547:8560   */\n      mload\n        /* \"#utility.yul\":8580:8643   */\n      tag_194\n        /* \"#utility.yul\":8639:8642   */\n      dup9\n        /* \"#utility.yul\":8624:8637   */\n      dup3\n        /* \"#utility.yul\":8580:8643   */\n      tag_79\n      jump\t// in\n    tag_194:\n        /* \"#utility.yul\":8573:8643   */\n      swap8\n      pop\n        /* \"#utility.yul\":8666:8726   */\n      tag_195\n        /* \"#utility.yul\":8719:8725   */\n      dup4\n        /* \"#utility.yul\":8666:8726   */\n      tag_80\n      jump\t// in\n    tag_195:\n        /* \"#utility.yul\":8656:8726   */\n      swap3\n      pop\n        /* \"#utility.yul\":8512:8736   */\n      pop\n        /* \"#utility.yul\":8499:8500   */\n      0x01\n        /* \"#utility.yul\":8496:8497   */\n      dup2\n        /* \"#utility.yul\":8492:8501   */\n      add\n        /* \"#utility.yul\":8487:8501   */\n      swap1\n      pop\n        /* \"#utility.yul\":8452:8736   */\n      jump(tag_191)\n    tag_193:\n        /* \"#utility.yul\":8456:8470   */\n      pop\n        /* \"#utility.yul\":8752:8755   */\n      dup6\n        /* \"#utility.yul\":8745:8755   */\n      swap4\n      pop\n        /* \"#utility.yul\":8153:8761   */\n      pop\n      pop\n      pop\n        /* \"#utility.yul\":8029:8761   */\n      swap3\n      swap2\n      pop\n      pop\n      jump\t// out\n        /* \"#utility.yul\":8767:9140   */\n    tag_26:\n        /* \"#utility.yul\":8910:8914   */\n      0x00\n        /* \"#utility.yul\":8948:8950   */\n      0x20\n        /* \"#utility.yul\":8937:8946   */\n      dup3\n        /* \"#utility.yul\":8933:8951   */\n      add\n        /* \"#utility.yul\":8925:8951   */\n      swap1\n      pop\n        /* \"#utility.yul\":8997:9006   */\n      dup2\n        /* \"#utility.yul\":8991:8995   */\n      dup2\n        /* \"#utility.yul\":8987:9007   */\n      sub\n        /* \"#utility.yul\":8983:8984   */\n      0x00\n        /* \"#utility.yul\":8972:8981   */\n      dup4\n        /* \"#utility.yul\":8968:8985   */\n      add\n        /* \"#utility.yul\":8961:9008   */\n      mstore\n        /* \"#utility.yul\":9025:9133   */\n      tag_197\n        /* \"#utility.yul\":9128:9132   */\n      dup2\n        /* \"#utility.yul\":9119:9125   */\n      dup5\n        /* \"#utility.yul\":9025:9133   */\n      tag_81\n      jump\t// in\n    tag_197:\n        /* \"#utility.yul\":9017:9133   */\n      swap1\n      pop\n        /* \"#utility.yul\":8767:9140   */\n      swap3\n      swap2\n      pop\n      pop\n      jump\t// out\n        /* \"#utility.yul\":9146:9326   */\n    tag_82:\n        /* \"#utility.yul\":9194:9271   */\n      0x4e487b7100000000000000000000000000000000000000000000000000000000\n        /* \"#utility.yul\":9191:9192   */\n      0x00\n        /* \"#utility.yul\":9184:9272   */\n      mstore\n        /* \"#utility.yul\":9291:9295   */\n      0x22\n        /* \"#utility.yul\":9288:9289   */\n      0x04\n        /* \"#utility.yul\":9281:9296   */\n      mstore\n        /* \"#utility.yul\":9315:9319   */\n      0x24\n        /* \"#utility.yul\":9312:9313   */\n      0x00\n        /* \"#utility.yul\":9305:9320   */\n      revert\n        /* \"#utility.yul\":9332:9652   */\n    tag_29:\n        /* \"#utility.yul\":9376:9382   */\n      0x00\n        /* \"#utility.yul\":9413:9414   */\n      0x02\n        /* \"#utility.yul\":9407:9411   */\n      dup3\n        /* \"#utility.yul\":9403:9415   */\n      div\n        /* \"#utility.yul\":9393:9415   */\n      swap1\n      pop\n        /* \"#utility.yul\":9460:9461   */\n      0x01\n        /* \"#utility.yul\":9454:9458   */\n      dup3\n        /* \"#utility.yul\":9450:9462   */\n      and\n        /* \"#utility.yul\":9481:9499   */\n      dup1\n        /* \"#utility.yul\":9471:9552   */\n      tag_200\n      jumpi\n        /* \"#utility.yul\":9537:9541   */\n      0x7f\n        /* \"#utility.yul\":9529:9535   */\n      dup3\n        /* \"#utility.yul\":9525:9542   */\n      and\n        /* \"#utility.yul\":9515:9542   */\n      swap2\n      pop\n        /* \"#utility.yul\":9471:9552   */\n    tag_200:\n        /* \"#utility.yul\":9599:9601   */\n      0x20\n        /* \"#utility.yul\":9591:9597   */\n      dup3\n        /* \"#utility.yul\":9588:9602   */\n      lt\n        /* \"#utility.yul\":9568:9586   */\n      dup2\n        /* \"#utility.yul\":9565:9603   */\n      sub\n        /* \"#utility.yul\":9562:9646   */\n      tag_201\n      jumpi\n        /* \"#utility.yul\":9618:9636   */\n      tag_202\n      tag_82\n      jump\t// in\n    tag_202:\n        /* \"#utility.yul\":9562:9646   */\n    tag_201:\n        /* \"#utility.yul\":9383:9652   */\n      pop\n        /* \"#utility.yul\":9332:9652   */\n      swap2\n      swap1\n      pop\n      jump\t// out\n        /* \"#utility.yul\":9658:9799   */\n    tag_83:\n        /* \"#utility.yul\":9707:9711   */\n      0x00\n        /* \"#utility.yul\":9730:9733   */\n      dup2\n        /* \"#utility.yul\":9722:9733   */\n      swap1\n      pop\n        /* \"#utility.yul\":9753:9756   */\n      dup2\n        /* \"#utility.yul\":9750:9751   */\n      0x00\n        /* \"#utility.yul\":9743:9757   */\n      mstore\n        /* \"#utility.yul\":9787:9791   */\n      0x20\n        /* \"#utility.yul\":9784:9785   */\n      0x00\n        /* \"#utility.yul\":9774:9792   */\n      keccak256\n        /* \"#utility.yul\":9766:9792   */\n      swap1\n      pop\n        /* \"#utility.yul\":9658:9799   */\n      swap2\n      swap1\n      pop\n      jump\t// out\n        /* \"#utility.yul\":9805:9898   */\n    tag_84:\n        /* \"#utility.yul\":9842:9848   */\n      0x00\n        /* \"#utility.yul\":9889:9891   */\n      0x20\n        /* \"#utility.yul\":9884:9886   */\n      0x1f\n        /* \"#utility.yul\":9877:9882   */\n      dup4\n        /* \"#utility.yul\":9873:9887   */\n      add\n        /* \"#utility.yul\":9869:9892   */\n      div\n        /* \"#utility.yul\":9859:9892   */\n      swap1\n      pop\n        /* \"#utility.yul\":9805:9898   */\n      swap2\n      swap1\n      pop\n      jump\t// out\n        /* \"#utility.yul\":9904:10011   */\n    tag_85:\n        /* \"#utility.yul\":9948:9956   */\n      0x00\n        /* \"#utility.yul\":9998:10003   */\n      dup3\n        /* \"#utility.yul\":9992:9996   */\n      dup3\n        /* \"#utility.yul\":9988:10004   */\n      shl\n        /* \"#utility.yul\":9967:10004   */\n      swap1\n      pop\n        /* \"#utility.yul\":9904:10011   */\n      swap3\n      swap2\n      pop\n      pop\n      jump\t// out\n        /* \"#utility.yul\":10017:10410   */\n    tag_86:\n        /* \"#utility.yul\":10086:10092   */\n      0x00\n        /* \"#utility.yul\":10136:10137   */\n      0x08\n        /* \"#utility.yul\":10124:10134   */\n      dup4\n        /* \"#utility.yul\":10120:10138   */\n      mul\n        /* \"#utility.yul\":10159:10256   */\n      tag_207\n        /* \"#utility.yul\":10189:10255   */\n      0xffffffffffffffffffffffffffffffffffffffffffffffffffffffffffffffff\n        /* \"#utility.yul\":10178:10187   */\n      dup3\n        /* \"#utility.yul\":10159:10256   */\n      tag_85\n      jump\t// in\n    tag_207:\n        /* \"#utility.yul\":10277:10316   */\n      tag_208\n        /* \"#utility.yul\":10307:10315   */\n      dup7\n        /* \"#utility.yul\":10296:10305   */\n      dup4\n        /* \"#utility.yul\":10277:10316   */\n      tag_85\n      jump\t// in\n    tag_208:\n        /* \"#utility.yul\":10265:10316   */\n      swap6\n      pop\n        /* \"#utility.yul\":10349:10353   */\n      dup1\n        /* \"#utility.yul\":10345:10354   */\n      not\n        /* \"#utility.yul\":10338:10343   */\n      dup5\n        /* \"#utility.yul\":10334:10355   */\n      and\n        /* \"#utility.yul\":10325:10355   */\n      swap4\n      pop\n        /* \"#utility.yul\":10398:10402   */\n      dup1\n        /* \"#utility.yul\":10388:10396   */\n      dup7\n        /* \"#utility.yul\":10384:10403   */\n      and\n        /* \"#utility.yul\":10377:10382   */\n      dup5\n        /* \"#utility.yul\":10374:10404   */\n      or\n        /* \"#utility.yul\":10364:10404   */\n      swap3\n      pop\n        /* \"#utility.yul\":10093:10410   */\n      pop\n      pop\n        /* \"#utility.yul\":10017:10410   */\n      swap4\n      swap3\n      pop\n      pop\n      pop\n      jump\t// out\n        /* \"#utility.yul\":10416:10476   */\n    tag_87:\n        /* \"#utility.yul\":10444:10447   */\n      0x00\n        /* \"#utility.yul\":10465:10470   */\n      dup2\n        /* \"#utility.yul\":10458:10470   */\n      swap1\n      pop\n        /* \"#utility.yul\":10416:10476   */\n      swap2\n      swap1\n      pop\n      jump\t// out\n        /* \"#utility.yul\":10482:10624   */\n    tag_88:\n        /* \"#utility.yul\":10532:10541   */\n      0x00\n        /* \"#utility.yul\":10565:10618   */\n      tag_211\n        /* \"#utility.yul\":10583:10617   */\n      tag_212\n        /* \"#utility.yul\":10592:10616   */\n      tag_213\n        /* \"#utility.yul\":10610:10615   */\n      dup5\n        /* \"#utility.yul\":10592:10616   */\n      tag_56\n      jump\t// in\n    tag_213:\n        /* \"#utility.yul\":10583:10617   */\n      tag_87\n      jump\t// in\n    tag_212:\n        /* \"#utility.yul\":10565:10618   */\n      tag_56\n      jump\t// in\n    tag_211:\n        /* \"#utility.yul\":10552:10618   */\n      swap1\n      pop\n        /* \"#utility.yul\":10482:10624   */\n      swap2\n      swap1\n      pop\n      jump\t// out\n        /* \"#utility.yul\":10630:10705   */\n    tag_89:\n        /* \"#utility.yul\":10673:10676   */\n      0x00\n        /* \"#utility.yul\":10694:10699   */\n      dup2\n        /* \"#utility.yul\":10687:10699   */\n      swap1\n      pop\n        /* \"#utility.yul\":10630:10705   */\n      swap2\n      swap1\n      pop\n      jump\t// out\n        /* \"#utility.yul\":10711:10980   */\n    tag_90:\n        /* \"#utility.yul\":10821:10860   */\n      tag_216\n        /* \"#utility.yul\":10852:10859   */\n      dup4\n        /* \"#utility.yul\":10821:10860   */\n      tag_88\n      jump\t// in\n    tag_216:\n        /* \"#utility.yul\":10882:10973   */\n      tag_217\n        /* \"#utility.yul\":10931:10972   */\n      tag_218\n        /* \"#utility.yul\":10955:10971   */\n      dup3\n        /* \"#utility.yul\":10931:10972   */\n      tag_89\n      jump\t// in\n    tag_218:\n        /* \"#utility.yul\":10923:10929   */\n      dup5\n        /* \"#utility.yul\":10916:10920   */\n      dup5\n        /* \"#utility.yul\":10910:10921   */\n      sload\n        /* \"#utility.yul\":10882:10973   */\n      tag_86\n      jump\t// in\n    tag_217:\n        /* \"#utility.yul\":10876:10880   */\n      dup3\n        /* \"#utility.yul\":10869:10974   */\n      sstore\n        /* \"#utility.yul\":10787:10980   */\n      pop\n        /* \"#utility.yul\":10711:10980   */\n      pop\n      pop\n      pop\n      jump\t// out\n        /* \"#utility.yul\":10986:11059   */\n    tag_91:\n        /* \"#utility.yul\":11031:11034   */\n      0x00\n        /* \"#utility.yul\":11052:11053   */\n      0x00\n        /* \"#utility.yul\":11045:11053   */\n      swap1\n      pop\n        /* \"#utility.yul\":10986:11059   */\n      swap1\n      jump\t// out\n        /* \"#utility.yul\":11065:11254   */\n    tag_92:\n        /* \"#utility.yul\":11142:11174   */\n      tag_221\n      tag_91\n      jump\t// in\n    tag_221:\n        /* \"#utility.yul\":11183:11248   */\n      tag_222\n        /* \"#utility.yul\":11241:11247   */\n      dup2\n        /* \"#utility.yul\":11233:11239   */\n      dup5\n        /* \"#utility.yul\":11227:11231   */\n      dup5\n        /* \"#utility.yul\":11183:11248   */\n      tag_90\n      jump\t// in\n    tag_222:\n        /* \"#utility.yul\":11118:11254   */\n      pop\n        /* \"#utility.yul\":11065:11254   */\n      pop\n      pop\n      jump\t// out\n        /* \"#utility.yul\":11260:11446   */\n    tag_93:\n        /* \"#utility.yul\":11320:11440   */\n    tag_224:\n        /* \"#utility.yul\":11337:11340   */\n      dup2\n        /* \"#utility.yul\":11330:11335   */\n      dup2\n        /* \"#utility.yul\":11327:11341   */\n      lt\n        /* \"#utility.yul\":11320:11440   */\n      iszero\n      tag_226\n      jumpi\n        /* \"#utility.yul\":11391:11430   */\n      tag_227\n        /* \"#utility.yul\":11428:11429   */\n      0x00\n        /* \"#utility.yul\":11421:11426   */\n      dup3\n        /* \"#utility.yul\":11391:11430   */\n      tag_92\n      jump\t// in\n    tag_227:\n        /* \"#utility.yul\":11364:11365   */\n      0x01\n        /* \"#utility.yul\":11357:11362   */\n      dup2\n        /* \"#utility.yul\":11353:11366   */\n      add\n        /* \"#utility.yul\":11344:11366   */\n      swap1\n      pop\n        /* \"#utility.yul\":11320:11440   */\n      jump(tag_224)\n    tag_226:\n        /* \"#utility.yul\":11260:11446   */\n      pop\n      pop\n      jump\t// out\n        /* \"#utility.yul\":11452:11995   */\n    tag_94:\n        /* \"#utility.yul\":11553:11555   */\n      0x1f\n        /* \"#utility.yul\":11548:11551   */\n      dup3\n        /* \"#utility.yul\":11545:11556   */\n      gt\n        /* \"#utility.yul\":11542:11988   */\n      iszero\n      tag_229\n      jumpi\n        /* \"#utility.yul\":11587:11625   */\n      tag_230\n        /* \"#utility.yul\":11619:11624   */\n      dup2\n        /* \"#utility.yul\":11587:11625   */\n      tag_83\n      jump\t// in\n    tag_230:\n        /* \"#utility.yul\":11671:11700   */\n      tag_231\n        /* \"#utility.yul\":11689:11699   */\n      dup5\n        /* \"#utility.yul\":11671:11700   */\n      tag_84\n      jump\t// in\n    tag_231:\n        /* \"#utility.yul\":11661:11669   */\n      dup2\n        /* \"#utility.yul\":11657:11701   */\n      add\n        /* \"#utility.yul\":11854:11856   */\n      0x20\n        /* \"#utility.yul\":11842:11852   */\n      dup6\n        /* \"#utility.yul\":11839:11857   */\n      lt\n        /* \"#utility.yul\":11836:11885   */\n      iszero\n      tag_232\n      jumpi\n        /* \"#utility.yul\":11875:11883   */\n      dup2\n        /* \"#utility.yul\":11860:11883   */\n      swap1\n      pop\n        /* \"#utility.yul\":11836:11885   */\n    tag_232:\n        /* \"#utility.yul\":11898:11978   */\n      tag_233\n        /* \"#utility.yul\":11954:11976   */\n      tag_234\n        /* \"#utility.yul\":11972:11975   */\n      dup6\n        /* \"#utility.yul\":11954:11976   */\n      tag_84\n      jump\t// in\n    tag_234:\n        /* \"#utility.yul\":11944:11952   */\n      dup4\n        /* \"#utility.yul\":11940:11977   */\n      add\n        /* \"#utility.yul\":11927:11938   */\n      dup3\n        /* \"#utility.yul\":11898:11978   */\n      tag_93\n      jump\t// in\n    tag_233:\n        /* \"#utility.yul\":11557:11988   */\n      pop\n      pop\n        /* \"#utility.yul\":11542:11988   */\n    tag_229:\n        /* \"#utility.yul\":11452:11995   */\n      pop\n      pop\n      pop\n      jump\t// out\n        /* \"#utility.yul\":12001:12118   */\n    tag_95:\n        /* \"#utility.yul\":12055:12063   */\n      0x00\n        /* \"#utility.yul\":12105:12110   */\n      dup3\n        /* \"#utility.yul\":12099:12103   */\n      dup3\n        /* \"#utility.yul\":12095:12111   */\n      shr\n        /* \"#utility.yul\":12074:12111   */\n      swap1\n      pop\n        /* \"#utility.yul\":12001:12118   */\n      swap3\n      swap2\n      pop\n      pop\n      jump\t// out\n        /* \"#utility.yul\":12124:12293   */\n    tag_96:\n        /* \"#utility.yul\":12168:12174   */\n      0x00\n        /* \"#utility.yul\":12201:12252   */\n      tag_237\n        /* \"#utility.yul\":12249:12250   */\n      0x00\n        /* \"#utility.yul\":12245:12251   */\n      not\n        /* \"#utility.yul\":12237:12242   */\n      dup5\n        /* \"#utility.yul\":12234:12235   */\n      0x08\n        /* \"#utility.yul\":12230:12243   */\n      mul\n        /* \"#utility.yul\":12201:12252   */\n      tag_95\n      jump\t// in\n    tag_237:\n        /* \"#utility.yul\":12197:12253   */\n      not\n        /* \"#utility.yul\":12282:12286   */\n      dup1\n        /* \"#utility.yul\":12276:12280   */\n      dup4\n        /* \"#utility.yul\":12272:12287   */\n      and\n        /* \"#utility.yul\":12262:12287   */\n      swap2\n      pop\n        /* \"#utility.yul\":12175:12293   */\n      pop\n        /* \"#utility.yul\":12124:12293   */\n      swap3\n      swap2\n      pop\n      pop\n      jump\t// out\n        /* \"#utility.yul\":12298:12593   */\n    tag_97:\n        /* \"#utility.yul\":12374:12378   */\n      0x00\n        /* \"#utility.yul\":12520:12549   */\n      tag_239\n        /* \"#utility.yul\":12545:12548   */\n      dup4\n        /* \"#utility.yul\":12539:12543   */\n      dup4\n        /* \"#utility.yul\":12520:12549   */\n      tag_96\n      jump\t// in\n    tag_239:\n        /* \"#utility.yul\":12512:12549   */\n      swap2\n      pop\n        /* \"#utility.yul\":12582:12585   */\n      dup3\n        /* \"#utility.yul\":12579:12580   */\n      0x02\n        /* \"#utility.yul\":12575:12586   */\n      mul\n        /* \"#utility.yul\":12569:12573   */\n      dup3\n        /* \"#utility.yul\":12566:12587   */\n      or\n        /* \"#utility.yul\":12558:12587   */\n      swap1\n      pop\n        /* \"#utility.yul\":12298:12593   */\n      swap3\n      swap2\n      pop\n      pop\n      jump\t// out\n        /* \"#utility.yul\":12598:13993   */\n    tag_41:\n        /* \"#utility.yul\":12715:12752   */\n      tag_241\n        /* \"#utility.yul\":12748:12751   */\n      dup3\n        /* \"#utility.yul\":12715:12752   */\n      tag_58\n      jump\t// in\n    tag_241:\n        /* \"#utility.yul\":12817:12835   */\n      0xffffffffffffffff\n        /* \"#utility.yul\":12809:12815   */\n      dup2\n        /* \"#utility.yul\":12806:12836   */\n      gt\n        /* \"#utility.yul\":12803:12859   */\n      iszero\n      tag_242\n      jumpi\n        /* \"#utility.yul\":12839:12857   */\n      tag_243\n      tag_67\n      jump\t// in\n    tag_243:\n        /* \"#utility.yul\":12803:12859   */\n    tag_242:\n        /* \"#utility.yul\":12883:12921   */\n      tag_244\n        /* \"#utility.yul\":12915:12919   */\n      dup3\n        /* \"#utility.yul\":12909:12920   */\n      sload\n        /* \"#utility.yul\":12883:12921   */\n      tag_29\n      jump\t// in\n    tag_244:\n        /* \"#utility.yul\":12968:13035   */\n      tag_245\n        /* \"#utility.yul\":13028:13034   */\n      dup3\n        /* \"#utility.yul\":13020:13026   */\n      dup3\n        /* \"#utility.yul\":13014:13018   */\n      dup6\n        /* \"#utility.yul\":12968:13035   */\n      tag_94\n      jump\t// in\n    tag_245:\n        /* \"#utility.yul\":13062:13063   */\n      0x00\n        /* \"#utility.yul\":13086:13090   */\n      0x20\n        /* \"#utility.yul\":13073:13090   */\n      swap1\n      pop\n        /* \"#utility.yul\":13118:13120   */\n      0x1f\n        /* \"#utility.yul\":13110:13116   */\n      dup4\n        /* \"#utility.yul\":13107:13121   */\n      gt\n        /* \"#utility.yul\":13135:13136   */\n      0x01\n        /* \"#utility.yul\":13130:13748   */\n      dup2\n      eq\n      tag_247\n      jumpi\n        /* \"#utility.yul\":13792:13793   */\n      0x00\n        /* \"#utility.yul\":13809:13815   */\n      dup5\n        /* \"#utility.yul\":13806:13883   */\n      iszero\n      tag_248\n      jumpi\n        /* \"#utility.yul\":13858:13867   */\n      dup3\n        /* \"#utility.yul\":13853:13856   */\n      dup8\n        /* \"#utility.yul\":13849:13868   */\n      add\n        /* \"#utility.yul\":13843:13869   */\n      mload\n        /* \"#utility.yul\":13834:13869   */\n      swap1\n      pop\n        /* \"#utility.yul\":13806:13883   */\n    tag_248:\n        /* \"#utility.yul\":13909:13976   */\n      tag_249\n        /* \"#utility.yul\":13969:13975   */\n      dup6\n        /* \"#utility.yul\":13962:13967   */\n      dup3\n        /* \"#utility.yul\":13909:13976   */\n      tag_97\n      jump\t// in\n    tag_249:\n        /* \"#utility.yul\":13903:13907   */\n      dup7\n        /* \"#utility.yul\":13896:13977   */\n      sstore\n        /* \"#utility.yul\":13765:13987   */\n      pop\n        /* \"#utility.yul\":13100:13987   */\n      jump(tag_246)\n        /* \"#utility.yul\":13130:13748   */\n    tag_247:\n        /* \"#utility.yul\":13182:13186   */\n      0x1f\n        /* \"#utility.yul\":13178:13187   */\n      not\n        /* \"#utility.yul\":13170:13176   */\n      dup5\n        /* \"#utility.yul\":13166:13188   */\n      and\n        /* \"#utility.yul\":13216:13253   */\n      tag_250\n        /* \"#utility.yul\":13248:13252   */\n      dup7\n        /* \"#utility.yul\":13216:13253   */\n      tag_83\n      jump\t// in\n    tag_250:\n        /* \"#utility.yul\":13275:13276   */\n      0x00\n        /* \"#utility.yul\":13289:13497   */\n    tag_251:\n        /* \"#utility.yul\":13303:13310   */\n      dup3\n        /* \"#utility.yul\":13300:13301   */\n      dup2\n        /* \"#utility.yul\":13297:13311   */\n      lt\n        /* \"#utility.yul\":13289:13497   */\n      iszero\n      tag_253\n      jumpi\n        /* \"#utility.yul\":13382:13391   */\n      dup5\n        /* \"#utility.yul\":13377:13380   */\n      dup10\n        /* \"#utility.yul\":13373:13392   */\n      add\n        /* \"#utility.yul\":13367:13393   */\n      mload\n        /* \"#utility.yul\":13359:13365   */\n      dup3\n        /* \"#utility.yul\":13352:13394   */\n      sstore\n        /* \"#utility.yul\":13433:13434   */\n      0x01\n        /* \"#utility.yul\":13425:13431   */\n      dup3\n        /* \"#utility.yul\":13421:13435   */\n      add\n        /* \"#utility.yul\":13411:13435   */\n      swap2\n      pop\n        /* \"#utility.yul\":13480:13482   */\n      0x20\n        /* \"#utility.yul\":13469:13478   */\n      dup6\n        /* \"#utility.yul\":13465:13483   */\n      add\n        /* \"#utility.yul\":13452:13483   */\n      swap5\n      pop\n        /* \"#utility.yul\":13326:13330   */\n      0x20\n        /* \"#utility.yul\":13323:13324   */\n      dup2\n        /* \"#utility.yul\":13319:13331   */\n      add\n        /* \"#utility.yul\":13314:13331   */\n      swap1\n      pop\n        /* \"#utility.yul\":13289:13497   */\n      jump(tag_251)\n    tag_253:\n        /* \"#utility.yul\":13525:13531   */\n      dup7\n        /* \"#utility.yul\":13516:13523   */\n      dup4\n        /* \"#utility.yul\":13513:13532   */\n      lt\n        /* \"#utility.yul\":13510:13689   */\n      iszero\n      tag_254\n      jumpi\n        /* \"#utility.yul\":13583:13592   */\n      dup5\n        /* \"#utility.yul\":13578:13581   */\n      dup10\n        /* \"#utility.yul\":13574:13593   */\n      add\n        /* \"#utility.yul\":13568:13594   */\n      mload\n        /* \"#utility.yul\":13626:13674   */\n      tag_255\n        /* \"#utility.yul\":13668:13672   */\n      0x1f\n        /* \"#utility.yul\":13660:13666   */\n      dup10\n        /* \"#utility.yul\":13656:13673   */\n      and\n        /* \"#utility.yul\":13645:13654   */\n      dup3\n        /* \"#utility.yul\":13626:13674   */\n      tag_96\n      jump\t// in\n    tag_255:\n        /* \"#utility.yul\":13618:13624   */\n      dup4\n        /* \"#utility.yul\":13611:13675   */\n      sstore\n        /* \"#utility.yul\":13533:13689   */\n      pop\n        /* \"#utility.yul\":13510:13689   */\n    tag_254:\n        /* \"#utility.yul\":13735:13736   */\n      0x01\n        /* \"#utility.yul\":13731:13732   */\n      0x02\n        /* \"#utility.yul\":13723:13729   */\n      dup9\n        /* \"#utility.yul\":13719:13733   */\n      mul\n        /* \"#utility.yul\":13715:13737   */\n      add\n        /* \"#utility.yul\":13709:13713   */\n      dup9\n        /* \"#utility.yul\":13702:13738   */\n      sstore\n        /* \"#utility.yul\":13137:13748   */\n      pop\n      pop\n      pop\n        /* \"#utility.yul\":13100:13987   */\n    tag_246:\n      pop\n        /* \"#utility.yul\":12690:13993   */\n      pop\n      pop\n      pop\n        /* \"#utility.yul\":12598:13993   */\n      pop\n      pop\n      jump\t// out\n\n    auxdata: 0xa264697066735822122081b5ff7af0485eeb35c3b0061b1544d28cf8daa9d3644353d8f0fcc7bfa0463164736f6c634300081b0033\n}\n",
				"bytecode": {
					"linkReferences": {},
					"object": "6080604052348015600e575f5ffd5b50610be38061001c5f395ff3fe608060405234801561000f575f5ffd5b506004361061004a575f3560e01c80630429e3721461004e57806346428adc1461008057806351dbf1971461009c5780635eff7dae146100cc575b5f5ffd5b610068600480360381019061006391906104cf565b6100ea565b60405161007793929190610582565b60405180910390f35b61009a6004803603810190610095919061071b565b6102cc565b005b6100b660048036038101906100b191906107b7565b61039e565b6040516100c391906107f1565b60405180910390f35b6100d46103d9565b6040516100e191906108c1565b60405180910390f35b5f6060805f5f8573ffffffffffffffffffffffffffffffffffffffff1673ffffffffffffffffffffffffffffffffffffffff1681526020019081526020015f205f01545f5f8673ffffffffffffffffffffffffffffffffffffffff1673ffffffffffffffffffffffffffffffffffffffff1681526020019081526020015f206001015f5f8773ffffffffffffffffffffffffffffffffffffffff1673ffffffffffffffffffffffffffffffffffffffff1681526020019081526020015f206002018180546101b79061090e565b80601f01602080910402602001604051908101604052809291908181526020018280546101e39061090e565b801561022e5780601f106102055761010080835404028352916020019161022e565b820191905f5260205f20905b81548152906001019060200180831161021157829003601f168201915b505050505091508080546102419061090e565b80601f016020809104026020016040519081016040528092919081815260200182805461026d9061090e565b80156102b85780601f1061028f576101008083540402835291602001916102b8565b820191905f5260205f20905b81548152906001019060200180831161029b57829003601f168201915b505050505090509250925092509193909250565b5f5f5f8673ffffffffffffffffffffffffffffffffffffffff1673ffffffffffffffffffffffffffffffffffffffff1681526020019081526020015f20905083815f0181905550828160010190816103249190610ade565b50818160020190816103369190610ade565b50600185908060018154018082558091505060019003905f5260205f20015f9091909190916101000a81548173ffffffffffffffffffffffffffffffffffffffff021916908373ffffffffffffffffffffffffffffffffffffffff1602179055505050505050565b600181815481106103ad575f80fd5b905f5260205f20015f915054906101000a900473ffffffffffffffffffffffffffffffffffffffff1681565b6060600180548060200260200160405190810160405280929190818152602001828054801561045a57602002820191905f5260205f20905b815f9054906101000a900473ffffffffffffffffffffffffffffffffffffffff1673ffffffffffffffffffffffffffffffffffffffff1681526020019060010190808311610411575b5050505050905090565b5f604051905090565b5f5ffd5b5f5ffd5b5f73ffffffffffffffffffffffffffffffffffffffff82169050919050565b5f61049e82610475565b9050919050565b6104ae81610494565b81146104b8575f5ffd5b50565b5f813590506104c9816104a5565b92915050565b5f602082840312156104e4576104e361046d565b5b5f6104f1848285016104bb565b91505092915050565b5f819050919050565b61050c816104fa565b82525050565b5f81519050919050565b5f82825260208201905092915050565b8281835e5f83830152505050565b5f601f19601f8301169050919050565b5f61055482610512565b61055e818561051c565b935061056e81856020860161052c565b6105778161053a565b840191505092915050565b5f6060820190506105955f830186610503565b81810360208301526105a7818561054a565b905081810360408301526105bb818461054a565b9050949350505050565b6105ce816104fa565b81146105d8575f5ffd5b50565b5f813590506105e9816105c5565b92915050565b5f5ffd5b5f5ffd5b7f4e487b71000000000000000000000000000000000000000000000000000000005f52604160045260245ffd5b61062d8261053a565b810181811067ffffffffffffffff8211171561064c5761064b6105f7565b5b80604052505050565b5f61065e610464565b905061066a8282610624565b919050565b5f67ffffffffffffffff821115610689576106886105f7565b5b6106928261053a565b9050602081019050919050565b828183375f83830152505050565b5f6106bf6106ba8461066f565b610655565b9050828152602081018484840111156106db576106da6105f3565b5b6106e684828561069f565b509392505050565b5f82601f830112610702576107016105ef565b5b81356107128482602086016106ad565b91505092915050565b5f5f5f5f608085870312156107335761073261046d565b5b5f610740878288016104bb565b9450506020610751878288016105db565b935050604085013567ffffffffffffffff81111561077257610771610471565b5b61077e878288016106ee565b925050606085013567ffffffffffffffff81111561079f5761079e610471565b5b6107ab878288016106ee565b91505092959194509250565b5f602082840312156107cc576107cb61046d565b5b5f6107d9848285016105db565b91505092915050565b6107eb81610494565b82525050565b5f6020820190506108045f8301846107e2565b92915050565b5f81519050919050565b5f82825260208201905092915050565b5f819050602082019050919050565b61083c81610494565b82525050565b5f61084d8383610833565b60208301905092915050565b5f602082019050919050565b5f61086f8261080a565b6108798185610814565b935061088483610824565b805f5b838110156108b457815161089b8882610842565b97506108a683610859565b925050600181019050610887565b5085935050505092915050565b5f6020820190508181035f8301526108d98184610865565b905092915050565b7f4e487b71000000000000000000000000000000000000000000000000000000005f52602260045260245ffd5b5f600282049050600182168061092557607f821691505b602082108103610938576109376108e1565b5b50919050565b5f819050815f5260205f209050919050565b5f6020601f8301049050919050565b5f82821b905092915050565b5f6008830261099a7fffffffffffffffffffffffffffffffffffffffffffffffffffffffffffffffff8261095f565b6109a4868361095f565b95508019841693508086168417925050509392505050565b5f819050919050565b5f6109df6109da6109d5846104fa565b6109bc565b6104fa565b9050919050565b5f819050919050565b6109f8836109c5565b610a0c610a04826109e6565b84845461096b565b825550505050565b5f5f905090565b610a23610a14565b610a2e8184846109ef565b505050565b5b81811015610a5157610a465f82610a1b565b600181019050610a34565b5050565b601f821115610a9657610a678161093e565b610a7084610950565b81016020851015610a7f578190505b610a93610a8b85610950565b830182610a33565b50505b505050565b5f82821c905092915050565b5f610ab65f1984600802610a9b565b1980831691505092915050565b5f610ace8383610aa7565b9150826002028217905092915050565b610ae782610512565b67ffffffffffffffff811115610b0057610aff6105f7565b5b610b0a825461090e565b610b15828285610a55565b5f60209050601f831160018114610b46575f8415610b34578287015190505b610b3e8582610ac3565b865550610ba5565b601f198416610b548661093e565b5f5b82811015610b7b57848901518255600182019150602085019450602081019050610b56565b86831015610b985784890151610b94601f891682610aa7565b8355505b6001600288020188555050505b50505050505056fea264697066735822122081b5ff7af0485eeb35c3b0061b1544d28cf8daa9d3644353d8f0fcc7bfa0463164736f6c634300081b0033",
					"opcodes": "PUSH1 0x80 PUSH1 0x40 MSTORE CALLVALUE DUP1 ISZERO PUSH1 0xE JUMPI PUSH0 PUSH0 REVERT JUMPDEST POP PUSH2 0xBE3 DUP1 PUSH2 0x1C PUSH0 CODECOPY PUSH0 RETURN INVALID PUSH1 0x80 PUSH1 0x40 MSTORE CALLVALUE DUP1 ISZERO PUSH2 0xF JUMPI PUSH0 PUSH0 REVERT JUMPDEST POP PUSH1 0x4 CALLDATASIZE LT PUSH2 0x4A JUMPI PUSH0 CALLDATALOAD PUSH1 0xE0 SHR DUP1 PUSH4 0x429E372 EQ PUSH2 0x4E JUMPI DUP1 PUSH4 0x46428ADC EQ PUSH2 0x80 JUMPI DUP1 PUSH4 0x51DBF197 EQ PUSH2 0x9C JUMPI DUP1 PUSH4 0x5EFF7DAE EQ PUSH2 0xCC JUMPI JUMPDEST PUSH0 PUSH0 REVERT JUMPDEST PUSH2 0x68 PUSH1 0x4 DUP1 CALLDATASIZE SUB DUP2 ADD SWAP1 PUSH2 0x63 SWAP2 SWAP1 PUSH2 0x4CF JUMP JUMPDEST PUSH2 0xEA JUMP JUMPDEST PUSH1 0x40 MLOAD PUSH2 0x77 SWAP4 SWAP3 SWAP2 SWAP1 PUSH2 0x582 JUMP JUMPDEST PUSH1 0x40 MLOAD DUP1 SWAP2 SUB SWAP1 RETURN JUMPDEST PUSH2 0x9A PUSH1 0x4 DUP1 CALLDATASIZE SUB DUP2 ADD SWAP1 PUSH2 0x95 SWAP2 SWAP1 PUSH2 0x71B JUMP JUMPDEST PUSH2 0x2CC JUMP JUMPDEST STOP JUMPDEST PUSH2 0xB6 PUSH1 0x4 DUP1 CALLDATASIZE SUB DUP2 ADD SWAP1 PUSH2 0xB1 SWAP2 SWAP1 PUSH2 0x7B7 JUMP JUMPDEST PUSH2 0x39E JUMP JUMPDEST PUSH1 0x40 MLOAD PUSH2 0xC3 SWAP2 SWAP1 PUSH2 0x7F1 JUMP JUMPDEST PUSH1 0x40 MLOAD DUP1 SWAP2 SUB SWAP1 RETURN JUMPDEST PUSH2 0xD4 PUSH2 0x3D9 JUMP JUMPDEST PUSH1 0x40 MLOAD PUSH2 0xE1 SWAP2 SWAP1 PUSH2 0x8C1 JUMP JUMPDEST PUSH1 0x40 MLOAD DUP1 SWAP2 SUB SWAP1 RETURN JUMPDEST PUSH0 PUSH1 0x60 DUP1 PUSH0 PUSH0 DUP6 PUSH20 0xFFFFFFFFFFFFFFFFFFFFFFFFFFFFFFFFFFFFFFFF AND PUSH20 0xFFFFFFFFFFFFFFFFFFFFFFFFFFFFFFFFFFFFFFFF AND DUP2 MSTORE PUSH1 0x20 ADD SWAP1 DUP2 MSTORE PUSH1 0x20 ADD PUSH0 KECCAK256 PUSH0 ADD SLOAD PUSH0 PUSH0 DUP7 PUSH20 0xFFFFFFFFFFFFFFFFFFFFFFFFFFFFFFFFFFFFFFFF AND PUSH20 0xFFFFFFFFFFFFFFFFFFFFFFFFFFFFFFFFFFFFFFFF AND DUP2 MSTORE PUSH1 0x20 ADD SWAP1 DUP2 MSTORE PUSH1 0x20 ADD PUSH0 KECCAK256 PUSH1 0x1 ADD PUSH0 PUSH0 DUP8 PUSH20 0xFFFFFFFFFFFFFFFFFFFFFFFFFFFFFFFFFFFFFFFF AND PUSH20 0xFFFFFFFFFFFFFFFFFFFFFFFFFFFFFFFFFFFFFFFF AND DUP2 MSTORE PUSH1 0x20 ADD SWAP1 DUP2 MSTORE PUSH1 0x20 ADD PUSH0 KECCAK256 PUSH1 0x2 ADD DUP2 DUP1 SLOAD PUSH2 0x1B7 SWAP1 PUSH2 0x90E JUMP JUMPDEST DUP1 PUSH1 0x1F ADD PUSH1 0x20 DUP1 SWAP2 DIV MUL PUSH1 0x20 ADD PUSH1 0x40 MLOAD SWAP1 DUP2 ADD PUSH1 0x40 MSTORE DUP1 SWAP3 SWAP2 SWAP1 DUP2 DUP2 MSTORE PUSH1 0x20 ADD DUP3 DUP1 SLOAD PUSH2 0x1E3 SWAP1 PUSH2 0x90E JUMP JUMPDEST DUP1 ISZERO PUSH2 0x22E JUMPI DUP1 PUSH1 0x1F LT PUSH2 0x205 JUMPI PUSH2 0x100 DUP1 DUP4 SLOAD DIV MUL DUP4 MSTORE SWAP2 PUSH1 0x20 ADD SWAP2 PUSH2 0x22E JUMP JUMPDEST DUP3 ADD SWAP2 SWAP1 PUSH0 MSTORE PUSH1 0x20 PUSH0 KECCAK256 SWAP1 JUMPDEST DUP2 SLOAD DUP2 MSTORE SWAP1 PUSH1 0x1 ADD SWAP1 PUSH1 0x20 ADD DUP1 DUP4 GT PUSH2 0x211 JUMPI DUP3 SWAP1 SUB PUSH1 0x1F AND DUP3 ADD SWAP2 JUMPDEST POP POP POP POP POP SWAP2 POP DUP1 DUP1 SLOAD PUSH2 0x241 SWAP1 PUSH2 0x90E JUMP JUMPDEST DUP1 PUSH1 0x1F ADD PUSH1 0x20 DUP1 SWAP2 DIV MUL PUSH1 0x20 ADD PUSH1 0x40 MLOAD SWAP1 DUP2 ADD PUSH1 0x40 MSTORE DUP1 SWAP3 SWAP2 SWAP1 DUP2 DUP2 MSTORE PUSH1 0x20 ADD DUP3 DUP1 SLOAD PUSH2 0x26D SWAP1 PUSH2 0x90E JUMP JUMPDEST DUP1 ISZERO PUSH2 0x2B8 JUMPI DUP1 PUSH1 0x1F LT PUSH2 0x28F JUMPI PUSH2 0x100 DUP1 DUP4 SLOAD DIV MUL DUP4 MSTORE SWAP2 PUSH1 0x20 ADD SWAP2 PUSH2 0x2B8 JUMP JUMPDEST DUP3 ADD SWAP2 SWAP1 PUSH0 MSTORE PUSH1 0x20 PUSH0 KECCAK256 SWAP1 JUMPDEST DUP2 SLOAD DUP2 MSTORE SWAP1 PUSH1 0x1 ADD SWAP1 PUSH1 0x20 ADD DUP1 DUP4 GT PUSH2 0x29B JUMPI DUP3 SWAP1 SUB PUSH1 0x1F AND DUP3 ADD SWAP2 JUMPDEST POP POP POP POP POP SWAP1 POP SWAP3 POP SWAP3 POP SWAP3 POP SWAP2 SWAP4 SWAP1 SWAP3 POP JUMP JUMPDEST PUSH0 PUSH0 PUSH0 DUP7 PUSH20 0xFFFFFFFFFFFFFFFFFFFFFFFFFFFFFFFFFFFFFFFF AND PUSH20 0xFFFFFFFFFFFFFFFFFFFFFFFFFFFFFFFFFFFFFFFF AND DUP2 MSTORE PUSH1 0x20 ADD SWAP1 DUP2 MSTORE PUSH1 0x20 ADD PUSH0 KECCAK256 SWAP1 POP DUP4 DUP2 PUSH0 ADD DUP2 SWAP1 SSTORE POP DUP3 DUP2 PUSH1 0x1 ADD SWAP1 DUP2 PUSH2 0x324 SWAP2 SWAP1 PUSH2 0xADE JUMP JUMPDEST POP DUP2 DUP2 PUSH1 0x2 ADD SWAP1 DUP2 PUSH2 0x336 SWAP2 SWAP1 PUSH2 0xADE JUMP JUMPDEST POP PUSH1 0x1 DUP6 SWAP1 DUP1 PUSH1 0x1 DUP2 SLOAD ADD DUP1 DUP3 SSTORE DUP1 SWAP2 POP POP PUSH1 0x1 SWAP1 SUB SWAP1 PUSH0 MSTORE PUSH1 0x20 PUSH0 KECCAK256 ADD PUSH0 SWAP1 SWAP2 SWAP1 SWAP2 SWAP1 SWAP2 PUSH2 0x100 EXP DUP2 SLOAD DUP2 PUSH20 0xFFFFFFFFFFFFFFFFFFFFFFFFFFFFFFFFFFFFFFFF MUL NOT AND SWAP1 DUP4 PUSH20 0xFFFFFFFFFFFFFFFFFFFFFFFFFFFFFFFFFFFFFFFF AND MUL OR SWAP1 SSTORE POP POP POP POP POP POP JUMP JUMPDEST PUSH1 0x1 DUP2 DUP2 SLOAD DUP2 LT PUSH2 0x3AD JUMPI PUSH0 DUP1 REVERT JUMPDEST SWAP1 PUSH0 MSTORE PUSH1 0x20 PUSH0 KECCAK256 ADD PUSH0 SWAP2 POP SLOAD SWAP1 PUSH2 0x100 EXP SWAP1 DIV PUSH20 0xFFFFFFFFFFFFFFFFFFFFFFFFFFFFFFFFFFFFFFFF AND DUP2 JUMP JUMPDEST PUSH1 0x60 PUSH1 0x1 DUP1 SLOAD DUP1 PUSH1 0x20 MUL PUSH1 0x20 ADD PUSH1 0x40 MLOAD SWAP1 DUP2 ADD PUSH1 0x40 MSTORE DUP1 SWAP3 SWAP2 SWAP1 DUP2 DUP2 MSTORE PUSH1 0x20 ADD DUP3 DUP1 SLOAD DUP1 ISZERO PUSH2 0x45A JUMPI PUSH1 0x20 MUL DUP3 ADD SWAP2 SWAP1 PUSH0 MSTORE PUSH1 0x20 PUSH0 KECCAK256 SWAP1 JUMPDEST DUP2 PUSH0 SWAP1 SLOAD SWAP1 PUSH2 0x100 EXP SWAP1 DIV PUSH20 0xFFFFFFFFFFFFFFFFFFFFFFFFFFFFFFFFFFFFFFFF AND PUSH20 0xFFFFFFFFFFFFFFFFFFFFFFFFFFFFFFFFFFFFFFFF AND DUP2 MSTORE PUSH1 0x20 ADD SWAP1 PUSH1 0x1 ADD SWAP1 DUP1 DUP4 GT PUSH2 0x411 JUMPI JUMPDEST POP POP POP POP POP SWAP1 POP SWAP1 JUMP JUMPDEST PUSH0 PUSH1 0x40 MLOAD SWAP1 POP SWAP1 JUMP JUMPDEST PUSH0 PUSH0 REVERT JUMPDEST PUSH0 PUSH0 REVERT JUMPDEST PUSH0 PUSH20 0xFFFFFFFFFFFFFFFFFFFFFFFFFFFFFFFFFFFFFFFF DUP3 AND SWAP1 POP SWAP2 SWAP1 POP JUMP JUMPDEST PUSH0 PUSH2 0x49E DUP3 PUSH2 0x475 JUMP JUMPDEST SWAP1 POP SWAP2 SWAP1 POP JUMP JUMPDEST PUSH2 0x4AE DUP2 PUSH2 0x494 JUMP JUMPDEST DUP2 EQ PUSH2 0x4B8 JUMPI PUSH0 PUSH0 REVERT JUMPDEST POP JUMP JUMPDEST PUSH0 DUP2 CALLDATALOAD SWAP1 POP PUSH2 0x4C9 DUP2 PUSH2 0x4A5 JUMP JUMPDEST SWAP3 SWAP2 POP POP JUMP JUMPDEST PUSH0 PUSH1 0x20 DUP3 DUP5 SUB SLT ISZERO PUSH2 0x4E4 JUMPI PUSH2 0x4E3 PUSH2 0x46D JUMP JUMPDEST JUMPDEST PUSH0 PUSH2 0x4F1 DUP5 DUP3 DUP6 ADD PUSH2 0x4BB JUMP JUMPDEST SWAP2 POP POP SWAP3 SWAP2 POP POP JUMP JUMPDEST PUSH0 DUP2 SWAP1 POP SWAP2 SWAP1 POP JUMP JUMPDEST PUSH2 0x50C DUP2 PUSH2 0x4FA JUMP JUMPDEST DUP3 MSTORE POP POP JUMP JUMPDEST PUSH0 DUP2 MLOAD SWAP1 POP SWAP2 SWAP1 POP JUMP JUMPDEST PUSH0 DUP3 DUP3 MSTORE PUSH1 0x20 DUP3 ADD SWAP1 POP SWAP3 SWAP2 POP POP JUMP JUMPDEST DUP3 DUP2 DUP4 MCOPY PUSH0 DUP4 DUP4 ADD MSTORE POP POP POP JUMP JUMPDEST PUSH0 PUSH1 0x1F NOT PUSH1 0x1F DUP4 ADD AND SWAP1 POP SWAP2 SWAP1 POP JUMP JUMPDEST PUSH0 PUSH2 0x554 DUP3 PUSH2 0x512 JUMP JUMPDEST PUSH2 0x55E DUP2 DUP6 PUSH2 0x51C JUMP JUMPDEST SWAP4 POP PUSH2 0x56E DUP2 DUP6 PUSH1 0x20 DUP7 ADD PUSH2 0x52C JUMP JUMPDEST PUSH2 0x577 DUP2 PUSH2 0x53A JUMP JUMPDEST DUP5 ADD SWAP2 POP POP SWAP3 SWAP2 POP POP JUMP JUMPDEST PUSH0 PUSH1 0x60 DUP3 ADD SWAP1 POP PUSH2 0x595 PUSH0 DUP4 ADD DUP7 PUSH2 0x503 JUMP JUMPDEST DUP2 DUP2 SUB PUSH1 0x20 DUP4 ADD MSTORE PUSH2 0x5A7 DUP2 DUP6 PUSH2 0x54A JUMP JUMPDEST SWAP1 POP DUP2 DUP2 SUB PUSH1 0x40 DUP4 ADD MSTORE PUSH2 0x5BB DUP2 DUP5 PUSH2 0x54A JUMP JUMPDEST SWAP1 POP SWAP5 SWAP4 POP POP POP POP JUMP JUMPDEST PUSH2 0x5CE DUP2 PUSH2 0x4FA JUMP JUMPDEST DUP2 EQ PUSH2 0x5D8 JUMPI PUSH0 PUSH0 REVERT JUMPDEST POP JUMP JUMPDEST PUSH0 DUP2 CALLDATALOAD SWAP1 POP PUSH2 0x5E9 DUP2 PUSH2 0x5C5 JUMP JUMPDEST SWAP3 SWAP2 POP POP JUMP JUMPDEST PUSH0 PUSH0 REVERT JUMPDEST PUSH0 PUSH0 REVERT JUMPDEST PUSH32 0x4E487B7100000000000000000000000000000000000000000000000000000000 PUSH0 MSTORE PUSH1 0x41 PUSH1 0x4 MSTORE PUSH1 0x24 PUSH0 REVERT JUMPDEST PUSH2 0x62D DUP3 PUSH2 0x53A JUMP JUMPDEST DUP2 ADD DUP2 DUP2 LT PUSH8 0xFFFFFFFFFFFFFFFF DUP3 GT OR ISZERO PUSH2 0x64C JUMPI PUSH2 0x64B PUSH2 0x5F7 JUMP JUMPDEST JUMPDEST DUP1 PUSH1 0x40 MSTORE POP POP POP JUMP JUMPDEST PUSH0 PUSH2 0x65E PUSH2 0x464 JUMP JUMPDEST SWAP1 POP PUSH2 0x66A DUP3 DUP3 PUSH2 0x624 JUMP JUMPDEST SWAP2 SWAP1 POP JUMP JUMPDEST PUSH0 PUSH8 0xFFFFFFFFFFFFFFFF DUP3 GT ISZERO PUSH2 0x689 JUMPI PUSH2 0x688 PUSH2 0x5F7 JUMP JUMPDEST JUMPDEST PUSH2 0x692 DUP3 PUSH2 0x53A JUMP JUMPDEST SWAP1 POP PUSH1 0x20 DUP2 ADD SWAP1 POP SWAP2 SWAP1 POP JUMP JUMPDEST DUP3 DUP2 DUP4 CALLDATACOPY PUSH0 DUP4 DUP4 ADD MSTORE POP POP POP JUMP JUMPDEST PUSH0 PUSH2 0x6BF PUSH2 0x6BA DUP5 PUSH2 0x66F JUMP JUMPDEST PUSH2 0x655 JUMP JUMPDEST SWAP1 POP DUP3 DUP2 MSTORE PUSH1 0x20 DUP2 ADD DUP5 DUP5 DUP5 ADD GT ISZERO PUSH2 0x6DB JUMPI PUSH2 0x6DA PUSH2 0x5F3 JUMP JUMPDEST JUMPDEST PUSH2 0x6E6 DUP5 DUP3 DUP6 PUSH2 0x69F JUMP JUMPDEST POP SWAP4 SWAP3 POP POP POP JUMP JUMPDEST PUSH0 DUP3 PUSH1 0x1F DUP4 ADD SLT PUSH2 0x702 JUMPI PUSH2 0x701 PUSH2 0x5EF JUMP JUMPDEST JUMPDEST DUP2 CALLDATALOAD PUSH2 0x712 DUP5 DUP3 PUSH1 0x20 DUP7 ADD PUSH2 0x6AD JUMP JUMPDEST SWAP2 POP POP SWAP3 SWAP2 POP POP JUMP JUMPDEST PUSH0 PUSH0 PUSH0 PUSH0 PUSH1 0x80 DUP6 DUP8 SUB SLT ISZERO PUSH2 0x733 JUMPI PUSH2 0x732 PUSH2 0x46D JUMP JUMPDEST JUMPDEST PUSH0 PUSH2 0x740 DUP8 DUP3 DUP9 ADD PUSH2 0x4BB JUMP JUMPDEST SWAP5 POP POP PUSH1 0x20 PUSH2 0x751 DUP8 DUP3 DUP9 ADD PUSH2 0x5DB JUMP JUMPDEST SWAP4 POP POP PUSH1 0x40 DUP6 ADD CALLDATALOAD PUSH8 0xFFFFFFFFFFFFFFFF DUP2 GT ISZERO PUSH2 0x772 JUMPI PUSH2 0x771 PUSH2 0x471 JUMP JUMPDEST JUMPDEST PUSH2 0x77E DUP8 DUP3 DUP9 ADD PUSH2 0x6EE JUMP JUMPDEST SWAP3 POP POP PUSH1 0x60 DUP6 ADD CALLDATALOAD PUSH8 0xFFFFFFFFFFFFFFFF DUP2 GT ISZERO PUSH2 0x79F JUMPI PUSH2 0x79E PUSH2 0x471 JUMP JUMPDEST JUMPDEST PUSH2 0x7AB DUP8 DUP3 DUP9 ADD PUSH2 0x6EE JUMP JUMPDEST SWAP2 POP POP SWAP3 SWAP6 SWAP2 SWAP5 POP SWAP3 POP JUMP JUMPDEST PUSH0 PUSH1 0x20 DUP3 DUP5 SUB SLT ISZERO PUSH2 0x7CC JUMPI PUSH2 0x7CB PUSH2 0x46D JUMP JUMPDEST JUMPDEST PUSH0 PUSH2 0x7D9 DUP5 DUP3 DUP6 ADD PUSH2 0x5DB JUMP JUMPDEST SWAP2 POP POP SWAP3 SWAP2 POP POP JUMP JUMPDEST PUSH2 0x7EB DUP2 PUSH2 0x494 JUMP JUMPDEST DUP3 MSTORE POP POP JUMP JUMPDEST PUSH0 PUSH1 0x20 DUP3 ADD SWAP1 POP PUSH2 0x804 PUSH0 DUP4 ADD DUP5 PUSH2 0x7E2 JUMP JUMPDEST SWAP3 SWAP2 POP POP JUMP JUMPDEST PUSH0 DUP2 MLOAD SWAP1 POP SWAP2 SWAP1 POP JUMP JUMPDEST PUSH0 DUP3 DUP3 MSTORE PUSH1 0x20 DUP3 ADD SWAP1 POP SWAP3 SWAP2 POP POP JUMP JUMPDEST PUSH0 DUP2 SWAP1 POP PUSH1 0x20 DUP3 ADD SWAP1 POP SWAP2 SWAP1 POP JUMP JUMPDEST PUSH2 0x83C DUP2 PUSH2 0x494 JUMP JUMPDEST DUP3 MSTORE POP POP JUMP JUMPDEST PUSH0 PUSH2 0x84D DUP4 DUP4 PUSH2 0x833 JUMP JUMPDEST PUSH1 0x20 DUP4 ADD SWAP1 POP SWAP3 SWAP2 POP POP JUMP JUMPDEST PUSH0 PUSH1 0x20 DUP3 ADD SWAP1 POP SWAP2 SWAP1 POP JUMP JUMPDEST PUSH0 PUSH2 0x86F DUP3 PUSH2 0x80A JUMP JUMPDEST PUSH2 0x879 DUP2 DUP6 PUSH2 0x814 JUMP JUMPDEST SWAP4 POP PUSH2 0x884 DUP4 PUSH2 0x824 JUMP JUMPDEST DUP1 PUSH0 JUMPDEST DUP4 DUP2 LT ISZERO PUSH2 0x8B4 JUMPI DUP2 MLOAD PUSH2 0x89B DUP9 DUP3 PUSH2 0x842 JUMP JUMPDEST SWAP8 POP PUSH2 0x8A6 DUP4 PUSH2 0x859 JUMP JUMPDEST SWAP3 POP POP PUSH1 0x1 DUP2 ADD SWAP1 POP PUSH2 0x887 JUMP JUMPDEST POP DUP6 SWAP4 POP POP POP POP SWAP3 SWAP2 POP POP JUMP JUMPDEST PUSH0 PUSH1 0x20 DUP3 ADD SWAP1 POP DUP2 DUP2 SUB PUSH0 DUP4 ADD MSTORE PUSH2 0x8D9 DUP2 DUP5 PUSH2 0x865 JUMP JUMPDEST SWAP1 POP SWAP3 SWAP2 POP POP JUMP JUMPDEST PUSH32 0x4E487B7100000000000000000000000000000000000000000000000000000000 PUSH0 MSTORE PUSH1 0x22 PUSH1 0x4 MSTORE PUSH1 0x24 PUSH0 REVERT JUMPDEST PUSH0 PUSH1 0x2 DUP3 DIV SWAP1 POP PUSH1 0x1 DUP3 AND DUP1 PUSH2 0x925 JUMPI PUSH1 0x7F DUP3 AND SWAP2 POP JUMPDEST PUSH1 0x20 DUP3 LT DUP2 SUB PUSH2 0x938 JUMPI PUSH2 0x937 PUSH2 0x8E1 JUMP JUMPDEST JUMPDEST POP SWAP2 SWAP1 POP JUMP JUMPDEST PUSH0 DUP2 SWAP1 POP DUP2 PUSH0 MSTORE PUSH1 0x20 PUSH0 KECCAK256 SWAP1 POP SWAP2 SWAP1 POP JUMP JUMPDEST PUSH0 PUSH1 0x20 PUSH1 0x1F DUP4 ADD DIV SWAP1 POP SWAP2 SWAP1 POP JUMP JUMPDEST PUSH0 DUP3 DUP3 SHL SWAP1 POP SWAP3 SWAP2 POP POP JUMP JUMPDEST PUSH0 PUSH1 0x8 DUP4 MUL PUSH2 0x99A PUSH32 0xFFFFFFFFFFFFFFFFFFFFFFFFFFFFFFFFFFFFFFFFFFFFFFFFFFFFFFFFFFFFFFFF DUP3 PUSH2 0x95F JUMP JUMPDEST PUSH2 0x9A4 DUP7 DUP4 PUSH2 0x95F JUMP JUMPDEST SWAP6 POP DUP1 NOT DUP5 AND SWAP4 POP DUP1 DUP7 AND DUP5 OR SWAP3 POP POP POP SWAP4 SWAP3 POP POP POP JUMP JUMPDEST PUSH0 DUP2 SWAP1 POP SWAP2 SWAP1 POP JUMP JUMPDEST PUSH0 PUSH2 0x9DF PUSH2 0x9DA PUSH2 0x9D5 DUP5 PUSH2 0x4FA JUMP JUMPDEST PUSH2 0x9BC JUMP JUMPDEST PUSH2 0x4FA JUMP JUMPDEST SWAP1 POP SWAP2 SWAP1 POP JUMP JUMPDEST PUSH0 DUP2 SWAP1 POP SWAP2 SWAP1 POP JUMP JUMPDEST PUSH2 0x9F8 DUP4 PUSH2 0x9C5 JUMP JUMPDEST PUSH2 0xA0C PUSH2 0xA04 DUP3 PUSH2 0x9E6 JUMP JUMPDEST DUP5 DUP5 SLOAD PUSH2 0x96B JUMP JUMPDEST DUP3 SSTORE POP POP POP POP JUMP JUMPDEST PUSH0 PUSH0 SWAP1 POP SWAP1 JUMP JUMPDEST PUSH2 0xA23 PUSH2 0xA14 JUMP JUMPDEST PUSH2 0xA2E DUP2 DUP5 DUP5 PUSH2 0x9EF JUMP JUMPDEST POP POP POP JUMP JUMPDEST JUMPDEST DUP2 DUP2 LT ISZERO PUSH2 0xA51 JUMPI PUSH2 0xA46 PUSH0 DUP3 PUSH2 0xA1B JUMP JUMPDEST PUSH1 0x1 DUP2 ADD SWAP1 POP PUSH2 0xA34 JUMP JUMPDEST POP POP JUMP JUMPDEST PUSH1 0x1F DUP3 GT ISZERO PUSH2 0xA96 JUMPI PUSH2 0xA67 DUP2 PUSH2 0x93E JUMP JUMPDEST PUSH2 0xA70 DUP5 PUSH2 0x950 JUMP JUMPDEST DUP2 ADD PUSH1 0x20 DUP6 LT ISZERO PUSH2 0xA7F JUMPI DUP2 SWAP1 POP JUMPDEST PUSH2 0xA93 PUSH2 0xA8B DUP6 PUSH2 0x950 JUMP JUMPDEST DUP4 ADD DUP3 PUSH2 0xA33 JUMP JUMPDEST POP POP JUMPDEST POP POP POP JUMP JUMPDEST PUSH0 DUP3 DUP3 SHR SWAP1 POP SWAP3 SWAP2 POP POP JUMP JUMPDEST PUSH0 PUSH2 0xAB6 PUSH0 NOT DUP5 PUSH1 0x8 MUL PUSH2 0xA9B JUMP JUMPDEST NOT DUP1 DUP4 AND SWAP2 POP POP SWAP3 SWAP2 POP POP JUMP JUMPDEST PUSH0 PUSH2 0xACE DUP4 DUP4 PUSH2 0xAA7 JUMP JUMPDEST SWAP2 POP DUP3 PUSH1 0x2 MUL DUP3 OR SWAP1 POP SWAP3 SWAP2 POP POP JUMP JUMPDEST PUSH2 0xAE7 DUP3 PUSH2 0x512 JUMP JUMPDEST PUSH8 0xFFFFFFFFFFFFFFFF DUP2 GT ISZERO PUSH2 0xB00 JUMPI PUSH2 0xAFF PUSH2 0x5F7 JUMP JUMPDEST JUMPDEST PUSH2 0xB0A DUP3 SLOAD PUSH2 0x90E JUMP JUMPDEST PUSH2 0xB15 DUP3 DUP3 DUP6 PUSH2 0xA55 JUMP JUMPDEST PUSH0 PUSH1 0x20 SWAP1 POP PUSH1 0x1F DUP4 GT PUSH1 0x1 DUP2 EQ PUSH2 0xB46 JUMPI PUSH0 DUP5 ISZERO PUSH2 0xB34 JUMPI DUP3 DUP8 ADD MLOAD SWAP1 POP JUMPDEST PUSH2 0xB3E DUP6 DUP3 PUSH2 0xAC3 JUMP JUMPDEST DUP7 SSTORE POP PUSH2 0xBA5 JUMP JUMPDEST PUSH1 0x1F NOT DUP5 AND PUSH2 0xB54 DUP7 PUSH2 0x93E JUMP JUMPDEST PUSH0 JUMPDEST DUP3 DUP2 LT ISZERO PUSH2 0xB7B JUMPI DUP5 DUP10 ADD MLOAD DUP3 SSTORE PUSH1 0x1 DUP3 ADD SWAP2 POP PUSH1 0x20 DUP6 ADD SWAP5 POP PUSH1 0x20 DUP2 ADD SWAP1 POP PUSH2 0xB56 JUMP JUMPDEST DUP7 DUP4 LT ISZERO PUSH2 0xB98 JUMPI DUP5 DUP10 ADD MLOAD PUSH2 0xB94 PUSH1 0x1F DUP10 AND DUP3 PUSH2 0xAA7 JUMP JUMPDEST DUP4 SSTORE POP JUMPDEST PUSH1 0x1 PUSH1 0x2 DUP9 MUL ADD DUP9 SSTORE POP POP POP JUMPDEST POP POP POP POP POP POP JUMP INVALID LOG2 PUSH5 0x6970667358 0x22 SLT KECCAK256 DUP2 0xB5 SELFDESTRUCT PUSH27 0xF0485EEB35C3B0061B1544D28CF8DAA9D3644353D8F0FCC7BFA046 BALANCE PUSH5 0x736F6C6343 STOP ADDMOD SHL STOP CALLER "
				},
				"gasEstimates": {
					"creation": {
						"codeDepositCost": "608600",
						"executionCost": "643",
						"totalCost": "609243"
					},
					"external": {
						"getInstructor(address)": "infinite",
						"getInstructors()": "infinite",
						"instrutorAccts(uint256)": "4966",
						"setInstructor(address,uint256,string,string)": "infinite"
					}
				},
				"methodIdentifiers": {
					"getInstructor(address)": "0429e372",
					"getInstructors()": "5eff7dae",
					"instrutorAccts(uint256)": "51dbf197",
					"setInstructor(address,uint256,string,string)": "46428adc"
				}
			},
			"storageLayout": {
				"storage": [
					{
						"astId": 13,
						"contract": "Courses.sol:Courses",
						"label": "instructors",
						"offset": 0,
						"slot": "0",
						"type": "t_mapping(t_address,t_struct(Instructor)8_storage)"
					},
					{
						"astId": 16,
						"contract": "Courses.sol:Courses",
						"label": "instrutorAccts",
						"offset": 0,
						"slot": "1",
						"type": "t_array(t_address)dyn_storage"
					}
				],
				"types": {
					"t_address": {
						"encoding": "inplace",
						"label": "address",
						"numberOfBytes": "20"
					},
					"t_array(t_address)dyn_storage": {
						"base": "t_address",
						"encoding": "dynamic_array",
						"label": "address[]",
						"numberOfBytes": "32"
					},
					"t_mapping(t_address,t_struct(Instructor)8_storage)": {
						"encoding": "mapping",
						"key": "t_address",
						"label": "mapping(address => struct Courses.Instructor)",
						"numberOfBytes": "32",
						"value": "t_struct(Instructor)8_storage"
					},
					"t_string_storage": {
						"encoding": "bytes",
						"label": "string",
						"numberOfBytes": "32"
					},
					"t_struct(Instructor)8_storage": {
						"encoding": "inplace",
						"label": "struct Courses.Instructor",
						"members": [
							{
								"astId": 3,
								"contract": "Courses.sol:Courses",
								"label": "age",
								"offset": 0,
								"slot": "0",
								"type": "t_uint256"
							},
							{
								"astId": 5,
								"contract": "Courses.sol:Courses",
								"label": "fName",
								"offset": 0,
								"slot": "1",
								"type": "t_string_storage"
							},
							{
								"astId": 7,
								"contract": "Courses.sol:Courses",
								"label": "lName",
								"offset": 0,
								"slot": "2",
								"type": "t_string_storage"
							}
						],
						"numberOfBytes": "96"
					},
					"t_uint256": {
						"encoding": "inplace",
						"label": "uint256",
						"numberOfBytes": "32"
					}
				}
			},
			"userdoc": {
				"kind": "user",
				"methods": {},
				"version": 1
			}
		}
	}
}