{
	"Courses.sol": {
		"Courses": {
			"abi": [
				{
					"inputs": [],
					"name": "countInstructors",
					"outputs": [
						{
							"internalType": "uint256",
							"name": "",
							"type": "uint256"
						}
					],
					"stateMutability": "view",
					"type": "function"
				},
				{
					"inputs": [
						{
							"internalType": "address",
							"name": "_address",
							"type": "address"
						}
					],
					"name": "getInstructor",
					"outputs": [
						{
							"internalType": "uint256",
							"name": "",
							"type": "uint256"
						},
						{
							"internalType": "string",
							"name": "",
							"type": "string"
						},
						{
							"internalType": "string",
							"name": "",
							"type": "string"
						}
					],
					"stateMutability": "view",
					"type": "function"
				},
				{
					"inputs": [],
					"name": "getInstructors",
					"outputs": [
						{
							"internalType": "address[]",
							"name": "",
							"type": "address[]"
						}
					],
					"stateMutability": "view",
					"type": "function"
				},
				{
					"inputs": [
						{
							"internalType": "uint256",
							"name": "",
							"type": "uint256"
						}
					],
					"name": "instructorAccts",
					"outputs": [
						{
							"internalType": "address",
							"name": "",
							"type": "address"
						}
					],
					"stateMutability": "view",
					"type": "function"
				},
				{
					"inputs": [
						{
							"internalType": "address",
							"name": "_address",
							"type": "address"
						},
						{
							"internalType": "uint256",
							"name": "_age",
							"type": "uint256"
						},
						{
							"internalType": "string",
							"name": "_fName",
							"type": "string"
						},
						{
							"internalType": "string",
							"name": "_lName",
							"type": "string"
						}
					],
					"name": "setInstructor",
					"outputs": [],
					"stateMutability": "nonpayable",
					"type": "function"
				}
			],
			"devdoc": {
				"kind": "dev",
				"methods": {},
				"version": 1
			},
			"evm": {
				"assembly": "    /* \"Courses.sol\":57:1009  contract Courses {... */\n  mstore(0x40, 0x80)\n  callvalue\n  dup1\n  iszero\n  tag_1\n  jumpi\n  revert(0x00, 0x00)\ntag_1:\n  pop\n  dataSize(sub_0)\n  dup1\n  dataOffset(sub_0)\n  0x00\n  codecopy\n  0x00\n  return\nstop\n\nsub_0: assembly {\n        /* \"Courses.sol\":57:1009  contract Courses {... */\n      mstore(0x40, 0x80)\n      callvalue\n      dup1\n      iszero\n      tag_1\n      jumpi\n      revert(0x00, 0x00)\n    tag_1:\n      pop\n      jumpi(tag_2, lt(calldatasize, 0x04))\n      shr(0xe0, calldataload(0x00))\n      dup1\n      0x0429e372\n      eq\n      tag_3\n      jumpi\n      dup1\n      0x46428adc\n      eq\n      tag_4\n      jumpi\n      dup1\n      0x5eff7dae\n      eq\n      tag_5\n      jumpi\n      dup1\n      0x8eb5234c\n      eq\n      tag_6\n      jumpi\n      dup1\n      0xca8ab933\n      eq\n      tag_7\n      jumpi\n    tag_2:\n      revert(0x00, 0x00)\n        /* \"Courses.sol\":693:900  function getInstructor(address _address) view public returns (uint, string memory, string memory) {... */\n    tag_3:\n      tag_8\n      0x04\n      dup1\n      calldatasize\n      sub\n      dup2\n      add\n      swap1\n      tag_9\n      swap2\n      swap1\n      tag_10\n      jump\t// in\n    tag_9:\n      tag_11\n      jump\t// in\n    tag_8:\n      mload(0x40)\n      tag_12\n      swap4\n      swap3\n      swap2\n      swap1\n      tag_13\n      jump\t// in\n    tag_12:\n      mload(0x40)\n      dup1\n      swap2\n      sub\n      swap1\n      return\n        /* \"Courses.sol\":261:577  function setInstructor(address _address, uint _age, string memory _fName, string memory _lName) public {... */\n    tag_4:\n      tag_14\n      0x04\n      dup1\n      calldatasize\n      sub\n      dup2\n      add\n      swap1\n      tag_15\n      swap2\n      swap1\n      tag_16\n      jump\t// in\n    tag_15:\n      tag_17\n      jump\t// in\n    tag_14:\n      stop\n        /* \"Courses.sol\":583:687  function getInstructors() view public returns (address[] memory) {... */\n    tag_5:\n      tag_18\n      tag_19\n      jump\t// in\n    tag_18:\n      mload(0x40)\n      tag_20\n      swap2\n      swap1\n      tag_21\n      jump\t// in\n    tag_20:\n      mload(0x40)\n      dup1\n      swap2\n      sub\n      swap1\n      return\n        /* \"Courses.sol\":222:254  address[] public instructorAccts */\n    tag_6:\n      tag_22\n      0x04\n      dup1\n      calldatasize\n      sub\n      dup2\n      add\n      swap1\n      tag_23\n      swap2\n      swap1\n      tag_24\n      jump\t// in\n    tag_23:\n      tag_25\n      jump\t// in\n    tag_22:\n      mload(0x40)\n      tag_26\n      swap2\n      swap1\n      tag_27\n      jump\t// in\n    tag_26:\n      mload(0x40)\n      dup1\n      swap2\n      sub\n      swap1\n      return\n        /* \"Courses.sol\":906:1007  function countInstructors() view public returns (uint) {... */\n    tag_7:\n      tag_28\n      tag_29\n      jump\t// in\n    tag_28:\n      mload(0x40)\n      tag_30\n      swap2\n      swap1\n      tag_31\n      jump\t// in\n    tag_30:\n      mload(0x40)\n      dup1\n      swap2\n      sub\n      swap1\n      return\n        /* \"Courses.sol\":693:900  function getInstructor(address _address) view public returns (uint, string memory, string memory) {... */\n    tag_11:\n        /* \"Courses.sol\":755:759  uint */\n      0x00\n        /* \"Courses.sol\":761:774  string memory */\n      0x60\n        /* \"Courses.sol\":776:789  string memory */\n      dup1\n        /* \"Courses.sol\":809:820  instructors */\n      0x00\n        /* \"Courses.sol\":809:830  instructors[_address] */\n      0x00\n        /* \"Courses.sol\":821:829  _address */\n      dup6\n        /* \"Courses.sol\":809:830  instructors[_address] */\n      0xffffffffffffffffffffffffffffffffffffffff\n      and\n      0xffffffffffffffffffffffffffffffffffffffff\n      and\n      dup2\n      mstore\n      0x20\n      add\n      swap1\n      dup2\n      mstore\n      0x20\n      add\n      0x00\n      keccak256\n        /* \"Courses.sol\":809:834  instructors[_address].age */\n      0x00\n      add\n      sload\n        /* \"Courses.sol\":836:847  instructors */\n      0x00\n        /* \"Courses.sol\":836:857  instructors[_address] */\n      0x00\n        /* \"Courses.sol\":848:856  _address */\n      dup7\n        /* \"Courses.sol\":836:857  instructors[_address] */\n      0xffffffffffffffffffffffffffffffffffffffff\n      and\n      0xffffffffffffffffffffffffffffffffffffffff\n      and\n      dup2\n      mstore\n      0x20\n      add\n      swap1\n      dup2\n      mstore\n      0x20\n      add\n      0x00\n      keccak256\n        /* \"Courses.sol\":836:863  instructors[_address].fName */\n      0x01\n      add\n        /* \"Courses.sol\":865:876  instructors */\n      0x00\n        /* \"Courses.sol\":865:886  instructors[_address] */\n      0x00\n        /* \"Courses.sol\":877:885  _address */\n      dup8\n        /* \"Courses.sol\":865:886  instructors[_address] */\n      0xffffffffffffffffffffffffffffffffffffffff\n      and\n      0xffffffffffffffffffffffffffffffffffffffff\n      and\n      dup2\n      mstore\n      0x20\n      add\n      swap1\n      dup2\n      mstore\n      0x20\n      add\n      0x00\n      keccak256\n        /* \"Courses.sol\":865:892  instructors[_address].lName */\n      0x02\n      add\n        /* \"Courses.sol\":801:893  return (instructors[_address].age, instructors[_address].fName, instructors[_address].lName) */\n      dup2\n      dup1\n      sload\n      tag_33\n      swap1\n      tag_34\n      jump\t// in\n    tag_33:\n      dup1\n      0x1f\n      add\n      0x20\n      dup1\n      swap2\n      div\n      mul\n      0x20\n      add\n      mload(0x40)\n      swap1\n      dup2\n      add\n      0x40\n      mstore\n      dup1\n      swap3\n      swap2\n      swap1\n      dup2\n      dup2\n      mstore\n      0x20\n      add\n      dup3\n      dup1\n      sload\n      tag_35\n      swap1\n      tag_34\n      jump\t// in\n    tag_35:\n      dup1\n      iszero\n      tag_36\n      jumpi\n      dup1\n      0x1f\n      lt\n      tag_37\n      jumpi\n      0x0100\n      dup1\n      dup4\n      sload\n      div\n      mul\n      dup4\n      mstore\n      swap2\n      0x20\n      add\n      swap2\n      jump(tag_36)\n    tag_37:\n      dup3\n      add\n      swap2\n      swap1\n      0x00\n      mstore\n      keccak256(0x00, 0x20)\n      swap1\n    tag_38:\n      dup2\n      sload\n      dup2\n      mstore\n      swap1\n      0x01\n      add\n      swap1\n      0x20\n      add\n      dup1\n      dup4\n      gt\n      tag_38\n      jumpi\n      dup3\n      swap1\n      sub\n      0x1f\n      and\n      dup3\n      add\n      swap2\n    tag_36:\n      pop\n      pop\n      pop\n      pop\n      pop\n      swap2\n      pop\n      dup1\n      dup1\n      sload\n      tag_39\n      swap1\n      tag_34\n      jump\t// in\n    tag_39:\n      dup1\n      0x1f\n      add\n      0x20\n      dup1\n      swap2\n      div\n      mul\n      0x20\n      add\n      mload(0x40)\n      swap1\n      dup2\n      add\n      0x40\n      mstore\n      dup1\n      swap3\n      swap2\n      swap1\n      dup2\n      dup2\n      mstore\n      0x20\n      add\n      dup3\n      dup1\n      sload\n      tag_40\n      swap1\n      tag_34\n      jump\t// in\n    tag_40:\n      dup1\n      iszero\n      tag_41\n      jumpi\n      dup1\n      0x1f\n      lt\n      tag_42\n      jumpi\n      0x0100\n      dup1\n      dup4\n      sload\n      div\n      mul\n      dup4\n      mstore\n      swap2\n      0x20\n      add\n      swap2\n      jump(tag_41)\n    tag_42:\n      dup3\n      add\n      swap2\n      swap1\n      0x00\n      mstore\n      keccak256(0x00, 0x20)\n      swap1\n    tag_43:\n      dup2\n      sload\n      dup2\n      mstore\n      swap1\n      0x01\n      add\n      swap1\n      0x20\n      add\n      dup1\n      dup4\n      gt\n      tag_43\n      jumpi\n      dup3\n      swap1\n      sub\n      0x1f\n      and\n      dup3\n      add\n      swap2\n    tag_41:\n      pop\n      pop\n      pop\n      pop\n      pop\n      swap1\n      pop\n      swap3\n      pop\n      swap3\n      pop\n      swap3\n      pop\n        /* \"Courses.sol\":693:900  function getInstructor(address _address) view public returns (uint, string memory, string memory) {... */\n      swap2\n      swap4\n      swap1\n      swap3\n      pop\n      jump\t// out\n        /* \"Courses.sol\":261:577  function setInstructor(address _address, uint _age, string memory _fName, string memory _lName) public {... */\n    tag_17:\n        /* \"Courses.sol\":374:403  Instructor storage instructor */\n      0x00\n        /* \"Courses.sol\":406:417  instructors */\n      0x00\n        /* \"Courses.sol\":406:427  instructors[_address] */\n      0x00\n        /* \"Courses.sol\":418:426  _address */\n      dup7\n        /* \"Courses.sol\":406:427  instructors[_address] */\n      0xffffffffffffffffffffffffffffffffffffffff\n      and\n      0xffffffffffffffffffffffffffffffffffffffff\n      and\n      dup2\n      mstore\n      0x20\n      add\n      swap1\n      dup2\n      mstore\n      0x20\n      add\n      0x00\n      keccak256\n        /* \"Courses.sol\":374:427  Instructor storage instructor = instructors[_address] */\n      swap1\n      pop\n        /* \"Courses.sol\":455:459  _age */\n      dup4\n        /* \"Courses.sol\":438:448  instructor */\n      dup2\n        /* \"Courses.sol\":438:452  instructor.age */\n      0x00\n      add\n        /* \"Courses.sol\":438:459  instructor.age = _age */\n      dup2\n      swap1\n      sstore\n      pop\n        /* \"Courses.sol\":488:494  _fName */\n      dup3\n        /* \"Courses.sol\":469:479  instructor */\n      dup2\n        /* \"Courses.sol\":469:485  instructor.fName */\n      0x01\n      add\n        /* \"Courses.sol\":469:494  instructor.fName = _fName */\n      swap1\n      dup2\n      tag_45\n      swap2\n      swap1\n      tag_46\n      jump\t// in\n    tag_45:\n      pop\n        /* \"Courses.sol\":523:529  _lName */\n      dup2\n        /* \"Courses.sol\":504:514  instructor */\n      dup2\n        /* \"Courses.sol\":504:520  instructor.lName */\n      0x02\n      add\n        /* \"Courses.sol\":504:529  instructor.lName = _lName */\n      swap1\n      dup2\n      tag_47\n      swap2\n      swap1\n      tag_46\n      jump\t// in\n    tag_47:\n      pop\n        /* \"Courses.sol\":540:555  instructorAccts */\n      0x01\n        /* \"Courses.sol\":561:569  _address */\n      dup6\n        /* \"Courses.sol\":540:570  instructorAccts.push(_address) */\n      swap1\n      dup1\n      0x01\n      dup2\n      sload\n      add\n      dup1\n      dup3\n      sstore\n      dup1\n      swap2\n      pop\n      pop\n      0x01\n      swap1\n      sub\n      swap1\n      0x00\n      mstore\n      keccak256(0x00, 0x20)\n      add\n      0x00\n      swap1\n      swap2\n      swap1\n      swap2\n      swap1\n      swap2\n      0x0100\n      exp\n      dup2\n      sload\n      dup2\n      0xffffffffffffffffffffffffffffffffffffffff\n      mul\n      not\n      and\n      swap1\n      dup4\n      0xffffffffffffffffffffffffffffffffffffffff\n      and\n      mul\n      or\n      swap1\n      sstore\n      pop\n        /* \"Courses.sol\":364:577  {... */\n      pop\n        /* \"Courses.sol\":261:577  function setInstructor(address _address, uint _age, string memory _fName, string memory _lName) public {... */\n      pop\n      pop\n      pop\n      pop\n      jump\t// out\n        /* \"Courses.sol\":583:687  function getInstructors() view public returns (address[] memory) {... */\n    tag_19:\n        /* \"Courses.sol\":630:646  address[] memory */\n      0x60\n        /* \"Courses.sol\":665:680  instructorAccts */\n      0x01\n        /* \"Courses.sol\":658:680  return instructorAccts */\n      dup1\n      sload\n      dup1\n      0x20\n      mul\n      0x20\n      add\n      mload(0x40)\n      swap1\n      dup2\n      add\n      0x40\n      mstore\n      dup1\n      swap3\n      swap2\n      swap1\n      dup2\n      dup2\n      mstore\n      0x20\n      add\n      dup3\n      dup1\n      sload\n      dup1\n      iszero\n      tag_50\n      jumpi\n      0x20\n      mul\n      dup3\n      add\n      swap2\n      swap1\n      0x00\n      mstore\n      keccak256(0x00, 0x20)\n      swap1\n    tag_51:\n      dup2\n      0x00\n      swap1\n      sload\n      swap1\n      0x0100\n      exp\n      swap1\n      div\n      0xffffffffffffffffffffffffffffffffffffffff\n      and\n      0xffffffffffffffffffffffffffffffffffffffff\n      and\n      dup2\n      mstore\n      0x20\n      add\n      swap1\n      0x01\n      add\n      swap1\n      dup1\n      dup4\n      gt\n      tag_51\n      jumpi\n    tag_50:\n      pop\n      pop\n      pop\n      pop\n      pop\n      swap1\n      pop\n        /* \"Courses.sol\":583:687  function getInstructors() view public returns (address[] memory) {... */\n      swap1\n      jump\t// out\n        /* \"Courses.sol\":222:254  address[] public instructorAccts */\n    tag_25:\n      0x01\n      dup2\n      dup2\n      sload\n      dup2\n      lt\n      tag_52\n      jumpi\n      0x00\n      dup1\n      revert\n    tag_52:\n      swap1\n      0x00\n      mstore\n      keccak256(0x00, 0x20)\n      add\n      0x00\n      swap2\n      pop\n      sload\n      swap1\n      0x0100\n      exp\n      swap1\n      div\n      0xffffffffffffffffffffffffffffffffffffffff\n      and\n      dup2\n      jump\t// out\n        /* \"Courses.sol\":906:1007  function countInstructors() view public returns (uint) {... */\n    tag_29:\n        /* \"Courses.sol\":955:959  uint */\n      0x00\n        /* \"Courses.sol\":978:993  instructorAccts */\n      0x01\n        /* \"Courses.sol\":978:1000  instructorAccts.length */\n      dup1\n      sload\n      swap1\n      pop\n        /* \"Courses.sol\":971:1000  return instructorAccts.length */\n      swap1\n      pop\n        /* \"Courses.sol\":906:1007  function countInstructors() view public returns (uint) {... */\n      swap1\n      jump\t// out\n        /* \"#utility.yul\":7:82   */\n    tag_55:\n        /* \"#utility.yul\":40:46   */\n      0x00\n        /* \"#utility.yul\":73:75   */\n      0x40\n        /* \"#utility.yul\":67:76   */\n      mload\n        /* \"#utility.yul\":57:76   */\n      swap1\n      pop\n        /* \"#utility.yul\":7:82   */\n      swap1\n      jump\t// out\n        /* \"#utility.yul\":88:205   */\n    tag_56:\n        /* \"#utility.yul\":197:198   */\n      0x00\n        /* \"#utility.yul\":194:195   */\n      0x00\n        /* \"#utility.yul\":187:199   */\n      revert\n        /* \"#utility.yul\":211:328   */\n    tag_57:\n        /* \"#utility.yul\":320:321   */\n      0x00\n        /* \"#utility.yul\":317:318   */\n      0x00\n        /* \"#utility.yul\":310:322   */\n      revert\n        /* \"#utility.yul\":334:460   */\n    tag_58:\n        /* \"#utility.yul\":371:378   */\n      0x00\n        /* \"#utility.yul\":411:453   */\n      0xffffffffffffffffffffffffffffffffffffffff\n        /* \"#utility.yul\":404:409   */\n      dup3\n        /* \"#utility.yul\":400:454   */\n      and\n        /* \"#utility.yul\":389:454   */\n      swap1\n      pop\n        /* \"#utility.yul\":334:460   */\n      swap2\n      swap1\n      pop\n      jump\t// out\n        /* \"#utility.yul\":466:562   */\n    tag_59:\n        /* \"#utility.yul\":503:510   */\n      0x00\n        /* \"#utility.yul\":532:556   */\n      tag_110\n        /* \"#utility.yul\":550:555   */\n      dup3\n        /* \"#utility.yul\":532:556   */\n      tag_58\n      jump\t// in\n    tag_110:\n        /* \"#utility.yul\":521:556   */\n      swap1\n      pop\n        /* \"#utility.yul\":466:562   */\n      swap2\n      swap1\n      pop\n      jump\t// out\n        /* \"#utility.yul\":568:690   */\n    tag_60:\n        /* \"#utility.yul\":641:665   */\n      tag_112\n        /* \"#utility.yul\":659:664   */\n      dup2\n        /* \"#utility.yul\":641:665   */\n      tag_59\n      jump\t// in\n    tag_112:\n        /* \"#utility.yul\":634:639   */\n      dup2\n        /* \"#utility.yul\":631:666   */\n      eq\n        /* \"#utility.yul\":621:684   */\n      tag_113\n      jumpi\n        /* \"#utility.yul\":680:681   */\n      0x00\n        /* \"#utility.yul\":677:678   */\n      0x00\n        /* \"#utility.yul\":670:682   */\n      revert\n        /* \"#utility.yul\":621:684   */\n    tag_113:\n        /* \"#utility.yul\":568:690   */\n      pop\n      jump\t// out\n        /* \"#utility.yul\":696:835   */\n    tag_61:\n        /* \"#utility.yul\":742:747   */\n      0x00\n        /* \"#utility.yul\":780:786   */\n      dup2\n        /* \"#utility.yul\":767:787   */\n      calldataload\n        /* \"#utility.yul\":758:787   */\n      swap1\n      pop\n        /* \"#utility.yul\":796:829   */\n      tag_115\n        /* \"#utility.yul\":823:828   */\n      dup2\n        /* \"#utility.yul\":796:829   */\n      tag_60\n      jump\t// in\n    tag_115:\n        /* \"#utility.yul\":696:835   */\n      swap3\n      swap2\n      pop\n      pop\n      jump\t// out\n        /* \"#utility.yul\":841:1170   */\n    tag_10:\n        /* \"#utility.yul\":900:906   */\n      0x00\n        /* \"#utility.yul\":949:951   */\n      0x20\n        /* \"#utility.yul\":937:946   */\n      dup3\n        /* \"#utility.yul\":928:935   */\n      dup5\n        /* \"#utility.yul\":924:947   */\n      sub\n        /* \"#utility.yul\":920:952   */\n      slt\n        /* \"#utility.yul\":917:1036   */\n      iszero\n      tag_117\n      jumpi\n        /* \"#utility.yul\":955:1034   */\n      tag_118\n      tag_56\n      jump\t// in\n    tag_118:\n        /* \"#utility.yul\":917:1036   */\n    tag_117:\n        /* \"#utility.yul\":1075:1076   */\n      0x00\n        /* \"#utility.yul\":1100:1153   */\n      tag_119\n        /* \"#utility.yul\":1145:1152   */\n      dup5\n        /* \"#utility.yul\":1136:1142   */\n      dup3\n        /* \"#utility.yul\":1125:1134   */\n      dup6\n        /* \"#utility.yul\":1121:1143   */\n      add\n        /* \"#utility.yul\":1100:1153   */\n      tag_61\n      jump\t// in\n    tag_119:\n        /* \"#utility.yul\":1090:1153   */\n      swap2\n      pop\n        /* \"#utility.yul\":1046:1163   */\n      pop\n        /* \"#utility.yul\":841:1170   */\n      swap3\n      swap2\n      pop\n      pop\n      jump\t// out\n        /* \"#utility.yul\":1176:1253   */\n    tag_62:\n        /* \"#utility.yul\":1213:1220   */\n      0x00\n        /* \"#utility.yul\":1242:1247   */\n      dup2\n        /* \"#utility.yul\":1231:1247   */\n      swap1\n      pop\n        /* \"#utility.yul\":1176:1253   */\n      swap2\n      swap1\n      pop\n      jump\t// out\n        /* \"#utility.yul\":1259:1377   */\n    tag_63:\n        /* \"#utility.yul\":1346:1370   */\n      tag_122\n        /* \"#utility.yul\":1364:1369   */\n      dup2\n        /* \"#utility.yul\":1346:1370   */\n      tag_62\n      jump\t// in\n    tag_122:\n        /* \"#utility.yul\":1341:1344   */\n      dup3\n        /* \"#utility.yul\":1334:1371   */\n      mstore\n        /* \"#utility.yul\":1259:1377   */\n      pop\n      pop\n      jump\t// out\n        /* \"#utility.yul\":1383:1482   */\n    tag_64:\n        /* \"#utility.yul\":1435:1441   */\n      0x00\n        /* \"#utility.yul\":1469:1474   */\n      dup2\n        /* \"#utility.yul\":1463:1475   */\n      mload\n        /* \"#utility.yul\":1453:1475   */\n      swap1\n      pop\n        /* \"#utility.yul\":1383:1482   */\n      swap2\n      swap1\n      pop\n      jump\t// out\n        /* \"#utility.yul\":1488:1657   */\n    tag_65:\n        /* \"#utility.yul\":1572:1583   */\n      0x00\n        /* \"#utility.yul\":1606:1612   */\n      dup3\n        /* \"#utility.yul\":1601:1604   */\n      dup3\n        /* \"#utility.yul\":1594:1613   */\n      mstore\n        /* \"#utility.yul\":1646:1650   */\n      0x20\n        /* \"#utility.yul\":1641:1644   */\n      dup3\n        /* \"#utility.yul\":1637:1651   */\n      add\n        /* \"#utility.yul\":1622:1651   */\n      swap1\n      pop\n        /* \"#utility.yul\":1488:1657   */\n      swap3\n      swap2\n      pop\n      pop\n      jump\t// out\n        /* \"#utility.yul\":1663:1802   */\n    tag_66:\n        /* \"#utility.yul\":1752:1758   */\n      dup3\n        /* \"#utility.yul\":1747:1750   */\n      dup2\n        /* \"#utility.yul\":1742:1745   */\n      dup4\n        /* \"#utility.yul\":1736:1759   */\n      mcopy\n        /* \"#utility.yul\":1793:1794   */\n      0x00\n        /* \"#utility.yul\":1784:1790   */\n      dup4\n        /* \"#utility.yul\":1779:1782   */\n      dup4\n        /* \"#utility.yul\":1775:1791   */\n      add\n        /* \"#utility.yul\":1768:1795   */\n      mstore\n        /* \"#utility.yul\":1663:1802   */\n      pop\n      pop\n      pop\n      jump\t// out\n        /* \"#utility.yul\":1808:1910   */\n    tag_67:\n        /* \"#utility.yul\":1849:1855   */\n      0x00\n        /* \"#utility.yul\":1900:1902   */\n      0x1f\n        /* \"#utility.yul\":1896:1903   */\n      not\n        /* \"#utility.yul\":1891:1893   */\n      0x1f\n        /* \"#utility.yul\":1884:1889   */\n      dup4\n        /* \"#utility.yul\":1880:1894   */\n      add\n        /* \"#utility.yul\":1876:1904   */\n      and\n        /* \"#utility.yul\":1866:1904   */\n      swap1\n      pop\n        /* \"#utility.yul\":1808:1910   */\n      swap2\n      swap1\n      pop\n      jump\t// out\n        /* \"#utility.yul\":1916:2293   */\n    tag_68:\n        /* \"#utility.yul\":2004:2007   */\n      0x00\n        /* \"#utility.yul\":2032:2071   */\n      tag_128\n        /* \"#utility.yul\":2065:2070   */\n      dup3\n        /* \"#utility.yul\":2032:2071   */\n      tag_64\n      jump\t// in\n    tag_128:\n        /* \"#utility.yul\":2087:2158   */\n      tag_129\n        /* \"#utility.yul\":2151:2157   */\n      dup2\n        /* \"#utility.yul\":2146:2149   */\n      dup6\n        /* \"#utility.yul\":2087:2158   */\n      tag_65\n      jump\t// in\n    tag_129:\n        /* \"#utility.yul\":2080:2158   */\n      swap4\n      pop\n        /* \"#utility.yul\":2167:2232   */\n      tag_130\n        /* \"#utility.yul\":2225:2231   */\n      dup2\n        /* \"#utility.yul\":2220:2223   */\n      dup6\n        /* \"#utility.yul\":2213:2217   */\n      0x20\n        /* \"#utility.yul\":2206:2211   */\n      dup7\n        /* \"#utility.yul\":2202:2218   */\n      add\n        /* \"#utility.yul\":2167:2232   */\n      tag_66\n      jump\t// in\n    tag_130:\n        /* \"#utility.yul\":2257:2286   */\n      tag_131\n        /* \"#utility.yul\":2279:2285   */\n      dup2\n        /* \"#utility.yul\":2257:2286   */\n      tag_67\n      jump\t// in\n    tag_131:\n        /* \"#utility.yul\":2252:2255   */\n      dup5\n        /* \"#utility.yul\":2248:2287   */\n      add\n        /* \"#utility.yul\":2241:2287   */\n      swap2\n      pop\n        /* \"#utility.yul\":2008:2293   */\n      pop\n        /* \"#utility.yul\":1916:2293   */\n      swap3\n      swap2\n      pop\n      pop\n      jump\t// out\n        /* \"#utility.yul\":2299:2923   */\n    tag_13:\n        /* \"#utility.yul\":2488:2492   */\n      0x00\n        /* \"#utility.yul\":2526:2528   */\n      0x60\n        /* \"#utility.yul\":2515:2524   */\n      dup3\n        /* \"#utility.yul\":2511:2529   */\n      add\n        /* \"#utility.yul\":2503:2529   */\n      swap1\n      pop\n        /* \"#utility.yul\":2539:2610   */\n      tag_133\n        /* \"#utility.yul\":2607:2608   */\n      0x00\n        /* \"#utility.yul\":2596:2605   */\n      dup4\n        /* \"#utility.yul\":2592:2609   */\n      add\n        /* \"#utility.yul\":2583:2589   */\n      dup7\n        /* \"#utility.yul\":2539:2610   */\n      tag_63\n      jump\t// in\n    tag_133:\n        /* \"#utility.yul\":2657:2666   */\n      dup2\n        /* \"#utility.yul\":2651:2655   */\n      dup2\n        /* \"#utility.yul\":2647:2667   */\n      sub\n        /* \"#utility.yul\":2642:2644   */\n      0x20\n        /* \"#utility.yul\":2631:2640   */\n      dup4\n        /* \"#utility.yul\":2627:2645   */\n      add\n        /* \"#utility.yul\":2620:2668   */\n      mstore\n        /* \"#utility.yul\":2685:2763   */\n      tag_134\n        /* \"#utility.yul\":2758:2762   */\n      dup2\n        /* \"#utility.yul\":2749:2755   */\n      dup6\n        /* \"#utility.yul\":2685:2763   */\n      tag_68\n      jump\t// in\n    tag_134:\n        /* \"#utility.yul\":2677:2763   */\n      swap1\n      pop\n        /* \"#utility.yul\":2810:2819   */\n      dup2\n        /* \"#utility.yul\":2804:2808   */\n      dup2\n        /* \"#utility.yul\":2800:2820   */\n      sub\n        /* \"#utility.yul\":2795:2797   */\n      0x40\n        /* \"#utility.yul\":2784:2793   */\n      dup4\n        /* \"#utility.yul\":2780:2798   */\n      add\n        /* \"#utility.yul\":2773:2821   */\n      mstore\n        /* \"#utility.yul\":2838:2916   */\n      tag_135\n        /* \"#utility.yul\":2911:2915   */\n      dup2\n        /* \"#utility.yul\":2902:2908   */\n      dup5\n        /* \"#utility.yul\":2838:2916   */\n      tag_68\n      jump\t// in\n    tag_135:\n        /* \"#utility.yul\":2830:2916   */\n      swap1\n      pop\n        /* \"#utility.yul\":2299:2923   */\n      swap5\n      swap4\n      pop\n      pop\n      pop\n      pop\n      jump\t// out\n        /* \"#utility.yul\":2929:3051   */\n    tag_69:\n        /* \"#utility.yul\":3002:3026   */\n      tag_137\n        /* \"#utility.yul\":3020:3025   */\n      dup2\n        /* \"#utility.yul\":3002:3026   */\n      tag_62\n      jump\t// in\n    tag_137:\n        /* \"#utility.yul\":2995:3000   */\n      dup2\n        /* \"#utility.yul\":2992:3027   */\n      eq\n        /* \"#utility.yul\":2982:3045   */\n      tag_138\n      jumpi\n        /* \"#utility.yul\":3041:3042   */\n      0x00\n        /* \"#utility.yul\":3038:3039   */\n      0x00\n        /* \"#utility.yul\":3031:3043   */\n      revert\n        /* \"#utility.yul\":2982:3045   */\n    tag_138:\n        /* \"#utility.yul\":2929:3051   */\n      pop\n      jump\t// out\n        /* \"#utility.yul\":3057:3196   */\n    tag_70:\n        /* \"#utility.yul\":3103:3108   */\n      0x00\n        /* \"#utility.yul\":3141:3147   */\n      dup2\n        /* \"#utility.yul\":3128:3148   */\n      calldataload\n        /* \"#utility.yul\":3119:3148   */\n      swap1\n      pop\n        /* \"#utility.yul\":3157:3190   */\n      tag_140\n        /* \"#utility.yul\":3184:3189   */\n      dup2\n        /* \"#utility.yul\":3157:3190   */\n      tag_69\n      jump\t// in\n    tag_140:\n        /* \"#utility.yul\":3057:3196   */\n      swap3\n      swap2\n      pop\n      pop\n      jump\t// out\n        /* \"#utility.yul\":3202:3319   */\n    tag_71:\n        /* \"#utility.yul\":3311:3312   */\n      0x00\n        /* \"#utility.yul\":3308:3309   */\n      0x00\n        /* \"#utility.yul\":3301:3313   */\n      revert\n        /* \"#utility.yul\":3325:3442   */\n    tag_72:\n        /* \"#utility.yul\":3434:3435   */\n      0x00\n        /* \"#utility.yul\":3431:3432   */\n      0x00\n        /* \"#utility.yul\":3424:3436   */\n      revert\n        /* \"#utility.yul\":3448:3628   */\n    tag_73:\n        /* \"#utility.yul\":3496:3573   */\n      0x4e487b7100000000000000000000000000000000000000000000000000000000\n        /* \"#utility.yul\":3493:3494   */\n      0x00\n        /* \"#utility.yul\":3486:3574   */\n      mstore\n        /* \"#utility.yul\":3593:3597   */\n      0x41\n        /* \"#utility.yul\":3590:3591   */\n      0x04\n        /* \"#utility.yul\":3583:3598   */\n      mstore\n        /* \"#utility.yul\":3617:3621   */\n      0x24\n        /* \"#utility.yul\":3614:3615   */\n      0x00\n        /* \"#utility.yul\":3607:3622   */\n      revert\n        /* \"#utility.yul\":3634:3915   */\n    tag_74:\n        /* \"#utility.yul\":3717:3744   */\n      tag_145\n        /* \"#utility.yul\":3739:3743   */\n      dup3\n        /* \"#utility.yul\":3717:3744   */\n      tag_67\n      jump\t// in\n    tag_145:\n        /* \"#utility.yul\":3709:3715   */\n      dup2\n        /* \"#utility.yul\":3705:3745   */\n      add\n        /* \"#utility.yul\":3847:3853   */\n      dup2\n        /* \"#utility.yul\":3835:3845   */\n      dup2\n        /* \"#utility.yul\":3832:3854   */\n      lt\n        /* \"#utility.yul\":3811:3829   */\n      0xffffffffffffffff\n        /* \"#utility.yul\":3799:3809   */\n      dup3\n        /* \"#utility.yul\":3796:3830   */\n      gt\n        /* \"#utility.yul\":3793:3855   */\n      or\n        /* \"#utility.yul\":3790:3878   */\n      iszero\n      tag_146\n      jumpi\n        /* \"#utility.yul\":3858:3876   */\n      tag_147\n      tag_73\n      jump\t// in\n    tag_147:\n        /* \"#utility.yul\":3790:3878   */\n    tag_146:\n        /* \"#utility.yul\":3898:3908   */\n      dup1\n        /* \"#utility.yul\":3894:3896   */\n      0x40\n        /* \"#utility.yul\":3887:3909   */\n      mstore\n        /* \"#utility.yul\":3677:3915   */\n      pop\n        /* \"#utility.yul\":3634:3915   */\n      pop\n      pop\n      jump\t// out\n        /* \"#utility.yul\":3921:4050   */\n    tag_75:\n        /* \"#utility.yul\":3955:3961   */\n      0x00\n        /* \"#utility.yul\":3982:4002   */\n      tag_149\n      tag_55\n      jump\t// in\n    tag_149:\n        /* \"#utility.yul\":3972:4002   */\n      swap1\n      pop\n        /* \"#utility.yul\":4011:4044   */\n      tag_150\n        /* \"#utility.yul\":4039:4043   */\n      dup3\n        /* \"#utility.yul\":4031:4037   */\n      dup3\n        /* \"#utility.yul\":4011:4044   */\n      tag_74\n      jump\t// in\n    tag_150:\n        /* \"#utility.yul\":3921:4050   */\n      swap2\n      swap1\n      pop\n      jump\t// out\n        /* \"#utility.yul\":4056:4364   */\n    tag_76:\n        /* \"#utility.yul\":4118:4122   */\n      0x00\n        /* \"#utility.yul\":4208:4226   */\n      0xffffffffffffffff\n        /* \"#utility.yul\":4200:4206   */\n      dup3\n        /* \"#utility.yul\":4197:4227   */\n      gt\n        /* \"#utility.yul\":4194:4250   */\n      iszero\n      tag_152\n      jumpi\n        /* \"#utility.yul\":4230:4248   */\n      tag_153\n      tag_73\n      jump\t// in\n    tag_153:\n        /* \"#utility.yul\":4194:4250   */\n    tag_152:\n        /* \"#utility.yul\":4268:4297   */\n      tag_154\n        /* \"#utility.yul\":4290:4296   */\n      dup3\n        /* \"#utility.yul\":4268:4297   */\n      tag_67\n      jump\t// in\n    tag_154:\n        /* \"#utility.yul\":4260:4297   */\n      swap1\n      pop\n        /* \"#utility.yul\":4352:4356   */\n      0x20\n        /* \"#utility.yul\":4346:4350   */\n      dup2\n        /* \"#utility.yul\":4342:4357   */\n      add\n        /* \"#utility.yul\":4334:4357   */\n      swap1\n      pop\n        /* \"#utility.yul\":4056:4364   */\n      swap2\n      swap1\n      pop\n      jump\t// out\n        /* \"#utility.yul\":4370:4518   */\n    tag_77:\n        /* \"#utility.yul\":4468:4474   */\n      dup3\n        /* \"#utility.yul\":4463:4466   */\n      dup2\n        /* \"#utility.yul\":4458:4461   */\n      dup4\n        /* \"#utility.yul\":4445:4475   */\n      calldatacopy\n        /* \"#utility.yul\":4509:4510   */\n      0x00\n        /* \"#utility.yul\":4500:4506   */\n      dup4\n        /* \"#utility.yul\":4495:4498   */\n      dup4\n        /* \"#utility.yul\":4491:4507   */\n      add\n        /* \"#utility.yul\":4484:4511   */\n      mstore\n        /* \"#utility.yul\":4370:4518   */\n      pop\n      pop\n      pop\n      jump\t// out\n        /* \"#utility.yul\":4524:4949   */\n    tag_78:\n        /* \"#utility.yul\":4602:4607   */\n      0x00\n        /* \"#utility.yul\":4627:4693   */\n      tag_157\n        /* \"#utility.yul\":4643:4692   */\n      tag_158\n        /* \"#utility.yul\":4685:4691   */\n      dup5\n        /* \"#utility.yul\":4643:4692   */\n      tag_76\n      jump\t// in\n    tag_158:\n        /* \"#utility.yul\":4627:4693   */\n      tag_75\n      jump\t// in\n    tag_157:\n        /* \"#utility.yul\":4618:4693   */\n      swap1\n      pop\n        /* \"#utility.yul\":4716:4722   */\n      dup3\n        /* \"#utility.yul\":4709:4714   */\n      dup2\n        /* \"#utility.yul\":4702:4723   */\n      mstore\n        /* \"#utility.yul\":4754:4758   */\n      0x20\n        /* \"#utility.yul\":4747:4752   */\n      dup2\n        /* \"#utility.yul\":4743:4759   */\n      add\n        /* \"#utility.yul\":4792:4795   */\n      dup5\n        /* \"#utility.yul\":4783:4789   */\n      dup5\n        /* \"#utility.yul\":4778:4781   */\n      dup5\n        /* \"#utility.yul\":4774:4790   */\n      add\n        /* \"#utility.yul\":4771:4796   */\n      gt\n        /* \"#utility.yul\":4768:4880   */\n      iszero\n      tag_159\n      jumpi\n        /* \"#utility.yul\":4799:4878   */\n      tag_160\n      tag_72\n      jump\t// in\n    tag_160:\n        /* \"#utility.yul\":4768:4880   */\n    tag_159:\n        /* \"#utility.yul\":4889:4943   */\n      tag_161\n        /* \"#utility.yul\":4936:4942   */\n      dup5\n        /* \"#utility.yul\":4931:4934   */\n      dup3\n        /* \"#utility.yul\":4926:4929   */\n      dup6\n        /* \"#utility.yul\":4889:4943   */\n      tag_77\n      jump\t// in\n    tag_161:\n        /* \"#utility.yul\":4608:4949   */\n      pop\n        /* \"#utility.yul\":4524:4949   */\n      swap4\n      swap3\n      pop\n      pop\n      pop\n      jump\t// out\n        /* \"#utility.yul\":4969:5309   */\n    tag_79:\n        /* \"#utility.yul\":5025:5030   */\n      0x00\n        /* \"#utility.yul\":5074:5077   */\n      dup3\n        /* \"#utility.yul\":5067:5071   */\n      0x1f\n        /* \"#utility.yul\":5059:5065   */\n      dup4\n        /* \"#utility.yul\":5055:5072   */\n      add\n        /* \"#utility.yul\":5051:5078   */\n      slt\n        /* \"#utility.yul\":5041:5163   */\n      tag_163\n      jumpi\n        /* \"#utility.yul\":5082:5161   */\n      tag_164\n      tag_71\n      jump\t// in\n    tag_164:\n        /* \"#utility.yul\":5041:5163   */\n    tag_163:\n        /* \"#utility.yul\":5199:5205   */\n      dup2\n        /* \"#utility.yul\":5186:5206   */\n      calldataload\n        /* \"#utility.yul\":5224:5303   */\n      tag_165\n        /* \"#utility.yul\":5299:5302   */\n      dup5\n        /* \"#utility.yul\":5291:5297   */\n      dup3\n        /* \"#utility.yul\":5284:5288   */\n      0x20\n        /* \"#utility.yul\":5276:5282   */\n      dup7\n        /* \"#utility.yul\":5272:5289   */\n      add\n        /* \"#utility.yul\":5224:5303   */\n      tag_78\n      jump\t// in\n    tag_165:\n        /* \"#utility.yul\":5215:5303   */\n      swap2\n      pop\n        /* \"#utility.yul\":5031:5309   */\n      pop\n        /* \"#utility.yul\":4969:5309   */\n      swap3\n      swap2\n      pop\n      pop\n      jump\t// out\n        /* \"#utility.yul\":5315:6440   */\n    tag_16:\n        /* \"#utility.yul\":5421:5427   */\n      0x00\n        /* \"#utility.yul\":5429:5435   */\n      0x00\n        /* \"#utility.yul\":5437:5443   */\n      0x00\n        /* \"#utility.yul\":5445:5451   */\n      0x00\n        /* \"#utility.yul\":5494:5497   */\n      0x80\n        /* \"#utility.yul\":5482:5491   */\n      dup6\n        /* \"#utility.yul\":5473:5480   */\n      dup8\n        /* \"#utility.yul\":5469:5492   */\n      sub\n        /* \"#utility.yul\":5465:5498   */\n      slt\n        /* \"#utility.yul\":5462:5582   */\n      iszero\n      tag_167\n      jumpi\n        /* \"#utility.yul\":5501:5580   */\n      tag_168\n      tag_56\n      jump\t// in\n    tag_168:\n        /* \"#utility.yul\":5462:5582   */\n    tag_167:\n        /* \"#utility.yul\":5621:5622   */\n      0x00\n        /* \"#utility.yul\":5646:5699   */\n      tag_169\n        /* \"#utility.yul\":5691:5698   */\n      dup8\n        /* \"#utility.yul\":5682:5688   */\n      dup3\n        /* \"#utility.yul\":5671:5680   */\n      dup9\n        /* \"#utility.yul\":5667:5689   */\n      add\n        /* \"#utility.yul\":5646:5699   */\n      tag_61\n      jump\t// in\n    tag_169:\n        /* \"#utility.yul\":5636:5699   */\n      swap5\n      pop\n        /* \"#utility.yul\":5592:5709   */\n      pop\n        /* \"#utility.yul\":5748:5750   */\n      0x20\n        /* \"#utility.yul\":5774:5827   */\n      tag_170\n        /* \"#utility.yul\":5819:5826   */\n      dup8\n        /* \"#utility.yul\":5810:5816   */\n      dup3\n        /* \"#utility.yul\":5799:5808   */\n      dup9\n        /* \"#utility.yul\":5795:5817   */\n      add\n        /* \"#utility.yul\":5774:5827   */\n      tag_70\n      jump\t// in\n    tag_170:\n        /* \"#utility.yul\":5764:5827   */\n      swap4\n      pop\n        /* \"#utility.yul\":5719:5837   */\n      pop\n        /* \"#utility.yul\":5904:5906   */\n      0x40\n        /* \"#utility.yul\":5893:5902   */\n      dup6\n        /* \"#utility.yul\":5889:5907   */\n      add\n        /* \"#utility.yul\":5876:5908   */\n      calldataload\n        /* \"#utility.yul\":5935:5953   */\n      0xffffffffffffffff\n        /* \"#utility.yul\":5927:5933   */\n      dup2\n        /* \"#utility.yul\":5924:5954   */\n      gt\n        /* \"#utility.yul\":5921:6038   */\n      iszero\n      tag_171\n      jumpi\n        /* \"#utility.yul\":5957:6036   */\n      tag_172\n      tag_57\n      jump\t// in\n    tag_172:\n        /* \"#utility.yul\":5921:6038   */\n    tag_171:\n        /* \"#utility.yul\":6062:6125   */\n      tag_173\n        /* \"#utility.yul\":6117:6124   */\n      dup8\n        /* \"#utility.yul\":6108:6114   */\n      dup3\n        /* \"#utility.yul\":6097:6106   */\n      dup9\n        /* \"#utility.yul\":6093:6115   */\n      add\n        /* \"#utility.yul\":6062:6125   */\n      tag_79\n      jump\t// in\n    tag_173:\n        /* \"#utility.yul\":6052:6125   */\n      swap3\n      pop\n        /* \"#utility.yul\":5847:6135   */\n      pop\n        /* \"#utility.yul\":6202:6204   */\n      0x60\n        /* \"#utility.yul\":6191:6200   */\n      dup6\n        /* \"#utility.yul\":6187:6205   */\n      add\n        /* \"#utility.yul\":6174:6206   */\n      calldataload\n        /* \"#utility.yul\":6233:6251   */\n      0xffffffffffffffff\n        /* \"#utility.yul\":6225:6231   */\n      dup2\n        /* \"#utility.yul\":6222:6252   */\n      gt\n        /* \"#utility.yul\":6219:6336   */\n      iszero\n      tag_174\n      jumpi\n        /* \"#utility.yul\":6255:6334   */\n      tag_175\n      tag_57\n      jump\t// in\n    tag_175:\n        /* \"#utility.yul\":6219:6336   */\n    tag_174:\n        /* \"#utility.yul\":6360:6423   */\n      tag_176\n        /* \"#utility.yul\":6415:6422   */\n      dup8\n        /* \"#utility.yul\":6406:6412   */\n      dup3\n        /* \"#utility.yul\":6395:6404   */\n      dup9\n        /* \"#utility.yul\":6391:6413   */\n      add\n        /* \"#utility.yul\":6360:6423   */\n      tag_79\n      jump\t// in\n    tag_176:\n        /* \"#utility.yul\":6350:6423   */\n      swap2\n      pop\n        /* \"#utility.yul\":6145:6433   */\n      pop\n        /* \"#utility.yul\":5315:6440   */\n      swap3\n      swap6\n      swap2\n      swap5\n      pop\n      swap3\n      pop\n      jump\t// out\n        /* \"#utility.yul\":6446:6560   */\n    tag_80:\n        /* \"#utility.yul\":6513:6519   */\n      0x00\n        /* \"#utility.yul\":6547:6552   */\n      dup2\n        /* \"#utility.yul\":6541:6553   */\n      mload\n        /* \"#utility.yul\":6531:6553   */\n      swap1\n      pop\n        /* \"#utility.yul\":6446:6560   */\n      swap2\n      swap1\n      pop\n      jump\t// out\n        /* \"#utility.yul\":6566:6750   */\n    tag_81:\n        /* \"#utility.yul\":6665:6676   */\n      0x00\n        /* \"#utility.yul\":6699:6705   */\n      dup3\n        /* \"#utility.yul\":6694:6697   */\n      dup3\n        /* \"#utility.yul\":6687:6706   */\n      mstore\n        /* \"#utility.yul\":6739:6743   */\n      0x20\n        /* \"#utility.yul\":6734:6737   */\n      dup3\n        /* \"#utility.yul\":6730:6744   */\n      add\n        /* \"#utility.yul\":6715:6744   */\n      swap1\n      pop\n        /* \"#utility.yul\":6566:6750   */\n      swap3\n      swap2\n      pop\n      pop\n      jump\t// out\n        /* \"#utility.yul\":6756:6888   */\n    tag_82:\n        /* \"#utility.yul\":6823:6827   */\n      0x00\n        /* \"#utility.yul\":6846:6849   */\n      dup2\n        /* \"#utility.yul\":6838:6849   */\n      swap1\n      pop\n        /* \"#utility.yul\":6876:6880   */\n      0x20\n        /* \"#utility.yul\":6871:6874   */\n      dup3\n        /* \"#utility.yul\":6867:6881   */\n      add\n        /* \"#utility.yul\":6859:6881   */\n      swap1\n      pop\n        /* \"#utility.yul\":6756:6888   */\n      swap2\n      swap1\n      pop\n      jump\t// out\n        /* \"#utility.yul\":6894:7002   */\n    tag_83:\n        /* \"#utility.yul\":6971:6995   */\n      tag_181\n        /* \"#utility.yul\":6989:6994   */\n      dup2\n        /* \"#utility.yul\":6971:6995   */\n      tag_59\n      jump\t// in\n    tag_181:\n        /* \"#utility.yul\":6966:6969   */\n      dup3\n        /* \"#utility.yul\":6959:6996   */\n      mstore\n        /* \"#utility.yul\":6894:7002   */\n      pop\n      pop\n      jump\t// out\n        /* \"#utility.yul\":7008:7187   */\n    tag_84:\n        /* \"#utility.yul\":7077:7087   */\n      0x00\n        /* \"#utility.yul\":7098:7144   */\n      tag_183\n        /* \"#utility.yul\":7140:7143   */\n      dup4\n        /* \"#utility.yul\":7132:7138   */\n      dup4\n        /* \"#utility.yul\":7098:7144   */\n      tag_83\n      jump\t// in\n    tag_183:\n        /* \"#utility.yul\":7176:7180   */\n      0x20\n        /* \"#utility.yul\":7171:7174   */\n      dup4\n        /* \"#utility.yul\":7167:7181   */\n      add\n        /* \"#utility.yul\":7153:7181   */\n      swap1\n      pop\n        /* \"#utility.yul\":7008:7187   */\n      swap3\n      swap2\n      pop\n      pop\n      jump\t// out\n        /* \"#utility.yul\":7193:7306   */\n    tag_85:\n        /* \"#utility.yul\":7263:7267   */\n      0x00\n        /* \"#utility.yul\":7295:7299   */\n      0x20\n        /* \"#utility.yul\":7290:7293   */\n      dup3\n        /* \"#utility.yul\":7286:7300   */\n      add\n        /* \"#utility.yul\":7278:7300   */\n      swap1\n      pop\n        /* \"#utility.yul\":7193:7306   */\n      swap2\n      swap1\n      pop\n      jump\t// out\n        /* \"#utility.yul\":7342:8074   */\n    tag_86:\n        /* \"#utility.yul\":7461:7464   */\n      0x00\n        /* \"#utility.yul\":7490:7544   */\n      tag_186\n        /* \"#utility.yul\":7538:7543   */\n      dup3\n        /* \"#utility.yul\":7490:7544   */\n      tag_80\n      jump\t// in\n    tag_186:\n        /* \"#utility.yul\":7560:7646   */\n      tag_187\n        /* \"#utility.yul\":7639:7645   */\n      dup2\n        /* \"#utility.yul\":7634:7637   */\n      dup6\n        /* \"#utility.yul\":7560:7646   */\n      tag_81\n      jump\t// in\n    tag_187:\n        /* \"#utility.yul\":7553:7646   */\n      swap4\n      pop\n        /* \"#utility.yul\":7670:7726   */\n      tag_188\n        /* \"#utility.yul\":7720:7725   */\n      dup4\n        /* \"#utility.yul\":7670:7726   */\n      tag_82\n      jump\t// in\n    tag_188:\n        /* \"#utility.yul\":7749:7756   */\n      dup1\n        /* \"#utility.yul\":7780:7781   */\n      0x00\n        /* \"#utility.yul\":7765:8049   */\n    tag_189:\n        /* \"#utility.yul\":7790:7796   */\n      dup4\n        /* \"#utility.yul\":7787:7788   */\n      dup2\n        /* \"#utility.yul\":7784:7797   */\n      lt\n        /* \"#utility.yul\":7765:8049   */\n      iszero\n      tag_191\n      jumpi\n        /* \"#utility.yul\":7866:7872   */\n      dup2\n        /* \"#utility.yul\":7860:7873   */\n      mload\n        /* \"#utility.yul\":7893:7956   */\n      tag_192\n        /* \"#utility.yul\":7952:7955   */\n      dup9\n        /* \"#utility.yul\":7937:7950   */\n      dup3\n        /* \"#utility.yul\":7893:7956   */\n      tag_84\n      jump\t// in\n    tag_192:\n        /* \"#utility.yul\":7886:7956   */\n      swap8\n      pop\n        /* \"#utility.yul\":7979:8039   */\n      tag_193\n        /* \"#utility.yul\":8032:8038   */\n      dup4\n        /* \"#utility.yul\":7979:8039   */\n      tag_85\n      jump\t// in\n    tag_193:\n        /* \"#utility.yul\":7969:8039   */\n      swap3\n      pop\n        /* \"#utility.yul\":7825:8049   */\n      pop\n        /* \"#utility.yul\":7812:7813   */\n      0x01\n        /* \"#utility.yul\":7809:7810   */\n      dup2\n        /* \"#utility.yul\":7805:7814   */\n      add\n        /* \"#utility.yul\":7800:7814   */\n      swap1\n      pop\n        /* \"#utility.yul\":7765:8049   */\n      jump(tag_189)\n    tag_191:\n        /* \"#utility.yul\":7769:7783   */\n      pop\n        /* \"#utility.yul\":8065:8068   */\n      dup6\n        /* \"#utility.yul\":8058:8068   */\n      swap4\n      pop\n        /* \"#utility.yul\":7466:8074   */\n      pop\n      pop\n      pop\n        /* \"#utility.yul\":7342:8074   */\n      swap3\n      swap2\n      pop\n      pop\n      jump\t// out\n        /* \"#utility.yul\":8080:8453   */\n    tag_21:\n        /* \"#utility.yul\":8223:8227   */\n      0x00\n        /* \"#utility.yul\":8261:8263   */\n      0x20\n        /* \"#utility.yul\":8250:8259   */\n      dup3\n        /* \"#utility.yul\":8246:8264   */\n      add\n        /* \"#utility.yul\":8238:8264   */\n      swap1\n      pop\n        /* \"#utility.yul\":8310:8319   */\n      dup2\n        /* \"#utility.yul\":8304:8308   */\n      dup2\n        /* \"#utility.yul\":8300:8320   */\n      sub\n        /* \"#utility.yul\":8296:8297   */\n      0x00\n        /* \"#utility.yul\":8285:8294   */\n      dup4\n        /* \"#utility.yul\":8281:8298   */\n      add\n        /* \"#utility.yul\":8274:8321   */\n      mstore\n        /* \"#utility.yul\":8338:8446   */\n      tag_195\n        /* \"#utility.yul\":8441:8445   */\n      dup2\n        /* \"#utility.yul\":8432:8438   */\n      dup5\n        /* \"#utility.yul\":8338:8446   */\n      tag_86\n      jump\t// in\n    tag_195:\n        /* \"#utility.yul\":8330:8446   */\n      swap1\n      pop\n        /* \"#utility.yul\":8080:8453   */\n      swap3\n      swap2\n      pop\n      pop\n      jump\t// out\n        /* \"#utility.yul\":8459:8788   */\n    tag_24:\n        /* \"#utility.yul\":8518:8524   */\n      0x00\n        /* \"#utility.yul\":8567:8569   */\n      0x20\n        /* \"#utility.yul\":8555:8564   */\n      dup3\n        /* \"#utility.yul\":8546:8553   */\n      dup5\n        /* \"#utility.yul\":8542:8565   */\n      sub\n        /* \"#utility.yul\":8538:8570   */\n      slt\n        /* \"#utility.yul\":8535:8654   */\n      iszero\n      tag_197\n      jumpi\n        /* \"#utility.yul\":8573:8652   */\n      tag_198\n      tag_56\n      jump\t// in\n    tag_198:\n        /* \"#utility.yul\":8535:8654   */\n    tag_197:\n        /* \"#utility.yul\":8693:8694   */\n      0x00\n        /* \"#utility.yul\":8718:8771   */\n      tag_199\n        /* \"#utility.yul\":8763:8770   */\n      dup5\n        /* \"#utility.yul\":8754:8760   */\n      dup3\n        /* \"#utility.yul\":8743:8752   */\n      dup6\n        /* \"#utility.yul\":8739:8761   */\n      add\n        /* \"#utility.yul\":8718:8771   */\n      tag_70\n      jump\t// in\n    tag_199:\n        /* \"#utility.yul\":8708:8771   */\n      swap2\n      pop\n        /* \"#utility.yul\":8664:8781   */\n      pop\n        /* \"#utility.yul\":8459:8788   */\n      swap3\n      swap2\n      pop\n      pop\n      jump\t// out\n        /* \"#utility.yul\":8794:8912   */\n    tag_87:\n        /* \"#utility.yul\":8881:8905   */\n      tag_201\n        /* \"#utility.yul\":8899:8904   */\n      dup2\n        /* \"#utility.yul\":8881:8905   */\n      tag_59\n      jump\t// in\n    tag_201:\n        /* \"#utility.yul\":8876:8879   */\n      dup3\n        /* \"#utility.yul\":8869:8906   */\n      mstore\n        /* \"#utility.yul\":8794:8912   */\n      pop\n      pop\n      jump\t// out\n        /* \"#utility.yul\":8918:9140   */\n    tag_27:\n        /* \"#utility.yul\":9011:9015   */\n      0x00\n        /* \"#utility.yul\":9049:9051   */\n      0x20\n        /* \"#utility.yul\":9038:9047   */\n      dup3\n        /* \"#utility.yul\":9034:9052   */\n      add\n        /* \"#utility.yul\":9026:9052   */\n      swap1\n      pop\n        /* \"#utility.yul\":9062:9133   */\n      tag_203\n        /* \"#utility.yul\":9130:9131   */\n      0x00\n        /* \"#utility.yul\":9119:9128   */\n      dup4\n        /* \"#utility.yul\":9115:9132   */\n      add\n        /* \"#utility.yul\":9106:9112   */\n      dup5\n        /* \"#utility.yul\":9062:9133   */\n      tag_87\n      jump\t// in\n    tag_203:\n        /* \"#utility.yul\":8918:9140   */\n      swap3\n      swap2\n      pop\n      pop\n      jump\t// out\n        /* \"#utility.yul\":9146:9368   */\n    tag_31:\n        /* \"#utility.yul\":9239:9243   */\n      0x00\n        /* \"#utility.yul\":9277:9279   */\n      0x20\n        /* \"#utility.yul\":9266:9275   */\n      dup3\n        /* \"#utility.yul\":9262:9280   */\n      add\n        /* \"#utility.yul\":9254:9280   */\n      swap1\n      pop\n        /* \"#utility.yul\":9290:9361   */\n      tag_205\n        /* \"#utility.yul\":9358:9359   */\n      0x00\n        /* \"#utility.yul\":9347:9356   */\n      dup4\n        /* \"#utility.yul\":9343:9360   */\n      add\n        /* \"#utility.yul\":9334:9340   */\n      dup5\n        /* \"#utility.yul\":9290:9361   */\n      tag_63\n      jump\t// in\n    tag_205:\n        /* \"#utility.yul\":9146:9368   */\n      swap3\n      swap2\n      pop\n      pop\n      jump\t// out\n        /* \"#utility.yul\":9374:9554   */\n    tag_88:\n        /* \"#utility.yul\":9422:9499   */\n      0x4e487b7100000000000000000000000000000000000000000000000000000000\n        /* \"#utility.yul\":9419:9420   */\n      0x00\n        /* \"#utility.yul\":9412:9500   */\n      mstore\n        /* \"#utility.yul\":9519:9523   */\n      0x22\n        /* \"#utility.yul\":9516:9517   */\n      0x04\n        /* \"#utility.yul\":9509:9524   */\n      mstore\n        /* \"#utility.yul\":9543:9547   */\n      0x24\n        /* \"#utility.yul\":9540:9541   */\n      0x00\n        /* \"#utility.yul\":9533:9548   */\n      revert\n        /* \"#utility.yul\":9560:9880   */\n    tag_34:\n        /* \"#utility.yul\":9604:9610   */\n      0x00\n        /* \"#utility.yul\":9641:9642   */\n      0x02\n        /* \"#utility.yul\":9635:9639   */\n      dup3\n        /* \"#utility.yul\":9631:9643   */\n      div\n        /* \"#utility.yul\":9621:9643   */\n      swap1\n      pop\n        /* \"#utility.yul\":9688:9689   */\n      0x01\n        /* \"#utility.yul\":9682:9686   */\n      dup3\n        /* \"#utility.yul\":9678:9690   */\n      and\n        /* \"#utility.yul\":9709:9727   */\n      dup1\n        /* \"#utility.yul\":9699:9780   */\n      tag_208\n      jumpi\n        /* \"#utility.yul\":9765:9769   */\n      0x7f\n        /* \"#utility.yul\":9757:9763   */\n      dup3\n        /* \"#utility.yul\":9753:9770   */\n      and\n        /* \"#utility.yul\":9743:9770   */\n      swap2\n      pop\n        /* \"#utility.yul\":9699:9780   */\n    tag_208:\n        /* \"#utility.yul\":9827:9829   */\n      0x20\n        /* \"#utility.yul\":9819:9825   */\n      dup3\n        /* \"#utility.yul\":9816:9830   */\n      lt\n        /* \"#utility.yul\":9796:9814   */\n      dup2\n        /* \"#utility.yul\":9793:9831   */\n      sub\n        /* \"#utility.yul\":9790:9874   */\n      tag_209\n      jumpi\n        /* \"#utility.yul\":9846:9864   */\n      tag_210\n      tag_88\n      jump\t// in\n    tag_210:\n        /* \"#utility.yul\":9790:9874   */\n    tag_209:\n        /* \"#utility.yul\":9611:9880   */\n      pop\n        /* \"#utility.yul\":9560:9880   */\n      swap2\n      swap1\n      pop\n      jump\t// out\n        /* \"#utility.yul\":9886:10027   */\n    tag_89:\n        /* \"#utility.yul\":9935:9939   */\n      0x00\n        /* \"#utility.yul\":9958:9961   */\n      dup2\n        /* \"#utility.yul\":9950:9961   */\n      swap1\n      pop\n        /* \"#utility.yul\":9981:9984   */\n      dup2\n        /* \"#utility.yul\":9978:9979   */\n      0x00\n        /* \"#utility.yul\":9971:9985   */\n      mstore\n        /* \"#utility.yul\":10015:10019   */\n      0x20\n        /* \"#utility.yul\":10012:10013   */\n      0x00\n        /* \"#utility.yul\":10002:10020   */\n      keccak256\n        /* \"#utility.yul\":9994:10020   */\n      swap1\n      pop\n        /* \"#utility.yul\":9886:10027   */\n      swap2\n      swap1\n      pop\n      jump\t// out\n        /* \"#utility.yul\":10033:10126   */\n    tag_90:\n        /* \"#utility.yul\":10070:10076   */\n      0x00\n        /* \"#utility.yul\":10117:10119   */\n      0x20\n        /* \"#utility.yul\":10112:10114   */\n      0x1f\n        /* \"#utility.yul\":10105:10110   */\n      dup4\n        /* \"#utility.yul\":10101:10115   */\n      add\n        /* \"#utility.yul\":10097:10120   */\n      div\n        /* \"#utility.yul\":10087:10120   */\n      swap1\n      pop\n        /* \"#utility.yul\":10033:10126   */\n      swap2\n      swap1\n      pop\n      jump\t// out\n        /* \"#utility.yul\":10132:10239   */\n    tag_91:\n        /* \"#utility.yul\":10176:10184   */\n      0x00\n        /* \"#utility.yul\":10226:10231   */\n      dup3\n        /* \"#utility.yul\":10220:10224   */\n      dup3\n        /* \"#utility.yul\":10216:10232   */\n      shl\n        /* \"#utility.yul\":10195:10232   */\n      swap1\n      pop\n        /* \"#utility.yul\":10132:10239   */\n      swap3\n      swap2\n      pop\n      pop\n      jump\t// out\n        /* \"#utility.yul\":10245:10638   */\n    tag_92:\n        /* \"#utility.yul\":10314:10320   */\n      0x00\n        /* \"#utility.yul\":10364:10365   */\n      0x08\n        /* \"#utility.yul\":10352:10362   */\n      dup4\n        /* \"#utility.yul\":10348:10366   */\n      mul\n        /* \"#utility.yul\":10387:10484   */\n      tag_215\n        /* \"#utility.yul\":10417:10483   */\n      0xffffffffffffffffffffffffffffffffffffffffffffffffffffffffffffffff\n        /* \"#utility.yul\":10406:10415   */\n      dup3\n        /* \"#utility.yul\":10387:10484   */\n      tag_91\n      jump\t// in\n    tag_215:\n        /* \"#utility.yul\":10505:10544   */\n      tag_216\n        /* \"#utility.yul\":10535:10543   */\n      dup7\n        /* \"#utility.yul\":10524:10533   */\n      dup4\n        /* \"#utility.yul\":10505:10544   */\n      tag_91\n      jump\t// in\n    tag_216:\n        /* \"#utility.yul\":10493:10544   */\n      swap6\n      pop\n        /* \"#utility.yul\":10577:10581   */\n      dup1\n        /* \"#utility.yul\":10573:10582   */\n      not\n        /* \"#utility.yul\":10566:10571   */\n      dup5\n        /* \"#utility.yul\":10562:10583   */\n      and\n        /* \"#utility.yul\":10553:10583   */\n      swap4\n      pop\n        /* \"#utility.yul\":10626:10630   */\n      dup1\n        /* \"#utility.yul\":10616:10624   */\n      dup7\n        /* \"#utility.yul\":10612:10631   */\n      and\n        /* \"#utility.yul\":10605:10610   */\n      dup5\n        /* \"#utility.yul\":10602:10632   */\n      or\n        /* \"#utility.yul\":10592:10632   */\n      swap3\n      pop\n        /* \"#utility.yul\":10321:10638   */\n      pop\n      pop\n        /* \"#utility.yul\":10245:10638   */\n      swap4\n      swap3\n      pop\n      pop\n      pop\n      jump\t// out\n        /* \"#utility.yul\":10644:10704   */\n    tag_93:\n        /* \"#utility.yul\":10672:10675   */\n      0x00\n        /* \"#utility.yul\":10693:10698   */\n      dup2\n        /* \"#utility.yul\":10686:10698   */\n      swap1\n      pop\n        /* \"#utility.yul\":10644:10704   */\n      swap2\n      swap1\n      pop\n      jump\t// out\n        /* \"#utility.yul\":10710:10852   */\n    tag_94:\n        /* \"#utility.yul\":10760:10769   */\n      0x00\n        /* \"#utility.yul\":10793:10846   */\n      tag_219\n        /* \"#utility.yul\":10811:10845   */\n      tag_220\n        /* \"#utility.yul\":10820:10844   */\n      tag_221\n        /* \"#utility.yul\":10838:10843   */\n      dup5\n        /* \"#utility.yul\":10820:10844   */\n      tag_62\n      jump\t// in\n    tag_221:\n        /* \"#utility.yul\":10811:10845   */\n      tag_93\n      jump\t// in\n    tag_220:\n        /* \"#utility.yul\":10793:10846   */\n      tag_62\n      jump\t// in\n    tag_219:\n        /* \"#utility.yul\":10780:10846   */\n      swap1\n      pop\n        /* \"#utility.yul\":10710:10852   */\n      swap2\n      swap1\n      pop\n      jump\t// out\n        /* \"#utility.yul\":10858:10933   */\n    tag_95:\n        /* \"#utility.yul\":10901:10904   */\n      0x00\n        /* \"#utility.yul\":10922:10927   */\n      dup2\n        /* \"#utility.yul\":10915:10927   */\n      swap1\n      pop\n        /* \"#utility.yul\":10858:10933   */\n      swap2\n      swap1\n      pop\n      jump\t// out\n        /* \"#utility.yul\":10939:11208   */\n    tag_96:\n        /* \"#utility.yul\":11049:11088   */\n      tag_224\n        /* \"#utility.yul\":11080:11087   */\n      dup4\n        /* \"#utility.yul\":11049:11088   */\n      tag_94\n      jump\t// in\n    tag_224:\n        /* \"#utility.yul\":11110:11201   */\n      tag_225\n        /* \"#utility.yul\":11159:11200   */\n      tag_226\n        /* \"#utility.yul\":11183:11199   */\n      dup3\n        /* \"#utility.yul\":11159:11200   */\n      tag_95\n      jump\t// in\n    tag_226:\n        /* \"#utility.yul\":11151:11157   */\n      dup5\n        /* \"#utility.yul\":11144:11148   */\n      dup5\n        /* \"#utility.yul\":11138:11149   */\n      sload\n        /* \"#utility.yul\":11110:11201   */\n      tag_92\n      jump\t// in\n    tag_225:\n        /* \"#utility.yul\":11104:11108   */\n      dup3\n        /* \"#utility.yul\":11097:11202   */\n      sstore\n        /* \"#utility.yul\":11015:11208   */\n      pop\n        /* \"#utility.yul\":10939:11208   */\n      pop\n      pop\n      pop\n      jump\t// out\n        /* \"#utility.yul\":11214:11287   */\n    tag_97:\n        /* \"#utility.yul\":11259:11262   */\n      0x00\n        /* \"#utility.yul\":11280:11281   */\n      0x00\n        /* \"#utility.yul\":11273:11281   */\n      swap1\n      pop\n        /* \"#utility.yul\":11214:11287   */\n      swap1\n      jump\t// out\n        /* \"#utility.yul\":11293:11482   */\n    tag_98:\n        /* \"#utility.yul\":11370:11402   */\n      tag_229\n      tag_97\n      jump\t// in\n    tag_229:\n        /* \"#utility.yul\":11411:11476   */\n      tag_230\n        /* \"#utility.yul\":11469:11475   */\n      dup2\n        /* \"#utility.yul\":11461:11467   */\n      dup5\n        /* \"#utility.yul\":11455:11459   */\n      dup5\n        /* \"#utility.yul\":11411:11476   */\n      tag_96\n      jump\t// in\n    tag_230:\n        /* \"#utility.yul\":11346:11482   */\n      pop\n        /* \"#utility.yul\":11293:11482   */\n      pop\n      pop\n      jump\t// out\n        /* \"#utility.yul\":11488:11674   */\n    tag_99:\n        /* \"#utility.yul\":11548:11668   */\n    tag_232:\n        /* \"#utility.yul\":11565:11568   */\n      dup2\n        /* \"#utility.yul\":11558:11563   */\n      dup2\n        /* \"#utility.yul\":11555:11569   */\n      lt\n        /* \"#utility.yul\":11548:11668   */\n      iszero\n      tag_234\n      jumpi\n        /* \"#utility.yul\":11619:11658   */\n      tag_235\n        /* \"#utility.yul\":11656:11657   */\n      0x00\n        /* \"#utility.yul\":11649:11654   */\n      dup3\n        /* \"#utility.yul\":11619:11658   */\n      tag_98\n      jump\t// in\n    tag_235:\n        /* \"#utility.yul\":11592:11593   */\n      0x01\n        /* \"#utility.yul\":11585:11590   */\n      dup2\n        /* \"#utility.yul\":11581:11594   */\n      add\n        /* \"#utility.yul\":11572:11594   */\n      swap1\n      pop\n        /* \"#utility.yul\":11548:11668   */\n      jump(tag_232)\n    tag_234:\n        /* \"#utility.yul\":11488:11674   */\n      pop\n      pop\n      jump\t// out\n        /* \"#utility.yul\":11680:12223   */\n    tag_100:\n        /* \"#utility.yul\":11781:11783   */\n      0x1f\n        /* \"#utility.yul\":11776:11779   */\n      dup3\n        /* \"#utility.yul\":11773:11784   */\n      gt\n        /* \"#utility.yul\":11770:12216   */\n      iszero\n      tag_237\n      jumpi\n        /* \"#utility.yul\":11815:11853   */\n      tag_238\n        /* \"#utility.yul\":11847:11852   */\n      dup2\n        /* \"#utility.yul\":11815:11853   */\n      tag_89\n      jump\t// in\n    tag_238:\n        /* \"#utility.yul\":11899:11928   */\n      tag_239\n        /* \"#utility.yul\":11917:11927   */\n      dup5\n        /* \"#utility.yul\":11899:11928   */\n      tag_90\n      jump\t// in\n    tag_239:\n        /* \"#utility.yul\":11889:11897   */\n      dup2\n        /* \"#utility.yul\":11885:11929   */\n      add\n        /* \"#utility.yul\":12082:12084   */\n      0x20\n        /* \"#utility.yul\":12070:12080   */\n      dup6\n        /* \"#utility.yul\":12067:12085   */\n      lt\n        /* \"#utility.yul\":12064:12113   */\n      iszero\n      tag_240\n      jumpi\n        /* \"#utility.yul\":12103:12111   */\n      dup2\n        /* \"#utility.yul\":12088:12111   */\n      swap1\n      pop\n        /* \"#utility.yul\":12064:12113   */\n    tag_240:\n        /* \"#utility.yul\":12126:12206   */\n      tag_241\n        /* \"#utility.yul\":12182:12204   */\n      tag_242\n        /* \"#utility.yul\":12200:12203   */\n      dup6\n        /* \"#utility.yul\":12182:12204   */\n      tag_90\n      jump\t// in\n    tag_242:\n        /* \"#utility.yul\":12172:12180   */\n      dup4\n        /* \"#utility.yul\":12168:12205   */\n      add\n        /* \"#utility.yul\":12155:12166   */\n      dup3\n        /* \"#utility.yul\":12126:12206   */\n      tag_99\n      jump\t// in\n    tag_241:\n        /* \"#utility.yul\":11785:12216   */\n      pop\n      pop\n        /* \"#utility.yul\":11770:12216   */\n    tag_237:\n        /* \"#utility.yul\":11680:12223   */\n      pop\n      pop\n      pop\n      jump\t// out\n        /* \"#utility.yul\":12229:12346   */\n    tag_101:\n        /* \"#utility.yul\":12283:12291   */\n      0x00\n        /* \"#utility.yul\":12333:12338   */\n      dup3\n        /* \"#utility.yul\":12327:12331   */\n      dup3\n        /* \"#utility.yul\":12323:12339   */\n      shr\n        /* \"#utility.yul\":12302:12339   */\n      swap1\n      pop\n        /* \"#utility.yul\":12229:12346   */\n      swap3\n      swap2\n      pop\n      pop\n      jump\t// out\n        /* \"#utility.yul\":12352:12521   */\n    tag_102:\n        /* \"#utility.yul\":12396:12402   */\n      0x00\n        /* \"#utility.yul\":12429:12480   */\n      tag_245\n        /* \"#utility.yul\":12477:12478   */\n      0x00\n        /* \"#utility.yul\":12473:12479   */\n      not\n        /* \"#utility.yul\":12465:12470   */\n      dup5\n        /* \"#utility.yul\":12462:12463   */\n      0x08\n        /* \"#utility.yul\":12458:12471   */\n      mul\n        /* \"#utility.yul\":12429:12480   */\n      tag_101\n      jump\t// in\n    tag_245:\n        /* \"#utility.yul\":12425:12481   */\n      not\n        /* \"#utility.yul\":12510:12514   */\n      dup1\n        /* \"#utility.yul\":12504:12508   */\n      dup4\n        /* \"#utility.yul\":12500:12515   */\n      and\n        /* \"#utility.yul\":12490:12515   */\n      swap2\n      pop\n        /* \"#utility.yul\":12403:12521   */\n      pop\n        /* \"#utility.yul\":12352:12521   */\n      swap3\n      swap2\n      pop\n      pop\n      jump\t// out\n        /* \"#utility.yul\":12526:12821   */\n    tag_103:\n        /* \"#utility.yul\":12602:12606   */\n      0x00\n        /* \"#utility.yul\":12748:12777   */\n      tag_247\n        /* \"#utility.yul\":12773:12776   */\n      dup4\n        /* \"#utility.yul\":12767:12771   */\n      dup4\n        /* \"#utility.yul\":12748:12777   */\n      tag_102\n      jump\t// in\n    tag_247:\n        /* \"#utility.yul\":12740:12777   */\n      swap2\n      pop\n        /* \"#utility.yul\":12810:12813   */\n      dup3\n        /* \"#utility.yul\":12807:12808   */\n      0x02\n        /* \"#utility.yul\":12803:12814   */\n      mul\n        /* \"#utility.yul\":12797:12801   */\n      dup3\n        /* \"#utility.yul\":12794:12815   */\n      or\n        /* \"#utility.yul\":12786:12815   */\n      swap1\n      pop\n        /* \"#utility.yul\":12526:12821   */\n      swap3\n      swap2\n      pop\n      pop\n      jump\t// out\n        /* \"#utility.yul\":12826:14221   */\n    tag_46:\n        /* \"#utility.yul\":12943:12980   */\n      tag_249\n        /* \"#utility.yul\":12976:12979   */\n      dup3\n        /* \"#utility.yul\":12943:12980   */\n      tag_64\n      jump\t// in\n    tag_249:\n        /* \"#utility.yul\":13045:13063   */\n      0xffffffffffffffff\n        /* \"#utility.yul\":13037:13043   */\n      dup2\n        /* \"#utility.yul\":13034:13064   */\n      gt\n        /* \"#utility.yul\":13031:13087   */\n      iszero\n      tag_250\n      jumpi\n        /* \"#utility.yul\":13067:13085   */\n      tag_251\n      tag_73\n      jump\t// in\n    tag_251:\n        /* \"#utility.yul\":13031:13087   */\n    tag_250:\n        /* \"#utility.yul\":13111:13149   */\n      tag_252\n        /* \"#utility.yul\":13143:13147   */\n      dup3\n        /* \"#utility.yul\":13137:13148   */\n      sload\n        /* \"#utility.yul\":13111:13149   */\n      tag_34\n      jump\t// in\n    tag_252:\n        /* \"#utility.yul\":13196:13263   */\n      tag_253\n        /* \"#utility.yul\":13256:13262   */\n      dup3\n        /* \"#utility.yul\":13248:13254   */\n      dup3\n        /* \"#utility.yul\":13242:13246   */\n      dup6\n        /* \"#utility.yul\":13196:13263   */\n      tag_100\n      jump\t// in\n    tag_253:\n        /* \"#utility.yul\":13290:13291   */\n      0x00\n        /* \"#utility.yul\":13314:13318   */\n      0x20\n        /* \"#utility.yul\":13301:13318   */\n      swap1\n      pop\n        /* \"#utility.yul\":13346:13348   */\n      0x1f\n        /* \"#utility.yul\":13338:13344   */\n      dup4\n        /* \"#utility.yul\":13335:13349   */\n      gt\n        /* \"#utility.yul\":13363:13364   */\n      0x01\n        /* \"#utility.yul\":13358:13976   */\n      dup2\n      eq\n      tag_255\n      jumpi\n        /* \"#utility.yul\":14020:14021   */\n      0x00\n        /* \"#utility.yul\":14037:14043   */\n      dup5\n        /* \"#utility.yul\":14034:14111   */\n      iszero\n      tag_256\n      jumpi\n        /* \"#utility.yul\":14086:14095   */\n      dup3\n        /* \"#utility.yul\":14081:14084   */\n      dup8\n        /* \"#utility.yul\":14077:14096   */\n      add\n        /* \"#utility.yul\":14071:14097   */\n      mload\n        /* \"#utility.yul\":14062:14097   */\n      swap1\n      pop\n        /* \"#utility.yul\":14034:14111   */\n    tag_256:\n        /* \"#utility.yul\":14137:14204   */\n      tag_257\n        /* \"#utility.yul\":14197:14203   */\n      dup6\n        /* \"#utility.yul\":14190:14195   */\n      dup3\n        /* \"#utility.yul\":14137:14204   */\n      tag_103\n      jump\t// in\n    tag_257:\n        /* \"#utility.yul\":14131:14135   */\n      dup7\n        /* \"#utility.yul\":14124:14205   */\n      sstore\n        /* \"#utility.yul\":13993:14215   */\n      pop\n        /* \"#utility.yul\":13328:14215   */\n      jump(tag_254)\n        /* \"#utility.yul\":13358:13976   */\n    tag_255:\n        /* \"#utility.yul\":13410:13414   */\n      0x1f\n        /* \"#utility.yul\":13406:13415   */\n      not\n        /* \"#utility.yul\":13398:13404   */\n      dup5\n        /* \"#utility.yul\":13394:13416   */\n      and\n        /* \"#utility.yul\":13444:13481   */\n      tag_258\n        /* \"#utility.yul\":13476:13480   */\n      dup7\n        /* \"#utility.yul\":13444:13481   */\n      tag_89\n      jump\t// in\n    tag_258:\n        /* \"#utility.yul\":13503:13504   */\n      0x00\n        /* \"#utility.yul\":13517:13725   */\n    tag_259:\n        /* \"#utility.yul\":13531:13538   */\n      dup3\n        /* \"#utility.yul\":13528:13529   */\n      dup2\n        /* \"#utility.yul\":13525:13539   */\n      lt\n        /* \"#utility.yul\":13517:13725   */\n      iszero\n      tag_261\n      jumpi\n        /* \"#utility.yul\":13610:13619   */\n      dup5\n        /* \"#utility.yul\":13605:13608   */\n      dup10\n        /* \"#utility.yul\":13601:13620   */\n      add\n        /* \"#utility.yul\":13595:13621   */\n      mload\n        /* \"#utility.yul\":13587:13593   */\n      dup3\n        /* \"#utility.yul\":13580:13622   */\n      sstore\n        /* \"#utility.yul\":13661:13662   */\n      0x01\n        /* \"#utility.yul\":13653:13659   */\n      dup3\n        /* \"#utility.yul\":13649:13663   */\n      add\n        /* \"#utility.yul\":13639:13663   */\n      swap2\n      pop\n        /* \"#utility.yul\":13708:13710   */\n      0x20\n        /* \"#utility.yul\":13697:13706   */\n      dup6\n        /* \"#utility.yul\":13693:13711   */\n      add\n        /* \"#utility.yul\":13680:13711   */\n      swap5\n      pop\n        /* \"#utility.yul\":13554:13558   */\n      0x20\n        /* \"#utility.yul\":13551:13552   */\n      dup2\n        /* \"#utility.yul\":13547:13559   */\n      add\n        /* \"#utility.yul\":13542:13559   */\n      swap1\n      pop\n        /* \"#utility.yul\":13517:13725   */\n      jump(tag_259)\n    tag_261:\n        /* \"#utility.yul\":13753:13759   */\n      dup7\n        /* \"#utility.yul\":13744:13751   */\n      dup4\n        /* \"#utility.yul\":13741:13760   */\n      lt\n        /* \"#utility.yul\":13738:13917   */\n      iszero\n      tag_262\n      jumpi\n        /* \"#utility.yul\":13811:13820   */\n      dup5\n        /* \"#utility.yul\":13806:13809   */\n      dup10\n        /* \"#utility.yul\":13802:13821   */\n      add\n        /* \"#utility.yul\":13796:13822   */\n      mload\n        /* \"#utility.yul\":13854:13902   */\n      tag_263\n        /* \"#utility.yul\":13896:13900   */\n      0x1f\n        /* \"#utility.yul\":13888:13894   */\n      dup10\n        /* \"#utility.yul\":13884:13901   */\n      and\n        /* \"#utility.yul\":13873:13882   */\n      dup3\n        /* \"#utility.yul\":13854:13902   */\n      tag_102\n      jump\t// in\n    tag_263:\n        /* \"#utility.yul\":13846:13852   */\n      dup4\n        /* \"#utility.yul\":13839:13903   */\n      sstore\n        /* \"#utility.yul\":13761:13917   */\n      pop\n        /* \"#utility.yul\":13738:13917   */\n    tag_262:\n        /* \"#utility.yul\":13963:13964   */\n      0x01\n        /* \"#utility.yul\":13959:13960   */\n      0x02\n        /* \"#utility.yul\":13951:13957   */\n      dup9\n        /* \"#utility.yul\":13947:13961   */\n      mul\n        /* \"#utility.yul\":13943:13965   */\n      add\n        /* \"#utility.yul\":13937:13941   */\n      dup9\n        /* \"#utility.yul\":13930:13966   */\n      sstore\n        /* \"#utility.yul\":13365:13976   */\n      pop\n      pop\n      pop\n        /* \"#utility.yul\":13328:14215   */\n    tag_254:\n      pop\n        /* \"#utility.yul\":12918:14221   */\n      pop\n      pop\n      pop\n        /* \"#utility.yul\":12826:14221   */\n      pop\n      pop\n      jump\t// out\n\n    auxdata: 0xa26469706673582212200376f2b3e8ee346a29c2bbe142953ab7fee75a3fa5c2d249ab980cf656887a1664736f6c634300081b0033\n}\n",
				"bytecode": {
					"linkReferences": {},
					"object": "6080604052348015600e575f5ffd5b50610c318061001c5f395ff3fe608060405234801561000f575f5ffd5b5060043610610055575f3560e01c80630429e3721461005957806346428adc1461008b5780635eff7dae146100a75780638eb5234c146100c5578063ca8ab933146100f5575b5f5ffd5b610073600480360381019061006e9190610504565b610113565b604051610082939291906105b7565b60405180910390f35b6100a560048036038101906100a09190610750565b6102f5565b005b6100af6103c7565b6040516100bc91906108a3565b60405180910390f35b6100df60048036038101906100da91906108c3565b610452565b6040516100ec91906108fd565b60405180910390f35b6100fd61048d565b60405161010a9190610916565b60405180910390f35b5f6060805f5f8573ffffffffffffffffffffffffffffffffffffffff1673ffffffffffffffffffffffffffffffffffffffff1681526020019081526020015f205f01545f5f8673ffffffffffffffffffffffffffffffffffffffff1673ffffffffffffffffffffffffffffffffffffffff1681526020019081526020015f206001015f5f8773ffffffffffffffffffffffffffffffffffffffff1673ffffffffffffffffffffffffffffffffffffffff1681526020019081526020015f206002018180546101e09061095c565b80601f016020809104026020016040519081016040528092919081815260200182805461020c9061095c565b80156102575780601f1061022e57610100808354040283529160200191610257565b820191905f5260205f20905b81548152906001019060200180831161023a57829003601f168201915b5050505050915080805461026a9061095c565b80601f01602080910402602001604051908101604052809291908181526020018280546102969061095c565b80156102e15780601f106102b8576101008083540402835291602001916102e1565b820191905f5260205f20905b8154815290600101906020018083116102c457829003601f168201915b505050505090509250925092509193909250565b5f5f5f8673ffffffffffffffffffffffffffffffffffffffff1673ffffffffffffffffffffffffffffffffffffffff1681526020019081526020015f20905083815f01819055508281600101908161034d9190610b2c565b508181600201908161035f9190610b2c565b50600185908060018154018082558091505060019003905f5260205f20015f9091909190916101000a81548173ffffffffffffffffffffffffffffffffffffffff021916908373ffffffffffffffffffffffffffffffffffffffff1602179055505050505050565b6060600180548060200260200160405190810160405280929190818152602001828054801561044857602002820191905f5260205f20905b815f9054906101000a900473ffffffffffffffffffffffffffffffffffffffff1673ffffffffffffffffffffffffffffffffffffffff16815260200190600101908083116103ff575b5050505050905090565b60018181548110610461575f80fd5b905f5260205f20015f915054906101000a900473ffffffffffffffffffffffffffffffffffffffff1681565b5f600180549050905090565b5f604051905090565b5f5ffd5b5f5ffd5b5f73ffffffffffffffffffffffffffffffffffffffff82169050919050565b5f6104d3826104aa565b9050919050565b6104e3816104c9565b81146104ed575f5ffd5b50565b5f813590506104fe816104da565b92915050565b5f60208284031215610519576105186104a2565b5b5f610526848285016104f0565b91505092915050565b5f819050919050565b6105418161052f565b82525050565b5f81519050919050565b5f82825260208201905092915050565b8281835e5f83830152505050565b5f601f19601f8301169050919050565b5f61058982610547565b6105938185610551565b93506105a3818560208601610561565b6105ac8161056f565b840191505092915050565b5f6060820190506105ca5f830186610538565b81810360208301526105dc818561057f565b905081810360408301526105f0818461057f565b9050949350505050565b6106038161052f565b811461060d575f5ffd5b50565b5f8135905061061e816105fa565b92915050565b5f5ffd5b5f5ffd5b7f4e487b71000000000000000000000000000000000000000000000000000000005f52604160045260245ffd5b6106628261056f565b810181811067ffffffffffffffff821117156106815761068061062c565b5b80604052505050565b5f610693610499565b905061069f8282610659565b919050565b5f67ffffffffffffffff8211156106be576106bd61062c565b5b6106c78261056f565b9050602081019050919050565b828183375f83830152505050565b5f6106f46106ef846106a4565b61068a565b9050828152602081018484840111156107105761070f610628565b5b61071b8482856106d4565b509392505050565b5f82601f83011261073757610736610624565b5b81356107478482602086016106e2565b91505092915050565b5f5f5f5f60808587031215610768576107676104a2565b5b5f610775878288016104f0565b945050602061078687828801610610565b935050604085013567ffffffffffffffff8111156107a7576107a66104a6565b5b6107b387828801610723565b925050606085013567ffffffffffffffff8111156107d4576107d36104a6565b5b6107e087828801610723565b91505092959194509250565b5f81519050919050565b5f82825260208201905092915050565b5f819050602082019050919050565b61081e816104c9565b82525050565b5f61082f8383610815565b60208301905092915050565b5f602082019050919050565b5f610851826107ec565b61085b81856107f6565b935061086683610806565b805f5b8381101561089657815161087d8882610824565b97506108888361083b565b925050600181019050610869565b5085935050505092915050565b5f6020820190508181035f8301526108bb8184610847565b905092915050565b5f602082840312156108d8576108d76104a2565b5b5f6108e584828501610610565b91505092915050565b6108f7816104c9565b82525050565b5f6020820190506109105f8301846108ee565b92915050565b5f6020820190506109295f830184610538565b92915050565b7f4e487b71000000000000000000000000000000000000000000000000000000005f52602260045260245ffd5b5f600282049050600182168061097357607f821691505b6020821081036109865761098561092f565b5b50919050565b5f819050815f5260205f209050919050565b5f6020601f8301049050919050565b5f82821b905092915050565b5f600883026109e87fffffffffffffffffffffffffffffffffffffffffffffffffffffffffffffffff826109ad565b6109f286836109ad565b95508019841693508086168417925050509392505050565b5f819050919050565b5f610a2d610a28610a238461052f565b610a0a565b61052f565b9050919050565b5f819050919050565b610a4683610a13565b610a5a610a5282610a34565b8484546109b9565b825550505050565b5f5f905090565b610a71610a62565b610a7c818484610a3d565b505050565b5b81811015610a9f57610a945f82610a69565b600181019050610a82565b5050565b601f821115610ae457610ab58161098c565b610abe8461099e565b81016020851015610acd578190505b610ae1610ad98561099e565b830182610a81565b50505b505050565b5f82821c905092915050565b5f610b045f1984600802610ae9565b1980831691505092915050565b5f610b1c8383610af5565b9150826002028217905092915050565b610b3582610547565b67ffffffffffffffff811115610b4e57610b4d61062c565b5b610b58825461095c565b610b63828285610aa3565b5f60209050601f831160018114610b94575f8415610b82578287015190505b610b8c8582610b11565b865550610bf3565b601f198416610ba28661098c565b5f5b82811015610bc957848901518255600182019150602085019450602081019050610ba4565b86831015610be65784890151610be2601f891682610af5565b8355505b6001600288020188555050505b50505050505056fea26469706673582212200376f2b3e8ee346a29c2bbe142953ab7fee75a3fa5c2d249ab980cf656887a1664736f6c634300081b0033",
					"opcodes": "PUSH1 0x80 PUSH1 0x40 MSTORE CALLVALUE DUP1 ISZERO PUSH1 0xE JUMPI PUSH0 PUSH0 REVERT JUMPDEST POP PUSH2 0xC31 DUP1 PUSH2 0x1C PUSH0 CODECOPY PUSH0 RETURN INVALID PUSH1 0x80 PUSH1 0x40 MSTORE CALLVALUE DUP1 ISZERO PUSH2 0xF JUMPI PUSH0 PUSH0 REVERT JUMPDEST POP PUSH1 0x4 CALLDATASIZE LT PUSH2 0x55 JUMPI PUSH0 CALLDATALOAD PUSH1 0xE0 SHR DUP1 PUSH4 0x429E372 EQ PUSH2 0x59 JUMPI DUP1 PUSH4 0x46428ADC EQ PUSH2 0x8B JUMPI DUP1 PUSH4 0x5EFF7DAE EQ PUSH2 0xA7 JUMPI DUP1 PUSH4 0x8EB5234C EQ PUSH2 0xC5 JUMPI DUP1 PUSH4 0xCA8AB933 EQ PUSH2 0xF5 JUMPI JUMPDEST PUSH0 PUSH0 REVERT JUMPDEST PUSH2 0x73 PUSH1 0x4 DUP1 CALLDATASIZE SUB DUP2 ADD SWAP1 PUSH2 0x6E SWAP2 SWAP1 PUSH2 0x504 JUMP JUMPDEST PUSH2 0x113 JUMP JUMPDEST PUSH1 0x40 MLOAD PUSH2 0x82 SWAP4 SWAP3 SWAP2 SWAP1 PUSH2 0x5B7 JUMP JUMPDEST PUSH1 0x40 MLOAD DUP1 SWAP2 SUB SWAP1 RETURN JUMPDEST PUSH2 0xA5 PUSH1 0x4 DUP1 CALLDATASIZE SUB DUP2 ADD SWAP1 PUSH2 0xA0 SWAP2 SWAP1 PUSH2 0x750 JUMP JUMPDEST PUSH2 0x2F5 JUMP JUMPDEST STOP JUMPDEST PUSH2 0xAF PUSH2 0x3C7 JUMP JUMPDEST PUSH1 0x40 MLOAD PUSH2 0xBC SWAP2 SWAP1 PUSH2 0x8A3 JUMP JUMPDEST PUSH1 0x40 MLOAD DUP1 SWAP2 SUB SWAP1 RETURN JUMPDEST PUSH2 0xDF PUSH1 0x4 DUP1 CALLDATASIZE SUB DUP2 ADD SWAP1 PUSH2 0xDA SWAP2 SWAP1 PUSH2 0x8C3 JUMP JUMPDEST PUSH2 0x452 JUMP JUMPDEST PUSH1 0x40 MLOAD PUSH2 0xEC SWAP2 SWAP1 PUSH2 0x8FD JUMP JUMPDEST PUSH1 0x40 MLOAD DUP1 SWAP2 SUB SWAP1 RETURN JUMPDEST PUSH2 0xFD PUSH2 0x48D JUMP JUMPDEST PUSH1 0x40 MLOAD PUSH2 0x10A SWAP2 SWAP1 PUSH2 0x916 JUMP JUMPDEST PUSH1 0x40 MLOAD DUP1 SWAP2 SUB SWAP1 RETURN JUMPDEST PUSH0 PUSH1 0x60 DUP1 PUSH0 PUSH0 DUP6 PUSH20 0xFFFFFFFFFFFFFFFFFFFFFFFFFFFFFFFFFFFFFFFF AND PUSH20 0xFFFFFFFFFFFFFFFFFFFFFFFFFFFFFFFFFFFFFFFF AND DUP2 MSTORE PUSH1 0x20 ADD SWAP1 DUP2 MSTORE PUSH1 0x20 ADD PUSH0 KECCAK256 PUSH0 ADD SLOAD PUSH0 PUSH0 DUP7 PUSH20 0xFFFFFFFFFFFFFFFFFFFFFFFFFFFFFFFFFFFFFFFF AND PUSH20 0xFFFFFFFFFFFFFFFFFFFFFFFFFFFFFFFFFFFFFFFF AND DUP2 MSTORE PUSH1 0x20 ADD SWAP1 DUP2 MSTORE PUSH1 0x20 ADD PUSH0 KECCAK256 PUSH1 0x1 ADD PUSH0 PUSH0 DUP8 PUSH20 0xFFFFFFFFFFFFFFFFFFFFFFFFFFFFFFFFFFFFFFFF AND PUSH20 0xFFFFFFFFFFFFFFFFFFFFFFFFFFFFFFFFFFFFFFFF AND DUP2 MSTORE PUSH1 0x20 ADD SWAP1 DUP2 MSTORE PUSH1 0x20 ADD PUSH0 KECCAK256 PUSH1 0x2 ADD DUP2 DUP1 SLOAD PUSH2 0x1E0 SWAP1 PUSH2 0x95C JUMP JUMPDEST DUP1 PUSH1 0x1F ADD PUSH1 0x20 DUP1 SWAP2 DIV MUL PUSH1 0x20 ADD PUSH1 0x40 MLOAD SWAP1 DUP2 ADD PUSH1 0x40 MSTORE DUP1 SWAP3 SWAP2 SWAP1 DUP2 DUP2 MSTORE PUSH1 0x20 ADD DUP3 DUP1 SLOAD PUSH2 0x20C SWAP1 PUSH2 0x95C JUMP JUMPDEST DUP1 ISZERO PUSH2 0x257 JUMPI DUP1 PUSH1 0x1F LT PUSH2 0x22E JUMPI PUSH2 0x100 DUP1 DUP4 SLOAD DIV MUL DUP4 MSTORE SWAP2 PUSH1 0x20 ADD SWAP2 PUSH2 0x257 JUMP JUMPDEST DUP3 ADD SWAP2 SWAP1 PUSH0 MSTORE PUSH1 0x20 PUSH0 KECCAK256 SWAP1 JUMPDEST DUP2 SLOAD DUP2 MSTORE SWAP1 PUSH1 0x1 ADD SWAP1 PUSH1 0x20 ADD DUP1 DUP4 GT PUSH2 0x23A JUMPI DUP3 SWAP1 SUB PUSH1 0x1F AND DUP3 ADD SWAP2 JUMPDEST POP POP POP POP POP SWAP2 POP DUP1 DUP1 SLOAD PUSH2 0x26A SWAP1 PUSH2 0x95C JUMP JUMPDEST DUP1 PUSH1 0x1F ADD PUSH1 0x20 DUP1 SWAP2 DIV MUL PUSH1 0x20 ADD PUSH1 0x40 MLOAD SWAP1 DUP2 ADD PUSH1 0x40 MSTORE DUP1 SWAP3 SWAP2 SWAP1 DUP2 DUP2 MSTORE PUSH1 0x20 ADD DUP3 DUP1 SLOAD PUSH2 0x296 SWAP1 PUSH2 0x95C JUMP JUMPDEST DUP1 ISZERO PUSH2 0x2E1 JUMPI DUP1 PUSH1 0x1F LT PUSH2 0x2B8 JUMPI PUSH2 0x100 DUP1 DUP4 SLOAD DIV MUL DUP4 MSTORE SWAP2 PUSH1 0x20 ADD SWAP2 PUSH2 0x2E1 JUMP JUMPDEST DUP3 ADD SWAP2 SWAP1 PUSH0 MSTORE PUSH1 0x20 PUSH0 KECCAK256 SWAP1 JUMPDEST DUP2 SLOAD DUP2 MSTORE SWAP1 PUSH1 0x1 ADD SWAP1 PUSH1 0x20 ADD DUP1 DUP4 GT PUSH2 0x2C4 JUMPI DUP3 SWAP1 SUB PUSH1 0x1F AND DUP3 ADD SWAP2 JUMPDEST POP POP POP POP POP SWAP1 POP SWAP3 POP SWAP3 POP SWAP3 POP SWAP2 SWAP4 SWAP1 SWAP3 POP JUMP JUMPDEST PUSH0 PUSH0 PUSH0 DUP7 PUSH20 0xFFFFFFFFFFFFFFFFFFFFFFFFFFFFFFFFFFFFFFFF AND PUSH20 0xFFFFFFFFFFFFFFFFFFFFFFFFFFFFFFFFFFFFFFFF AND DUP2 MSTORE PUSH1 0x20 ADD SWAP1 DUP2 MSTORE PUSH1 0x20 ADD PUSH0 KECCAK256 SWAP1 POP DUP4 DUP2 PUSH0 ADD DUP2 SWAP1 SSTORE POP DUP3 DUP2 PUSH1 0x1 ADD SWAP1 DUP2 PUSH2 0x34D SWAP2 SWAP1 PUSH2 0xB2C JUMP JUMPDEST POP DUP2 DUP2 PUSH1 0x2 ADD SWAP1 DUP2 PUSH2 0x35F SWAP2 SWAP1 PUSH2 0xB2C JUMP JUMPDEST POP PUSH1 0x1 DUP6 SWAP1 DUP1 PUSH1 0x1 DUP2 SLOAD ADD DUP1 DUP3 SSTORE DUP1 SWAP2 POP POP PUSH1 0x1 SWAP1 SUB SWAP1 PUSH0 MSTORE PUSH1 0x20 PUSH0 KECCAK256 ADD PUSH0 SWAP1 SWAP2 SWAP1 SWAP2 SWAP1 SWAP2 PUSH2 0x100 EXP DUP2 SLOAD DUP2 PUSH20 0xFFFFFFFFFFFFFFFFFFFFFFFFFFFFFFFFFFFFFFFF MUL NOT AND SWAP1 DUP4 PUSH20 0xFFFFFFFFFFFFFFFFFFFFFFFFFFFFFFFFFFFFFFFF AND MUL OR SWAP1 SSTORE POP POP POP POP POP POP JUMP JUMPDEST PUSH1 0x60 PUSH1 0x1 DUP1 SLOAD DUP1 PUSH1 0x20 MUL PUSH1 0x20 ADD PUSH1 0x40 MLOAD SWAP1 DUP2 ADD PUSH1 0x40 MSTORE DUP1 SWAP3 SWAP2 SWAP1 DUP2 DUP2 MSTORE PUSH1 0x20 ADD DUP3 DUP1 SLOAD DUP1 ISZERO PUSH2 0x448 JUMPI PUSH1 0x20 MUL DUP3 ADD SWAP2 SWAP1 PUSH0 MSTORE PUSH1 0x20 PUSH0 KECCAK256 SWAP1 JUMPDEST DUP2 PUSH0 SWAP1 SLOAD SWAP1 PUSH2 0x100 EXP SWAP1 DIV PUSH20 0xFFFFFFFFFFFFFFFFFFFFFFFFFFFFFFFFFFFFFFFF AND PUSH20 0xFFFFFFFFFFFFFFFFFFFFFFFFFFFFFFFFFFFFFFFF AND DUP2 MSTORE PUSH1 0x20 ADD SWAP1 PUSH1 0x1 ADD SWAP1 DUP1 DUP4 GT PUSH2 0x3FF JUMPI JUMPDEST POP POP POP POP POP SWAP1 POP SWAP1 JUMP JUMPDEST PUSH1 0x1 DUP2 DUP2 SLOAD DUP2 LT PUSH2 0x461 JUMPI PUSH0 DUP1 REVERT JUMPDEST SWAP1 PUSH0 MSTORE PUSH1 0x20 PUSH0 KECCAK256 ADD PUSH0 SWAP2 POP SLOAD SWAP1 PUSH2 0x100 EXP SWAP1 DIV PUSH20 0xFFFFFFFFFFFFFFFFFFFFFFFFFFFFFFFFFFFFFFFF AND DUP2 JUMP JUMPDEST PUSH0 PUSH1 0x1 DUP1 SLOAD SWAP1 POP SWAP1 POP SWAP1 JUMP JUMPDEST PUSH0 PUSH1 0x40 MLOAD SWAP1 POP SWAP1 JUMP JUMPDEST PUSH0 PUSH0 REVERT JUMPDEST PUSH0 PUSH0 REVERT JUMPDEST PUSH0 PUSH20 0xFFFFFFFFFFFFFFFFFFFFFFFFFFFFFFFFFFFFFFFF DUP3 AND SWAP1 POP SWAP2 SWAP1 POP JUMP JUMPDEST PUSH0 PUSH2 0x4D3 DUP3 PUSH2 0x4AA JUMP JUMPDEST SWAP1 POP SWAP2 SWAP1 POP JUMP JUMPDEST PUSH2 0x4E3 DUP2 PUSH2 0x4C9 JUMP JUMPDEST DUP2 EQ PUSH2 0x4ED JUMPI PUSH0 PUSH0 REVERT JUMPDEST POP JUMP JUMPDEST PUSH0 DUP2 CALLDATALOAD SWAP1 POP PUSH2 0x4FE DUP2 PUSH2 0x4DA JUMP JUMPDEST SWAP3 SWAP2 POP POP JUMP JUMPDEST PUSH0 PUSH1 0x20 DUP3 DUP5 SUB SLT ISZERO PUSH2 0x519 JUMPI PUSH2 0x518 PUSH2 0x4A2 JUMP JUMPDEST JUMPDEST PUSH0 PUSH2 0x526 DUP5 DUP3 DUP6 ADD PUSH2 0x4F0 JUMP JUMPDEST SWAP2 POP POP SWAP3 SWAP2 POP POP JUMP JUMPDEST PUSH0 DUP2 SWAP1 POP SWAP2 SWAP1 POP JUMP JUMPDEST PUSH2 0x541 DUP2 PUSH2 0x52F JUMP JUMPDEST DUP3 MSTORE POP POP JUMP JUMPDEST PUSH0 DUP2 MLOAD SWAP1 POP SWAP2 SWAP1 POP JUMP JUMPDEST PUSH0 DUP3 DUP3 MSTORE PUSH1 0x20 DUP3 ADD SWAP1 POP SWAP3 SWAP2 POP POP JUMP JUMPDEST DUP3 DUP2 DUP4 MCOPY PUSH0 DUP4 DUP4 ADD MSTORE POP POP POP JUMP JUMPDEST PUSH0 PUSH1 0x1F NOT PUSH1 0x1F DUP4 ADD AND SWAP1 POP SWAP2 SWAP1 POP JUMP JUMPDEST PUSH0 PUSH2 0x589 DUP3 PUSH2 0x547 JUMP JUMPDEST PUSH2 0x593 DUP2 DUP6 PUSH2 0x551 JUMP JUMPDEST SWAP4 POP PUSH2 0x5A3 DUP2 DUP6 PUSH1 0x20 DUP7 ADD PUSH2 0x561 JUMP JUMPDEST PUSH2 0x5AC DUP2 PUSH2 0x56F JUMP JUMPDEST DUP5 ADD SWAP2 POP POP SWAP3 SWAP2 POP POP JUMP JUMPDEST PUSH0 PUSH1 0x60 DUP3 ADD SWAP1 POP PUSH2 0x5CA PUSH0 DUP4 ADD DUP7 PUSH2 0x538 JUMP JUMPDEST DUP2 DUP2 SUB PUSH1 0x20 DUP4 ADD MSTORE PUSH2 0x5DC DUP2 DUP6 PUSH2 0x57F JUMP JUMPDEST SWAP1 POP DUP2 DUP2 SUB PUSH1 0x40 DUP4 ADD MSTORE PUSH2 0x5F0 DUP2 DUP5 PUSH2 0x57F JUMP JUMPDEST SWAP1 POP SWAP5 SWAP4 POP POP POP POP JUMP JUMPDEST PUSH2 0x603 DUP2 PUSH2 0x52F JUMP JUMPDEST DUP2 EQ PUSH2 0x60D JUMPI PUSH0 PUSH0 REVERT JUMPDEST POP JUMP JUMPDEST PUSH0 DUP2 CALLDATALOAD SWAP1 POP PUSH2 0x61E DUP2 PUSH2 0x5FA JUMP JUMPDEST SWAP3 SWAP2 POP POP JUMP JUMPDEST PUSH0 PUSH0 REVERT JUMPDEST PUSH0 PUSH0 REVERT JUMPDEST PUSH32 0x4E487B7100000000000000000000000000000000000000000000000000000000 PUSH0 MSTORE PUSH1 0x41 PUSH1 0x4 MSTORE PUSH1 0x24 PUSH0 REVERT JUMPDEST PUSH2 0x662 DUP3 PUSH2 0x56F JUMP JUMPDEST DUP2 ADD DUP2 DUP2 LT PUSH8 0xFFFFFFFFFFFFFFFF DUP3 GT OR ISZERO PUSH2 0x681 JUMPI PUSH2 0x680 PUSH2 0x62C JUMP JUMPDEST JUMPDEST DUP1 PUSH1 0x40 MSTORE POP POP POP JUMP JUMPDEST PUSH0 PUSH2 0x693 PUSH2 0x499 JUMP JUMPDEST SWAP1 POP PUSH2 0x69F DUP3 DUP3 PUSH2 0x659 JUMP JUMPDEST SWAP2 SWAP1 POP JUMP JUMPDEST PUSH0 PUSH8 0xFFFFFFFFFFFFFFFF DUP3 GT ISZERO PUSH2 0x6BE JUMPI PUSH2 0x6BD PUSH2 0x62C JUMP JUMPDEST JUMPDEST PUSH2 0x6C7 DUP3 PUSH2 0x56F JUMP JUMPDEST SWAP1 POP PUSH1 0x20 DUP2 ADD SWAP1 POP SWAP2 SWAP1 POP JUMP JUMPDEST DUP3 DUP2 DUP4 CALLDATACOPY PUSH0 DUP4 DUP4 ADD MSTORE POP POP POP JUMP JUMPDEST PUSH0 PUSH2 0x6F4 PUSH2 0x6EF DUP5 PUSH2 0x6A4 JUMP JUMPDEST PUSH2 0x68A JUMP JUMPDEST SWAP1 POP DUP3 DUP2 MSTORE PUSH1 0x20 DUP2 ADD DUP5 DUP5 DUP5 ADD GT ISZERO PUSH2 0x710 JUMPI PUSH2 0x70F PUSH2 0x628 JUMP JUMPDEST JUMPDEST PUSH2 0x71B DUP5 DUP3 DUP6 PUSH2 0x6D4 JUMP JUMPDEST POP SWAP4 SWAP3 POP POP POP JUMP JUMPDEST PUSH0 DUP3 PUSH1 0x1F DUP4 ADD SLT PUSH2 0x737 JUMPI PUSH2 0x736 PUSH2 0x624 JUMP JUMPDEST JUMPDEST DUP2 CALLDATALOAD PUSH2 0x747 DUP5 DUP3 PUSH1 0x20 DUP7 ADD PUSH2 0x6E2 JUMP JUMPDEST SWAP2 POP POP SWAP3 SWAP2 POP POP JUMP JUMPDEST PUSH0 PUSH0 PUSH0 PUSH0 PUSH1 0x80 DUP6 DUP8 SUB SLT ISZERO PUSH2 0x768 JUMPI PUSH2 0x767 PUSH2 0x4A2 JUMP JUMPDEST JUMPDEST PUSH0 PUSH2 0x775 DUP8 DUP3 DUP9 ADD PUSH2 0x4F0 JUMP JUMPDEST SWAP5 POP POP PUSH1 0x20 PUSH2 0x786 DUP8 DUP3 DUP9 ADD PUSH2 0x610 JUMP JUMPDEST SWAP4 POP POP PUSH1 0x40 DUP6 ADD CALLDATALOAD PUSH8 0xFFFFFFFFFFFFFFFF DUP2 GT ISZERO PUSH2 0x7A7 JUMPI PUSH2 0x7A6 PUSH2 0x4A6 JUMP JUMPDEST JUMPDEST PUSH2 0x7B3 DUP8 DUP3 DUP9 ADD PUSH2 0x723 JUMP JUMPDEST SWAP3 POP POP PUSH1 0x60 DUP6 ADD CALLDATALOAD PUSH8 0xFFFFFFFFFFFFFFFF DUP2 GT ISZERO PUSH2 0x7D4 JUMPI PUSH2 0x7D3 PUSH2 0x4A6 JUMP JUMPDEST JUMPDEST PUSH2 0x7E0 DUP8 DUP3 DUP9 ADD PUSH2 0x723 JUMP JUMPDEST SWAP2 POP POP SWAP3 SWAP6 SWAP2 SWAP5 POP SWAP3 POP JUMP JUMPDEST PUSH0 DUP2 MLOAD SWAP1 POP SWAP2 SWAP1 POP JUMP JUMPDEST PUSH0 DUP3 DUP3 MSTORE PUSH1 0x20 DUP3 ADD SWAP1 POP SWAP3 SWAP2 POP POP JUMP JUMPDEST PUSH0 DUP2 SWAP1 POP PUSH1 0x20 DUP3 ADD SWAP1 POP SWAP2 SWAP1 POP JUMP JUMPDEST PUSH2 0x81E DUP2 PUSH2 0x4C9 JUMP JUMPDEST DUP3 MSTORE POP POP JUMP JUMPDEST PUSH0 PUSH2 0x82F DUP4 DUP4 PUSH2 0x815 JUMP JUMPDEST PUSH1 0x20 DUP4 ADD SWAP1 POP SWAP3 SWAP2 POP POP JUMP JUMPDEST PUSH0 PUSH1 0x20 DUP3 ADD SWAP1 POP SWAP2 SWAP1 POP JUMP JUMPDEST PUSH0 PUSH2 0x851 DUP3 PUSH2 0x7EC JUMP JUMPDEST PUSH2 0x85B DUP2 DUP6 PUSH2 0x7F6 JUMP JUMPDEST SWAP4 POP PUSH2 0x866 DUP4 PUSH2 0x806 JUMP JUMPDEST DUP1 PUSH0 JUMPDEST DUP4 DUP2 LT ISZERO PUSH2 0x896 JUMPI DUP2 MLOAD PUSH2 0x87D DUP9 DUP3 PUSH2 0x824 JUMP JUMPDEST SWAP8 POP PUSH2 0x888 DUP4 PUSH2 0x83B JUMP JUMPDEST SWAP3 POP POP PUSH1 0x1 DUP2 ADD SWAP1 POP PUSH2 0x869 JUMP JUMPDEST POP DUP6 SWAP4 POP POP POP POP SWAP3 SWAP2 POP POP JUMP JUMPDEST PUSH0 PUSH1 0x20 DUP3 ADD SWAP1 POP DUP2 DUP2 SUB PUSH0 DUP4 ADD MSTORE PUSH2 0x8BB DUP2 DUP5 PUSH2 0x847 JUMP JUMPDEST SWAP1 POP SWAP3 SWAP2 POP POP JUMP JUMPDEST PUSH0 PUSH1 0x20 DUP3 DUP5 SUB SLT ISZERO PUSH2 0x8D8 JUMPI PUSH2 0x8D7 PUSH2 0x4A2 JUMP JUMPDEST JUMPDEST PUSH0 PUSH2 0x8E5 DUP5 DUP3 DUP6 ADD PUSH2 0x610 JUMP JUMPDEST SWAP2 POP POP SWAP3 SWAP2 POP POP JUMP JUMPDEST PUSH2 0x8F7 DUP2 PUSH2 0x4C9 JUMP JUMPDEST DUP3 MSTORE POP POP JUMP JUMPDEST PUSH0 PUSH1 0x20 DUP3 ADD SWAP1 POP PUSH2 0x910 PUSH0 DUP4 ADD DUP5 PUSH2 0x8EE JUMP JUMPDEST SWAP3 SWAP2 POP POP JUMP JUMPDEST PUSH0 PUSH1 0x20 DUP3 ADD SWAP1 POP PUSH2 0x929 PUSH0 DUP4 ADD DUP5 PUSH2 0x538 JUMP JUMPDEST SWAP3 SWAP2 POP POP JUMP JUMPDEST PUSH32 0x4E487B7100000000000000000000000000000000000000000000000000000000 PUSH0 MSTORE PUSH1 0x22 PUSH1 0x4 MSTORE PUSH1 0x24 PUSH0 REVERT JUMPDEST PUSH0 PUSH1 0x2 DUP3 DIV SWAP1 POP PUSH1 0x1 DUP3 AND DUP1 PUSH2 0x973 JUMPI PUSH1 0x7F DUP3 AND SWAP2 POP JUMPDEST PUSH1 0x20 DUP3 LT DUP2 SUB PUSH2 0x986 JUMPI PUSH2 0x985 PUSH2 0x92F JUMP JUMPDEST JUMPDEST POP SWAP2 SWAP1 POP JUMP JUMPDEST PUSH0 DUP2 SWAP1 POP DUP2 PUSH0 MSTORE PUSH1 0x20 PUSH0 KECCAK256 SWAP1 POP SWAP2 SWAP1 POP JUMP JUMPDEST PUSH0 PUSH1 0x20 PUSH1 0x1F DUP4 ADD DIV SWAP1 POP SWAP2 SWAP1 POP JUMP JUMPDEST PUSH0 DUP3 DUP3 SHL SWAP1 POP SWAP3 SWAP2 POP POP JUMP JUMPDEST PUSH0 PUSH1 0x8 DUP4 MUL PUSH2 0x9E8 PUSH32 0xFFFFFFFFFFFFFFFFFFFFFFFFFFFFFFFFFFFFFFFFFFFFFFFFFFFFFFFFFFFFFFFF DUP3 PUSH2 0x9AD JUMP JUMPDEST PUSH2 0x9F2 DUP7 DUP4 PUSH2 0x9AD JUMP JUMPDEST SWAP6 POP DUP1 NOT DUP5 AND SWAP4 POP DUP1 DUP7 AND DUP5 OR SWAP3 POP POP POP SWAP4 SWAP3 POP POP POP JUMP JUMPDEST PUSH0 DUP2 SWAP1 POP SWAP2 SWAP1 POP JUMP JUMPDEST PUSH0 PUSH2 0xA2D PUSH2 0xA28 PUSH2 0xA23 DUP5 PUSH2 0x52F JUMP JUMPDEST PUSH2 0xA0A JUMP JUMPDEST PUSH2 0x52F JUMP JUMPDEST SWAP1 POP SWAP2 SWAP1 POP JUMP JUMPDEST PUSH0 DUP2 SWAP1 POP SWAP2 SWAP1 POP JUMP JUMPDEST PUSH2 0xA46 DUP4 PUSH2 0xA13 JUMP JUMPDEST PUSH2 0xA5A PUSH2 0xA52 DUP3 PUSH2 0xA34 JUMP JUMPDEST DUP5 DUP5 SLOAD PUSH2 0x9B9 JUMP JUMPDEST DUP3 SSTORE POP POP POP POP JUMP JUMPDEST PUSH0 PUSH0 SWAP1 POP SWAP1 JUMP JUMPDEST PUSH2 0xA71 PUSH2 0xA62 JUMP JUMPDEST PUSH2 0xA7C DUP2 DUP5 DUP5 PUSH2 0xA3D JUMP JUMPDEST POP POP POP JUMP JUMPDEST JUMPDEST DUP2 DUP2 LT ISZERO PUSH2 0xA9F JUMPI PUSH2 0xA94 PUSH0 DUP3 PUSH2 0xA69 JUMP JUMPDEST PUSH1 0x1 DUP2 ADD SWAP1 POP PUSH2 0xA82 JUMP JUMPDEST POP POP JUMP JUMPDEST PUSH1 0x1F DUP3 GT ISZERO PUSH2 0xAE4 JUMPI PUSH2 0xAB5 DUP2 PUSH2 0x98C JUMP JUMPDEST PUSH2 0xABE DUP5 PUSH2 0x99E JUMP JUMPDEST DUP2 ADD PUSH1 0x20 DUP6 LT ISZERO PUSH2 0xACD JUMPI DUP2 SWAP1 POP JUMPDEST PUSH2 0xAE1 PUSH2 0xAD9 DUP6 PUSH2 0x99E JUMP JUMPDEST DUP4 ADD DUP3 PUSH2 0xA81 JUMP JUMPDEST POP POP JUMPDEST POP POP POP JUMP JUMPDEST PUSH0 DUP3 DUP3 SHR SWAP1 POP SWAP3 SWAP2 POP POP JUMP JUMPDEST PUSH0 PUSH2 0xB04 PUSH0 NOT DUP5 PUSH1 0x8 MUL PUSH2 0xAE9 JUMP JUMPDEST NOT DUP1 DUP4 AND SWAP2 POP POP SWAP3 SWAP2 POP POP JUMP JUMPDEST PUSH0 PUSH2 0xB1C DUP4 DUP4 PUSH2 0xAF5 JUMP JUMPDEST SWAP2 POP DUP3 PUSH1 0x2 MUL DUP3 OR SWAP1 POP SWAP3 SWAP2 POP POP JUMP JUMPDEST PUSH2 0xB35 DUP3 PUSH2 0x547 JUMP JUMPDEST PUSH8 0xFFFFFFFFFFFFFFFF DUP2 GT ISZERO PUSH2 0xB4E JUMPI PUSH2 0xB4D PUSH2 0x62C JUMP JUMPDEST JUMPDEST PUSH2 0xB58 DUP3 SLOAD PUSH2 0x95C JUMP JUMPDEST PUSH2 0xB63 DUP3 DUP3 DUP6 PUSH2 0xAA3 JUMP JUMPDEST PUSH0 PUSH1 0x20 SWAP1 POP PUSH1 0x1F DUP4 GT PUSH1 0x1 DUP2 EQ PUSH2 0xB94 JUMPI PUSH0 DUP5 ISZERO PUSH2 0xB82 JUMPI DUP3 DUP8 ADD MLOAD SWAP1 POP JUMPDEST PUSH2 0xB8C DUP6 DUP3 PUSH2 0xB11 JUMP JUMPDEST DUP7 SSTORE POP PUSH2 0xBF3 JUMP JUMPDEST PUSH1 0x1F NOT DUP5 AND PUSH2 0xBA2 DUP7 PUSH2 0x98C JUMP JUMPDEST PUSH0 JUMPDEST DUP3 DUP2 LT ISZERO PUSH2 0xBC9 JUMPI DUP5 DUP10 ADD MLOAD DUP3 SSTORE PUSH1 0x1 DUP3 ADD SWAP2 POP PUSH1 0x20 DUP6 ADD SWAP5 POP PUSH1 0x20 DUP2 ADD SWAP1 POP PUSH2 0xBA4 JUMP JUMPDEST DUP7 DUP4 LT ISZERO PUSH2 0xBE6 JUMPI DUP5 DUP10 ADD MLOAD PUSH2 0xBE2 PUSH1 0x1F DUP10 AND DUP3 PUSH2 0xAF5 JUMP JUMPDEST DUP4 SSTORE POP JUMPDEST PUSH1 0x1 PUSH1 0x2 DUP9 MUL ADD DUP9 SSTORE POP POP POP JUMPDEST POP POP POP POP POP POP JUMP INVALID LOG2 PUSH5 0x6970667358 0x22 SLT KECCAK256 SUB PUSH23 0xF2B3E8EE346A29C2BBE142953AB7FEE75A3FA5C2D249AB SWAP9 0xC 0xF6 JUMP DUP9 PUSH27 0x1664736F6C634300081B0033000000000000000000000000000000 "
				},
				"gasEstimates": {
					"creation": {
						"codeDepositCost": "624200",
						"executionCost": "655",
						"totalCost": "624855"
					},
					"external": {
						"countInstructors()": "2506",
						"getInstructor(address)": "infinite",
						"getInstructors()": "infinite",
						"instructorAccts(uint256)": "4988",
						"setInstructor(address,uint256,string,string)": "infinite"
					}
				},
				"methodIdentifiers": {
					"countInstructors()": "ca8ab933",
					"getInstructor(address)": "0429e372",
					"getInstructors()": "5eff7dae",
					"instructorAccts(uint256)": "8eb5234c",
					"setInstructor(address,uint256,string,string)": "46428adc"
				}
			},
			"storageLayout": {
				"storage": [
					{
						"astId": 13,
						"contract": "Courses.sol:Courses",
						"label": "instructors",
						"offset": 0,
						"slot": "0",
						"type": "t_mapping(t_address,t_struct(Instructor)8_storage)"
					},
					{
						"astId": 16,
						"contract": "Courses.sol:Courses",
						"label": "instructorAccts",
						"offset": 0,
						"slot": "1",
						"type": "t_array(t_address)dyn_storage"
					}
				],
				"types": {
					"t_address": {
						"encoding": "inplace",
						"label": "address",
						"numberOfBytes": "20"
					},
					"t_array(t_address)dyn_storage": {
						"base": "t_address",
						"encoding": "dynamic_array",
						"label": "address[]",
						"numberOfBytes": "32"
					},
					"t_mapping(t_address,t_struct(Instructor)8_storage)": {
						"encoding": "mapping",
						"key": "t_address",
						"label": "mapping(address => struct Courses.Instructor)",
						"numberOfBytes": "32",
						"value": "t_struct(Instructor)8_storage"
					},
					"t_string_storage": {
						"encoding": "bytes",
						"label": "string",
						"numberOfBytes": "32"
					},
					"t_struct(Instructor)8_storage": {
						"encoding": "inplace",
						"label": "struct Courses.Instructor",
						"members": [
							{
								"astId": 3,
								"contract": "Courses.sol:Courses",
								"label": "age",
								"offset": 0,
								"slot": "0",
								"type": "t_uint256"
							},
							{
								"astId": 5,
								"contract": "Courses.sol:Courses",
								"label": "fName",
								"offset": 0,
								"slot": "1",
								"type": "t_string_storage"
							},
							{
								"astId": 7,
								"contract": "Courses.sol:Courses",
								"label": "lName",
								"offset": 0,
								"slot": "2",
								"type": "t_string_storage"
							}
						],
						"numberOfBytes": "96"
					},
					"t_uint256": {
						"encoding": "inplace",
						"label": "uint256",
						"numberOfBytes": "32"
					}
				}
			},
			"userdoc": {
				"kind": "user",
				"methods": {},
				"version": 1
			}
		}
	}
}